{
  "_format": "hh-sol-artifact-1",
  "contractName": "StaticERC721",
  "sourceName": "contracts/static/StaticERC721.sol",
  "abi": [
    {
      "inputs": [
        {
          "internalType": "bytes",
          "name": "extra",
          "type": "bytes"
        },
        {
          "internalType": "address[7]",
          "name": "addresses",
          "type": "address[7]"
        },
        {
          "internalType": "enum AuthenticatedProxy.HowToCall[2]",
          "name": "howToCalls",
          "type": "uint8[2]"
        },
        {
          "internalType": "uint256[6]",
          "name": "uints",
          "type": "uint256[6]"
        },
        {
          "internalType": "bytes",
          "name": "data",
          "type": "bytes"
        },
        {
          "internalType": "bytes",
          "name": "counterdata",
          "type": "bytes"
        }
      ],
      "name": "swapOneForOneERC721",
      "outputs": [
        {
          "internalType": "uint256",
          "name": "",
          "type": "uint256"
        }
      ],
      "stateMutability": "pure",
      "type": "function"
    },
    {
      "inputs": [
        {
          "internalType": "bytes",
          "name": "extra",
          "type": "bytes"
        },
        {
          "internalType": "address[7]",
          "name": "addresses",
          "type": "address[7]"
        },
        {
          "internalType": "enum AuthenticatedProxy.HowToCall[2]",
          "name": "howToCalls",
          "type": "uint8[2]"
        },
        {
          "internalType": "uint256[6]",
          "name": "uints",
          "type": "uint256[6]"
        },
        {
          "internalType": "bytes",
          "name": "data",
          "type": "bytes"
        },
        {
          "internalType": "bytes",
          "name": "counterdata",
          "type": "bytes"
        }
      ],
      "name": "swapOneForOneERC721Decoding",
      "outputs": [
        {
          "internalType": "uint256",
          "name": "",
          "type": "uint256"
        }
      ],
      "stateMutability": "pure",
      "type": "function"
    },
    {
      "inputs": [
        {
          "internalType": "bytes",
          "name": "extra",
          "type": "bytes"
        },
        {
          "internalType": "address[7]",
          "name": "addresses",
          "type": "address[7]"
        },
        {
          "internalType": "enum AuthenticatedProxy.HowToCall",
          "name": "howToCall",
          "type": "uint8"
        },
        {
          "internalType": "uint256[6]",
          "name": "",
          "type": "uint256[6]"
        },
        {
          "internalType": "bytes",
          "name": "data",
          "type": "bytes"
        }
      ],
      "name": "transferERC721Exact",
      "outputs": [],
      "stateMutability": "pure",
      "type": "function"
    }
  ],
  "bytecode": "0x608060405234801561001057600080fd5b5061170b806100206000396000f3fe608060405234801561001057600080fd5b50600436106100415760003560e01c8063883ee43014610046578063b6c8184b14610307578063ba352743146104e9575b600080fd5b6102f1600480360361024081101561005d57600080fd5b810190808035906020019064010000000081111561007a57600080fd5b82018360208201111561008c57600080fd5b803590602001918460018302840111640100000000831117156100ae57600080fd5b91908080601f016020809104026020016040519081016040528093929190818152602001838380828437600081840152601f19601f8201169050808301925050505050505091929192908060e001906007806020026040519081016040528092919082600760200280828437600081840152601f19601f820116905080830192505050505050919291929080604001906002806020026040519081016040528092919082600260200280828437600081840152601f19601f82011690508083019250505050505091929192908060c001906006806020026040519081016040528092919082600660200280828437600081840152601f19601f8201169050808301925050505050509192919290803590602001906401000000008111156101d457600080fd5b8201836020820111156101e657600080fd5b8035906020019184600183028401116401000000008311171561020857600080fd5b91908080601f016020809104026020016040519081016040528093929190818152602001838380828437600081840152601f19601f8201169050808301925050505050505091929192908035906020019064010000000081111561026b57600080fd5b82018360208201111561027d57600080fd5b8035906020019184600183028401116401000000008311171561029f57600080fd5b91908080601f016020809104026020016040519081016040528093929190818152602001838380828437600081840152601f19601f8201169050808301925050505050505091929192905050506107aa565b6040518082815260200191505060405180910390f35b6104e7600480360361020081101561031e57600080fd5b810190808035906020019064010000000081111561033b57600080fd5b82018360208201111561034d57600080fd5b8035906020019184600183028401116401000000008311171561036f57600080fd5b91908080601f016020809104026020016040519081016040528093929190818152602001838380828437600081840152601f19601f8201169050808301925050505050505091929192908060e001906007806020026040519081016040528092919082600760200280828437600081840152601f19601f8201169050808301925050505050509192919290803560ff1690602001909291908060c001906006806020026040519081016040528092919082600660200280828437600081840152601f19601f82011690508083019250505050505091929192908035906020019064010000000081111561046157600080fd5b82018360208201111561047357600080fd5b8035906020019184600183028401116401000000008311171561049557600080fd5b91908080601f016020809104026020016040519081016040528093929190818152602001838380828437600081840152601f19601f820116905080830192505050505050509192919290505050610d2b565b005b610794600480360361024081101561050057600080fd5b810190808035906020019064010000000081111561051d57600080fd5b82018360208201111561052f57600080fd5b8035906020019184600183028401116401000000008311171561055157600080fd5b91908080601f016020809104026020016040519081016040528093929190818152602001838380828437600081840152601f19601f8201169050808301925050505050505091929192908060e001906007806020026040519081016040528092919082600760200280828437600081840152601f19601f820116905080830192505050505050919291929080604001906002806020026040519081016040528092919082600260200280828437600081840152601f19601f82011690508083019250505050505091929192908060c001906006806020026040519081016040528092919082600660200280828437600081840152601f19601f82011690508083019250505050505091929192908035906020019064010000000081111561067757600080fd5b82018360208201111561068957600080fd5b803590602001918460018302840111640100000000831117156106ab57600080fd5b91908080601f016020809104026020016040519081016040528093929190818152602001838380828437600081840152601f19601f8201169050808301925050505050505091929192908035906020019064010000000081111561070e57600080fd5b82018360208201111561072057600080fd5b8035906020019184600183028401116401000000008311171561074257600080fd5b91908080601f016020809104026020016040519081016040528093929190818152602001838380828437600081840152601f19601f820116905080830192505050505050509192919290505050610ed5565b6040518082815260200191505060405180910390f35b6000606061083b6040516024016040516020818303038152906040527f23b872dd000000000000000000000000000000000000000000000000000000007bffffffffffffffffffffffffffffffffffffffffffffffffffffffff19166020820180517bffffffffffffffffffffffffffffffffffffffffffffffffffffffff838183161783525050505060046113a5565b905060008560006006811061084c57fe5b60200201511461085b57600080fd5b6108636115d2565b61086b6115f4565b89806020019051608081101561088057600080fd5b8101908091908260400191905050915091508160006002811061089f57fe5b602002015173ffffffffffffffffffffffffffffffffffffffff16896002600781106108c757fe5b602002015173ffffffffffffffffffffffffffffffffffffffff1614610938576040517f08c379a00000000000000000000000000000000000000000000000000000000081526004018080602001828103825260378152602001806116406037913960400191505060405180910390fd5b6000600181111561094557fe5b8860006002811061095257fe5b6020020151600181111561096257fe5b146109b8576040517f08c379a00000000000000000000000000000000000000000000000000000000081526004018080602001828103825260228152602001806116776022913960400191505060405180910390fd5b6109cc836109c78860046113a5565b6113bb565b6109d557600080fd5b60008060006109e5896004611428565b80602001905160608110156109f957600080fd5b810190808051906020019092919080519060200190929190805190602001909291905050509250925092508b600160078110610a3157fe5b602002015173ffffffffffffffffffffffffffffffffffffffff168373ffffffffffffffffffffffffffffffffffffffff1614610a6d57600080fd5b8b600460078110610a7a57fe5b602002015173ffffffffffffffffffffffffffffffffffffffff168273ffffffffffffffffffffffffffffffffffffffff1614610ab657600080fd5b83600060028110610ac357fe5b60200201518114610ad357600080fd5b84600160028110610ae057fe5b602002015173ffffffffffffffffffffffffffffffffffffffff168c600560078110610b0857fe5b602002015173ffffffffffffffffffffffffffffffffffffffff1614610b79576040517f08c379a000000000000000000000000000000000000000000000000000000000815260040180806020018281038252603d815260200180611699603d913960400191505060405180910390fd5b60006001811115610b8657fe5b8b600160028110610b9357fe5b60200201516001811115610ba357fe5b14610bf9576040517f08c379a00000000000000000000000000000000000000000000000000000000081526004018080602001828103825260298152602001806116176029913960400191505060405180910390fd5b610c0d86610c088a60046113a5565b6113bb565b610c1657600080fd5b6000806000610c268b6004611428565b8060200190516060811015610c3a57600080fd5b810190808051906020019092919080519060200190929190805190602001909291905050509250925092508e600460078110610c7257fe5b602002015173ffffffffffffffffffffffffffffffffffffffff168373ffffffffffffffffffffffffffffffffffffffff1614610cae57600080fd5b8e600160078110610cbb57fe5b602002015173ffffffffffffffffffffffffffffffffffffffff168273ffffffffffffffffffffffffffffffffffffffff1614610cf757600080fd5b86600160028110610d0457fe5b60200201518114610d1457600080fd5b600199505050505050505050509695505050505050565b600080868060200190516040811015610d4357600080fd5b810190808051906020019092919080519060200190929190505050915091508173ffffffffffffffffffffffffffffffffffffffff1686600260078110610d8657fe5b602002015173ffffffffffffffffffffffffffffffffffffffff1614610dab57600080fd5b60006001811115610db857fe5b856001811115610dc457fe5b14610dce57600080fd5b610ec38387600160078110610ddf57fe5b602002015188600460078110610df157fe5b602002015184604051602401808473ffffffffffffffffffffffffffffffffffffffff1681526020018373ffffffffffffffffffffffffffffffffffffffff16815260200182815260200193505050506040516020818303038152906040527f23b872dd000000000000000000000000000000000000000000000000000000007bffffffffffffffffffffffffffffffffffffffffffffffffffffffff19166020820180517bffffffffffffffffffffffffffffffffffffffffffffffffffffffff83818316178352505050506113bb565b610ecc57600080fd5b50505050505050565b60008084600060068110610ee557fe5b602002015114610ef457600080fd5b610efc6115d2565b610f046115f4565b888060200190516080811015610f1957600080fd5b81019080919082604001919050509150915081600060028110610f3857fe5b602002015173ffffffffffffffffffffffffffffffffffffffff1688600260078110610f6057fe5b602002015173ffffffffffffffffffffffffffffffffffffffff1614610fd1576040517f08c379a00000000000000000000000000000000000000000000000000000000081526004018080602001828103825260378152602001806116406037913960400191505060405180910390fd5b60006001811115610fde57fe5b87600060028110610feb57fe5b60200201516001811115610ffb57fe5b14611051576040517f08c379a00000000000000000000000000000000000000000000000000000000081526004018080602001828103825260228152602001806116776022913960400191505060405180910390fd5b611157858960016007811061106257fe5b60200201518a60046007811061107457fe5b60200201518460006002811061108657fe5b6020020151604051602401808473ffffffffffffffffffffffffffffffffffffffff1681526020018373ffffffffffffffffffffffffffffffffffffffff16815260200182815260200193505050506040516020818303038152906040527f23b872dd000000000000000000000000000000000000000000000000000000007bffffffffffffffffffffffffffffffffffffffffffffffffffffffff19166020820180517bffffffffffffffffffffffffffffffffffffffffffffffffffffffff83818316178352505050506113bb565b61116057600080fd5b8160016002811061116d57fe5b602002015173ffffffffffffffffffffffffffffffffffffffff168860056007811061119557fe5b602002015173ffffffffffffffffffffffffffffffffffffffff1614611206576040517f08c379a000000000000000000000000000000000000000000000000000000000815260040180806020018281038252603d815260200180611699603d913960400191505060405180910390fd5b6000600181111561121357fe5b8760016002811061122057fe5b6020020151600181111561123057fe5b14611286576040517f08c379a00000000000000000000000000000000000000000000000000000000081526004018080602001828103825260298152602001806116176029913960400191505060405180910390fd5b61138c848960046007811061129757fe5b60200201518a6001600781106112a957fe5b6020020151846001600281106112bb57fe5b6020020151604051602401808473ffffffffffffffffffffffffffffffffffffffff1681526020018373ffffffffffffffffffffffffffffffffffffffff16815260200182815260200193505050506040516020818303038152906040527f23b872dd000000000000000000000000000000000000000000000000000000007bffffffffffffffffffffffffffffffffffffffffffffffffffffffff19166020820180517bffffffffffffffffffffffffffffffffffffffffffffffffffffffff83818316178352505050506113bb565b61139557600080fd5b6001925050509695505050505050565b60606113b38360008461144d565b905092915050565b60008060019050835183518114600181146113d9576000925061141c565b600160208701838101602088015b6002848385100114156114175780518351146114065760009650600093505b6020830192506020810190506113e7565b505050505b50508091505092915050565b606060006114378451846114c8565b905061144484848361144d565b91505092915050565b60608082156000811461146b576040519150602082016040526114bc565b6040519150601f8416801560200281840101858101878315602002848b0101015b818310156114a9578051835260208301925060208101905061148c565b50868552601f19601f8301166040525050505b50809150509392505050565b600061150a83836040518060400160405280601e81526020017f536166654d6174683a207375627472616374696f6e206f766572666c6f770000815250611512565b905092915050565b60008383111582906115bf576040517f08c379a00000000000000000000000000000000000000000000000000000000081526004018080602001828103825283818151815260200191508051906020019080838360005b83811015611584578082015181840152602081019050611569565b50505050905090810190601f1680156115b15780820380516001836020036101000a031916815260200191505b509250505060405180910390fd5b5060008385039050809150509392505050565b6040518060400160405280600290602082028036833780820191505090505090565b604051806040016040528060029060208202803683378082019150509050509056fe4552433732313a20636f756e74657263616c6c206d7573742062652061206469726563742063616c6c4552433732313a2063616c6c20746172676574206d75737420657175616c2061646472657373206f6620746f6b656e20746f20676976654552433732313a2063616c6c206d7573742062652061206469726563742063616c6c4552433732313a20636f756e74657263616c6c20746172676574206d75737420657175616c2061646472657373206f6620746f6b656e20746f20676574a2646970667358221220d813134bd103de830c7f69aebf252539c97f46fe96db3713ec7b2ce18940380064736f6c63430007050033",
  "linkReferences": {},
  "deployedLinkReferences": {}
}