{
  "_format": "hh-sol-artifact-1",
  "contractName": "StaticUtil",
  "sourceName": "contracts/static/StaticUtil.sol",
  "abi": [
    {
      "inputs": [
        {
          "internalType": "bytes",
          "name": "extra",
          "type": "bytes"
        },
        {
          "internalType": "address[7]",
          "name": "addresses",
          "type": "address[7]"
        },
        {
          "internalType": "enum AuthenticatedProxy.HowToCall[2]",
          "name": "howToCalls",
          "type": "uint8[2]"
        },
        {
          "internalType": "uint256[6]",
          "name": "uints",
          "type": "uint256[6]"
        },
        {
          "internalType": "bytes",
          "name": "data",
          "type": "bytes"
        },
        {
          "internalType": "bytes",
          "name": "counterdata",
          "type": "bytes"
        }
      ],
      "name": "and",
      "outputs": [],
      "stateMutability": "view",
      "type": "function"
    },
    {
      "inputs": [
        {
          "internalType": "bytes",
          "name": "",
          "type": "bytes"
        },
        {
          "internalType": "address[7]",
          "name": "",
          "type": "address[7]"
        },
        {
          "internalType": "enum AuthenticatedProxy.HowToCall[2]",
          "name": "",
          "type": "uint8[2]"
        },
        {
          "internalType": "uint256[6]",
          "name": "",
          "type": "uint256[6]"
        },
        {
          "internalType": "bytes",
          "name": "",
          "type": "bytes"
        },
        {
          "internalType": "bytes",
          "name": "",
          "type": "bytes"
        }
      ],
      "name": "any",
      "outputs": [
        {
          "internalType": "uint256",
          "name": "",
          "type": "uint256"
        }
      ],
      "stateMutability": "pure",
      "type": "function"
    },
    {
      "inputs": [
        {
          "internalType": "bytes",
          "name": "",
          "type": "bytes"
        },
        {
          "internalType": "address[7]",
          "name": "",
          "type": "address[7]"
        },
        {
          "internalType": "enum AuthenticatedProxy.HowToCall[2]",
          "name": "",
          "type": "uint8[2]"
        },
        {
          "internalType": "uint256[6]",
          "name": "uints",
          "type": "uint256[6]"
        },
        {
          "internalType": "bytes",
          "name": "",
          "type": "bytes"
        },
        {
          "internalType": "bytes",
          "name": "",
          "type": "bytes"
        }
      ],
      "name": "anyAddOne",
      "outputs": [
        {
          "internalType": "uint256",
          "name": "",
          "type": "uint256"
        }
      ],
      "stateMutability": "pure",
      "type": "function"
    },
    {
      "inputs": [
        {
          "internalType": "bytes",
          "name": "",
          "type": "bytes"
        },
        {
          "internalType": "address[7]",
          "name": "",
          "type": "address[7]"
        },
        {
          "internalType": "enum AuthenticatedProxy.HowToCall[2]",
          "name": "",
          "type": "uint8[2]"
        },
        {
          "internalType": "uint256[6]",
          "name": "",
          "type": "uint256[6]"
        },
        {
          "internalType": "bytes",
          "name": "",
          "type": "bytes"
        },
        {
          "internalType": "bytes",
          "name": "",
          "type": "bytes"
        }
      ],
      "name": "anyNoFill",
      "outputs": [
        {
          "internalType": "uint256",
          "name": "",
          "type": "uint256"
        }
      ],
      "stateMutability": "pure",
      "type": "function"
    },
    {
      "inputs": [
        {
          "internalType": "bytes",
          "name": "",
          "type": "bytes"
        },
        {
          "internalType": "address[7]",
          "name": "",
          "type": "address[7]"
        },
        {
          "internalType": "enum AuthenticatedProxy.HowToCall",
          "name": "",
          "type": "uint8"
        },
        {
          "internalType": "uint256[6]",
          "name": "",
          "type": "uint256[6]"
        },
        {
          "internalType": "bytes",
          "name": "",
          "type": "bytes"
        }
      ],
      "name": "anySingle",
      "outputs": [],
      "stateMutability": "pure",
      "type": "function"
    },
    {
      "inputs": [],
      "name": "atomicizer",
      "outputs": [
        {
          "internalType": "address",
          "name": "",
          "type": "address"
        }
      ],
      "stateMutability": "view",
      "type": "function"
    },
    {
      "inputs": [
        {
          "internalType": "bytes",
          "name": "extra",
          "type": "bytes"
        },
        {
          "internalType": "address[7]",
          "name": "addresses",
          "type": "address[7]"
        },
        {
          "internalType": "enum AuthenticatedProxy.HowToCall[2]",
          "name": "howToCalls",
          "type": "uint8[2]"
        },
        {
          "internalType": "uint256[6]",
          "name": "uints",
          "type": "uint256[6]"
        },
        {
          "internalType": "bytes",
          "name": "cdata",
          "type": "bytes"
        },
        {
          "internalType": "bytes",
          "name": "",
          "type": "bytes"
        }
      ],
      "name": "dumbSequenceExact",
      "outputs": [
        {
          "internalType": "uint256",
          "name": "",
          "type": "uint256"
        }
      ],
      "stateMutability": "view",
      "type": "function"
    },
    {
      "inputs": [
        {
          "internalType": "bytes",
          "name": "extra",
          "type": "bytes"
        },
        {
          "internalType": "address[7]",
          "name": "addresses",
          "type": "address[7]"
        },
        {
          "internalType": "enum AuthenticatedProxy.HowToCall[2]",
          "name": "howToCalls",
          "type": "uint8[2]"
        },
        {
          "internalType": "uint256[6]",
          "name": "uints",
          "type": "uint256[6]"
        },
        {
          "internalType": "bytes",
          "name": "data",
          "type": "bytes"
        },
        {
          "internalType": "bytes",
          "name": "counterdata",
          "type": "bytes"
        }
      ],
      "name": "or",
      "outputs": [],
      "stateMutability": "view",
      "type": "function"
    },
    {
      "inputs": [
        {
          "internalType": "bytes",
          "name": "extra",
          "type": "bytes"
        },
        {
          "internalType": "address[7]",
          "name": "addresses",
          "type": "address[7]"
        },
        {
          "internalType": "enum AuthenticatedProxy.HowToCall",
          "name": "howToCall",
          "type": "uint8"
        },
        {
          "internalType": "uint256[6]",
          "name": "uints",
          "type": "uint256[6]"
        },
        {
          "internalType": "bytes",
          "name": "cdata",
          "type": "bytes"
        }
      ],
      "name": "sequenceAnyAfter",
      "outputs": [],
      "stateMutability": "view",
      "type": "function"
    },
    {
      "inputs": [
        {
          "internalType": "bytes",
          "name": "extra",
          "type": "bytes"
        },
        {
          "internalType": "address[7]",
          "name": "addresses",
          "type": "address[7]"
        },
        {
          "internalType": "enum AuthenticatedProxy.HowToCall",
          "name": "howToCall",
          "type": "uint8"
        },
        {
          "internalType": "uint256[6]",
          "name": "uints",
          "type": "uint256[6]"
        },
        {
          "internalType": "bytes",
          "name": "cdata",
          "type": "bytes"
        }
      ],
      "name": "sequenceExact",
      "outputs": [],
      "stateMutability": "view",
      "type": "function"
    },
    {
      "inputs": [
        {
          "internalType": "bytes",
          "name": "extra",
          "type": "bytes"
        },
        {
          "internalType": "address[7]",
          "name": "addresses",
          "type": "address[7]"
        },
        {
          "internalType": "enum AuthenticatedProxy.HowToCall[2]",
          "name": "howToCalls",
          "type": "uint8[2]"
        },
        {
          "internalType": "uint256[6]",
          "name": "uints",
          "type": "uint256[6]"
        },
        {
          "internalType": "bytes",
          "name": "data",
          "type": "bytes"
        },
        {
          "internalType": "bytes",
          "name": "counterdata",
          "type": "bytes"
        }
      ],
      "name": "split",
      "outputs": [
        {
          "internalType": "uint256",
          "name": "",
          "type": "uint256"
        }
      ],
      "stateMutability": "view",
      "type": "function"
    },
    {
      "inputs": [
        {
          "internalType": "bytes",
          "name": "extra",
          "type": "bytes"
        },
        {
          "internalType": "address[7]",
          "name": "addresses",
          "type": "address[7]"
        },
        {
          "internalType": "enum AuthenticatedProxy.HowToCall[2]",
          "name": "howToCalls",
          "type": "uint8[2]"
        },
        {
          "internalType": "uint256[6]",
          "name": "uints",
          "type": "uint256[6]"
        },
        {
          "internalType": "bytes",
          "name": "data",
          "type": "bytes"
        },
        {
          "internalType": "bytes",
          "name": "counterdata",
          "type": "bytes"
        }
      ],
      "name": "splitAddOne",
      "outputs": [
        {
          "internalType": "uint256",
          "name": "",
          "type": "uint256"
        }
      ],
      "stateMutability": "view",
      "type": "function"
    }
  ],
  "bytecode": "0x608060405234801561001057600080fd5b50614517806100206000396000f3fe608060405234801561001057600080fd5b50600436106100b45760003560e01c8063ac5cc03f11610071578063ac5cc03f14610e9e578063b67bf13414611080578063dcbcb5d914611262578063ddf98cc21461150f578063e1beb484146117d0578063ed94fc6614611a91576100b4565b8063025b6d34146100b95780630d3b91d41461037a57806320e9a818146103ae5780634e9413f91461066f578063837b54ad1461091c578063a09858da14610bdd575b600080fd5b61036460048036036102408110156100d057600080fd5b81019080803590602001906401000000008111156100ed57600080fd5b8201836020820111156100ff57600080fd5b8035906020019184600183028401116401000000008311171561012157600080fd5b91908080601f016020809104026020016040519081016040528093929190818152602001838380828437600081840152601f19601f8201169050808301925050505050505091929192908060e001906007806020026040519081016040528092919082600760200280828437600081840152601f19601f820116905080830192505050505050919291929080604001906002806020026040519081016040528092919082600260200280828437600081840152601f19601f82011690508083019250505050505091929192908060c001906006806020026040519081016040528092919082600660200280828437600081840152601f19601f82011690508083019250505050505091929192908035906020019064010000000081111561024757600080fd5b82018360208201111561025957600080fd5b8035906020019184600183028401116401000000008311171561027b57600080fd5b91908080601f016020809104026020016040519081016040528093929190818152602001838380828437600081840152601f19601f820116905080830192505050505050509192919290803590602001906401000000008111156102de57600080fd5b8201836020820111156102f057600080fd5b8035906020019184600183028401116401000000008311171561031257600080fd5b91908080601f016020809104026020016040519081016040528093929190818152602001838380828437600081840152601f19601f820116905080830192505050505050509192919290505050611c73565b6040518082815260200191505060405180910390f35b610382611ca1565b604051808273ffffffffffffffffffffffffffffffffffffffff16815260200191505060405180910390f35b61065960048036036102408110156103c557600080fd5b81019080803590602001906401000000008111156103e257600080fd5b8201836020820111156103f457600080fd5b8035906020019184600183028401116401000000008311171561041657600080fd5b91908080601f016020809104026020016040519081016040528093929190818152602001838380828437600081840152601f19601f8201169050808301925050505050505091929192908060e001906007806020026040519081016040528092919082600760200280828437600081840152601f19601f820116905080830192505050505050919291929080604001906002806020026040519081016040528092919082600260200280828437600081840152601f19601f82011690508083019250505050505091929192908060c001906006806020026040519081016040528092919082600660200280828437600081840152601f19601f82011690508083019250505050505091929192908035906020019064010000000081111561053c57600080fd5b82018360208201111561054e57600080fd5b8035906020019184600183028401116401000000008311171561057057600080fd5b91908080601f016020809104026020016040519081016040528093929190818152602001838380828437600081840152601f19601f820116905080830192505050505050509192919290803590602001906401000000008111156105d357600080fd5b8201836020820111156105e557600080fd5b8035906020019184600183028401116401000000008311171561060757600080fd5b91908080601f016020809104026020016040519081016040528093929190818152602001838380828437600081840152601f19601f820116905080830192505050505050509192919290505050611cc5565b6040518082815260200191505060405180910390f35b61091a600480360361024081101561068657600080fd5b81019080803590602001906401000000008111156106a357600080fd5b8201836020820111156106b557600080fd5b803590602001918460018302840111640100000000831117156106d757600080fd5b91908080601f016020809104026020016040519081016040528093929190818152602001838380828437600081840152601f19601f8201169050808301925050505050505091929192908060e001906007806020026040519081016040528092919082600760200280828437600081840152601f19601f820116905080830192505050505050919291929080604001906002806020026040519081016040528092919082600260200280828437600081840152601f19601f82011690508083019250505050505091929192908060c001906006806020026040519081016040528092919082600660200280828437600081840152601f19601f8201169050808301925050505050509192919290803590602001906401000000008111156107fd57600080fd5b82018360208201111561080f57600080fd5b8035906020019184600183028401116401000000008311171561083157600080fd5b91908080601f016020809104026020016040519081016040528093929190818152602001838380828437600081840152601f19601f8201169050808301925050505050505091929192908035906020019064010000000081111561089457600080fd5b8201836020820111156108a657600080fd5b803590602001918460018302840111640100000000831117156108c857600080fd5b91908080601f016020809104026020016040519081016040528093929190818152602001838380828437600081840152601f19601f820116905080830192505050505050509192919290505050612456565b005b610bc7600480360361024081101561093357600080fd5b810190808035906020019064010000000081111561095057600080fd5b82018360208201111561096257600080fd5b8035906020019184600183028401116401000000008311171561098457600080fd5b91908080601f016020809104026020016040519081016040528093929190818152602001838380828437600081840152601f19601f8201169050808301925050505050505091929192908060e001906007806020026040519081016040528092919082600760200280828437600081840152601f19601f820116905080830192505050505050919291929080604001906002806020026040519081016040528092919082600260200280828437600081840152601f19601f82011690508083019250505050505091929192908060c001906006806020026040519081016040528092919082600660200280828437600081840152601f19601f820116905080830192505050505050919291929080359060200190640100000000811115610aaa57600080fd5b820183602082011115610abc57600080fd5b80359060200191846001830284011164010000000083111715610ade57600080fd5b91908080601f016020809104026020016040519081016040528093929190818152602001838380828437600081840152601f19601f82011690508083019250505050505050919291929080359060200190640100000000811115610b4157600080fd5b820183602082011115610b5357600080fd5b80359060200191846001830284011164010000000083111715610b7557600080fd5b91908080601f016020809104026020016040519081016040528093929190818152602001838380828437600081840152601f19601f820116905080830192505050505050509192919290505050612a82565b6040518082815260200191505060405180910390f35b610e886004803603610240811015610bf457600080fd5b8101908080359060200190640100000000811115610c1157600080fd5b820183602082011115610c2357600080fd5b80359060200191846001830284011164010000000083111715610c4557600080fd5b91908080601f016020809104026020016040519081016040528093929190818152602001838380828437600081840152601f19601f8201169050808301925050505050505091929192908060e001906007806020026040519081016040528092919082600760200280828437600081840152601f19601f820116905080830192505050505050919291929080604001906002806020026040519081016040528092919082600260200280828437600081840152601f19601f82011690508083019250505050505091929192908060c001906006806020026040519081016040528092919082600660200280828437600081840152601f19601f820116905080830192505050505050919291929080359060200190640100000000811115610d6b57600080fd5b820183602082011115610d7d57600080fd5b80359060200191846001830284011164010000000083111715610d9f57600080fd5b91908080601f016020809104026020016040519081016040528093929190818152602001838380828437600081840152601f19601f82011690508083019250505050505050919291929080359060200190640100000000811115610e0257600080fd5b820183602082011115610e1457600080fd5b80359060200191846001830284011164010000000083111715610e3657600080fd5b91908080601f016020809104026020016040519081016040528093929190818152602001838380828437600081840152601f19601f820116905080830192505050505050509192919290505050612a92565b6040518082815260200191505060405180910390f35b61107e6004803603610200811015610eb557600080fd5b8101908080359060200190640100000000811115610ed257600080fd5b820183602082011115610ee457600080fd5b80359060200191846001830284011164010000000083111715610f0657600080fd5b91908080601f016020809104026020016040519081016040528093929190818152602001838380828437600081840152601f19601f8201169050808301925050505050505091929192908060e001906007806020026040519081016040528092919082600760200280828437600081840152601f19601f8201169050808301925050505050509192919290803560ff1690602001909291908060c001906006806020026040519081016040528092919082600660200280828437600081840152601f19601f820116905080830192505050505050919291929080359060200190640100000000811115610ff857600080fd5b82018360208201111561100a57600080fd5b8035906020019184600183028401116401000000008311171561102c57600080fd5b91908080601f016020809104026020016040519081016040528093929190818152602001838380828437600081840152601f19601f820116905080830192505050505050509192919290505050612ab5565b005b611260600480360361020081101561109757600080fd5b81019080803590602001906401000000008111156110b457600080fd5b8201836020820111156110c657600080fd5b803590602001918460018302840111640100000000831117156110e857600080fd5b91908080601f016020809104026020016040519081016040528093929190818152602001838380828437600081840152601f19601f8201169050808301925050505050505091929192908060e001906007806020026040519081016040528092919082600760200280828437600081840152601f19601f8201169050808301925050505050509192919290803560ff1690602001909291908060c001906006806020026040519081016040528092919082600660200280828437600081840152601f19601f8201169050808301925050505050509192919290803590602001906401000000008111156111da57600080fd5b8201836020820111156111ec57600080fd5b8035906020019184600183028401116401000000008311171561120e57600080fd5b91908080601f016020809104026020016040519081016040528093929190818152602001838380828437600081840152601f19601f8201169050808301925050505050505091929192905050506130ee565b005b61150d600480360361024081101561127957600080fd5b810190808035906020019064010000000081111561129657600080fd5b8201836020820111156112a857600080fd5b803590602001918460018302840111640100000000831117156112ca57600080fd5b91908080601f016020809104026020016040519081016040528093929190818152602001838380828437600081840152601f19601f8201169050808301925050505050505091929192908060e001906007806020026040519081016040528092919082600760200280828437600081840152601f19601f820116905080830192505050505050919291929080604001906002806020026040519081016040528092919082600260200280828437600081840152601f19601f82011690508083019250505050505091929192908060c001906006806020026040519081016040528092919082600660200280828437600081840152601f19601f8201169050808301925050505050509192919290803590602001906401000000008111156113f057600080fd5b82018360208201111561140257600080fd5b8035906020019184600183028401116401000000008311171561142457600080fd5b91908080601f016020809104026020016040519081016040528093929190818152602001838380828437600081840152601f19601f8201169050808301925050505050505091929192908035906020019064010000000081111561148757600080fd5b82018360208201111561149957600080fd5b803590602001918460018302840111640100000000831117156114bb57600080fd5b91908080601f016020809104026020016040519081016040528093929190818152602001838380828437600081840152601f19601f8201169050808301925050505050505091929192905050506130f5565b005b6117ba600480360361024081101561152657600080fd5b810190808035906020019064010000000081111561154357600080fd5b82018360208201111561155557600080fd5b8035906020019184600183028401116401000000008311171561157757600080fd5b91908080601f016020809104026020016040519081016040528093929190818152602001838380828437600081840152601f19601f8201169050808301925050505050505091929192908060e001906007806020026040519081016040528092919082600760200280828437600081840152601f19601f820116905080830192505050505050919291929080604001906002806020026040519081016040528092919082600260200280828437600081840152601f19601f82011690508083019250505050505091929192908060c001906006806020026040519081016040528092919082600660200280828437600081840152601f19601f82011690508083019250505050505091929192908035906020019064010000000081111561169d57600080fd5b8201836020820111156116af57600080fd5b803590602001918460018302840111640100000000831117156116d157600080fd5b91908080601f016020809104026020016040519081016040528093929190818152602001838380828437600081840152601f19601f8201169050808301925050505050505091929192908035906020019064010000000081111561173457600080fd5b82018360208201111561174657600080fd5b8035906020019184600183028401116401000000008311171561176857600080fd5b91908080601f016020809104026020016040519081016040528093929190818152602001838380828437600081840152601f19601f8201169050808301925050505050505091929192905050506137de565b6040518082815260200191505060405180910390f35b611a7b60048036036102408110156117e757600080fd5b810190808035906020019064010000000081111561180457600080fd5b82018360208201111561181657600080fd5b8035906020019184600183028401116401000000008311171561183857600080fd5b91908080601f016020809104026020016040519081016040528093929190818152602001838380828437600081840152601f19601f8201169050808301925050505050505091929192908060e001906007806020026040519081016040528092919082600760200280828437600081840152601f19601f820116905080830192505050505050919291929080604001906002806020026040519081016040528092919082600260200280828437600081840152601f19601f82011690508083019250505050505091929192908060c001906006806020026040519081016040528092919082600660200280828437600081840152601f19601f82011690508083019250505050505091929192908035906020019064010000000081111561195e57600080fd5b82018360208201111561197057600080fd5b8035906020019184600183028401116401000000008311171561199257600080fd5b91908080601f016020809104026020016040519081016040528093929190818152602001838380828437600081840152601f19601f820116905080830192505050505050509192919290803590602001906401000000008111156119f557600080fd5b820183602082011115611a0757600080fd5b80359060200191846001830284011164010000000083111715611a2957600080fd5b91908080601f016020809104026020016040519081016040528093929190818152602001838380828437600081840152601f19601f820116905080830192505050505050509192919290505050613810565b6040518082815260200191505060405180910390f35b611c716004803603610200811015611aa857600080fd5b8101908080359060200190640100000000811115611ac557600080fd5b820183602082011115611ad757600080fd5b80359060200191846001830284011164010000000083111715611af957600080fd5b91908080601f016020809104026020016040519081016040528093929190818152602001838380828437600081840152601f19601f8201169050808301925050505050505091929192908060e001906007806020026040519081016040528092919082600760200280828437600081840152601f19601f8201169050808301925050505050509192919290803560ff1690602001909291908060c001906006806020026040519081016040528092919082600660200280828437600081840152601f19601f820116905080830192505050505050919291929080359060200190640100000000811115611beb57600080fd5b820183602082011115611bfd57600080fd5b80359060200191846001830284011164010000000083111715611c1f57600080fd5b91908080601f016020809104026020016040519081016040528093929190818152602001838380828437600081840152601f19601f82011690508083019250505050505050919291929050505061381c565b005b6000611c93878787600060028110611c8757fe5b60200201518787612ab5565b600190509695505050505050565b60008054906101000a900473ffffffffffffffffffffffffffffffffffffffff1681565b6000611ccf614465565b611cd7614487565b6060808a80602001905160c0811015611cef57600080fd5b8101908091908260400191908260400180516040519392919084640100000000821115611d1b57600080fd5b83820191506020820185811115611d3157600080fd5b8251866001820283011164010000000082111715611d4e57600080fd5b8083526020830192505050908051906020019080838360005b83811015611d82578082015181840152602081019050611d67565b50505050905090810190601f168015611daf5780820380516001836020036101000a031916815260200191505b5060405260200180516040519392919084640100000000821115611dd257600080fd5b83820191506020820185811115611de857600080fd5b8251866001820283011164010000000082111715611e0557600080fd5b8083526020830192505050908051906020019080838360005b83811015611e39578082015181840152602081019050611e1e565b50505050905090810190601f168015611e665780820380516001836020036101000a031916815260200191505b50604052505050935093509350935061206584600060028110611e8557fe5b602002015184600060028110611e9757fe5b6020020151848d8d600060028110611eab57fe5b60200201518d8d604051602401808060200186600760200280838360005b83811015611ee4578082015181840152602081019050611ec9565b50505050905001856001811115611ef757fe5b815260200184600660200280838360005b83811015611f23578082015181840152602081019050611f08565b5050505090500180602001838103835288818151815260200191508051906020019080838360005b83811015611f66578082015181840152602081019050611f4b565b50505050905090810190601f168015611f935780820380516001836020036101000a031916815260200191505b50838103825284818151815260200191508051906020019080838360005b83811015611fcc578082015181840152602081019050611fb1565b50505050905090810190601f168015611ff95780820380516001836020036101000a031916815260200191505b50975050505050505050604051602081830303815290604052907bffffffffffffffffffffffffffffffffffffffffffffffffffffffff19166020820180517bffffffffffffffffffffffffffffffffffffffffffffffffffffffff8381831617835250505050613e56565b61206e57600080fd5b61243b8460016002811061207e57fe5b60200201518460016002811061209057fe5b6020020151836040518060e001604052808f6003600781106120ae57fe5b602002015173ffffffffffffffffffffffffffffffffffffffff1673ffffffffffffffffffffffffffffffffffffffff1681526020018f6004600781106120f157fe5b602002015173ffffffffffffffffffffffffffffffffffffffff1673ffffffffffffffffffffffffffffffffffffffff1681526020018f60056007811061213457fe5b602002015173ffffffffffffffffffffffffffffffffffffffff1673ffffffffffffffffffffffffffffffffffffffff1681526020018f60006007811061217757fe5b602002015173ffffffffffffffffffffffffffffffffffffffff1673ffffffffffffffffffffffffffffffffffffffff1681526020018f6001600781106121ba57fe5b602002015173ffffffffffffffffffffffffffffffffffffffff1673ffffffffffffffffffffffffffffffffffffffff1681526020018f6002600781106121fd57fe5b602002015173ffffffffffffffffffffffffffffffffffffffff1673ffffffffffffffffffffffffffffffffffffffff1681526020018f60066007811061224057fe5b602002015173ffffffffffffffffffffffffffffffffffffffff1673ffffffffffffffffffffffffffffffffffffffff168152508d60016002811061228157fe5b60200201518d8c604051602401808060200186600760200280838360005b838110156122ba57808201518184015260208101905061229f565b505050509050018560018111156122cd57fe5b815260200184600660200280838360005b838110156122f95780820151818401526020810190506122de565b5050505090500180602001838103835288818151815260200191508051906020019080838360005b8381101561233c578082015181840152602081019050612321565b50505050905090810190601f1680156123695780820380516001836020036101000a031916815260200191505b50838103825284818151815260200191508051906020019080838360005b838110156123a2578082015181840152602081019050612387565b50505050905090810190601f1680156123cf5780820380516001836020036101000a031916815260200191505b50975050505050505050604051602081830303815290604052907bffffffffffffffffffffffffffffffffffffffffffffffffffffffff19166020820180517bffffffffffffffffffffffffffffffffffffffffffffffffffffffff8381831617835250505050613e56565b61244457600080fd5b60019450505050509695505050505050565b60608060608089806020019051608081101561247157600080fd5b810190808051604051939291908464010000000082111561249157600080fd5b838201915060208201858111156124a757600080fd5b82518660208202830111640100000000821117156124c457600080fd5b8083526020830192505050908051906020019060200280838360005b838110156124fb5780820151818401526020810190506124e0565b505050509050016040526020018051604051939291908464010000000082111561252457600080fd5b8382019150602082018581111561253a57600080fd5b825186602082028301116401000000008211171561255757600080fd5b8083526020830192505050908051906020019060200280838360005b8381101561258e578082015181840152602081019050612573565b50505050905001604052602001805160405193929190846401000000008211156125b757600080fd5b838201915060208201858111156125cd57600080fd5b82518660208202830111640100000000821117156125ea57600080fd5b8083526020830192505050908051906020019060200280838360005b83811015612621578082015181840152602081019050612606565b505050509050016040526020018051604051939291908464010000000082111561264a57600080fd5b8382019150602082018581111561266057600080fd5b825186600182028301116401000000008211171561267d57600080fd5b8083526020830192505050908051906020019080838360005b838110156126b1578082015181840152602081019050612696565b50505050905090810190601f1680156126de5780820380516001836020036101000a031916815260200191505b50604052505050935093509350935081518451146126fb57600080fd5b6000805b8551811015612a7457606084828151811061271657fe5b602002602001015167ffffffffffffffff8111801561273457600080fd5b506040519080825280601f01601f1916602001820160405280156127675781602001600182028036833780820191505090505b50905060005b85838151811061277957fe5b60200260200101518110156127ef5784848151811061279457fe5b602001015160f81c60f81b8282815181106127ab57fe5b60200101907effffffffffffffffffffffffffffffffffffffffffffffffffffffffffffff1916908160001a9053508380600101945050808060010191505061276d565b50612a5d8783815181106127ff57fe5b602002602001015187848151811061281357fe5b6020026020010151838f8f8f8f8f604051602401808060200187600760200280838360005b83811015612853578082015181840152602081019050612838565b5050505090500186600260200280838360005b83811015612881578082015181840152602081019050612866565b5050505090500185600660200280838360005b838110156128af578082015181840152602081019050612894565b50505050905001806020018060200184810384528a818151815260200191508051906020019080838360005b838110156128f65780820151818401526020810190506128db565b50505050905090810190601f1680156129235780820380516001836020036101000a031916815260200191505b50848103835286818151815260200191508051906020019080838360005b8381101561295c578082015181840152602081019050612941565b50505050905090810190601f1680156129895780820380516001836020036101000a031916815260200191505b50848103825285818151815260200191508051906020019080838360005b838110156129c25780820151818401526020810190506129a7565b50505050905090810190601f1680156129ef5780820380516001836020036101000a031916815260200191505b509950505050505050505050604051602081830303815290604052907bffffffffffffffffffffffffffffffffffffffffffffffffffffffff19166020820180517bffffffffffffffffffffffffffffffffffffffffffffffffffffffff8381831617835250505050613e56565b612a6657600080fd5b5080806001019150506126ff565b505050505050505050505050565b6000600190509695505050505050565b6000600184600560068110612aa357fe5b60200201510190509695505050505050565b606080606080888060200190516080811015612ad057600080fd5b8101908080516040519392919084640100000000821115612af057600080fd5b83820191506020820185811115612b0657600080fd5b8251866020820283011164010000000082111715612b2357600080fd5b8083526020830192505050908051906020019060200280838360005b83811015612b5a578082015181840152602081019050612b3f565b5050505090500160405260200180516040519392919084640100000000821115612b8357600080fd5b83820191506020820185811115612b9957600080fd5b8251866020820283011164010000000082111715612bb657600080fd5b8083526020830192505050908051906020019060200280838360005b83811015612bed578082015181840152602081019050612bd2565b5050505090500160405260200180516040519392919084640100000000821115612c1657600080fd5b83820191506020820185811115612c2c57600080fd5b8251866020820283011164010000000082111715612c4957600080fd5b8083526020830192505050908051906020019060200280838360005b83811015612c80578082015181840152602081019050612c65565b5050505090500160405260200180516040519392919084640100000000821115612ca957600080fd5b83820191506020820185811115612cbf57600080fd5b8251866001820283011164010000000082111715612cdc57600080fd5b8083526020830192505050908051906020019080838360005b83811015612d10578082015181840152602081019050612cf5565b50505050905090810190601f168015612d3d5780820380516001836020036101000a031916815260200191505b5060405250505093509350935093508251845114612d5a57600080fd5b606080606080612d6b896004613e6d565b8060200190516080811015612d7f57600080fd5b8101908080516040519392919084640100000000821115612d9f57600080fd5b83820191506020820185811115612db557600080fd5b8251866020820283011164010000000082111715612dd257600080fd5b8083526020830192505050908051906020019060200280838360005b83811015612e09578082015181840152602081019050612dee565b5050505090500160405260200180516040519392919084640100000000821115612e3257600080fd5b83820191506020820185811115612e4857600080fd5b8251866020820283011164010000000082111715612e6557600080fd5b8083526020830192505050908051906020019060200280838360005b83811015612e9c578082015181840152602081019050612e81565b5050505090500160405260200180516040519392919084640100000000821115612ec557600080fd5b83820191506020820185811115612edb57600080fd5b8251866020820283011164010000000082111715612ef857600080fd5b8083526020830192505050908051906020019060200280838360005b83811015612f2f578082015181840152602081019050612f14565b5050505090500160405260200180516040519392919084640100000000821115612f5857600080fd5b83820191506020820185811115612f6e57600080fd5b8251866001820283011164010000000082111715612f8b57600080fd5b8083526020830192505050908051906020019080838360005b83811015612fbf578082015181840152602081019050612fa4565b50505050905090810190601f168015612fec5780820380516001836020036101000a031916815260200191505b50604052505050935093509350935060008054906101000a900473ffffffffffffffffffffffffffffffffffffffff1673ffffffffffffffffffffffffffffffffffffffff168c60026007811061303f57fe5b602002015173ffffffffffffffffffffffffffffffffffffffff161461306457600080fd5b60018081111561307057fe5b8b600181111561307c57fe5b1461308657600080fd5b835188511461309457600080fd5b60005b88518110156130cd5760008482815181106130ae57fe5b6020026020010151146130c057600080fd5b8080600101915050613097565b506130df8483838f8e8d8d8d8d613e92565b50505050505050505050505050565b5050505050565b60608060608089806020019051608081101561311057600080fd5b810190808051604051939291908464010000000082111561313057600080fd5b8382019150602082018581111561314657600080fd5b825186602082028301116401000000008211171561316357600080fd5b8083526020830192505050908051906020019060200280838360005b8381101561319a57808201518184015260208101905061317f565b50505050905001604052602001805160405193929190846401000000008211156131c357600080fd5b838201915060208201858111156131d957600080fd5b82518660208202830111640100000000821117156131f657600080fd5b8083526020830192505050908051906020019060200280838360005b8381101561322d578082015181840152602081019050613212565b505050509050016040526020018051604051939291908464010000000082111561325657600080fd5b8382019150602082018581111561326c57600080fd5b825186602082028301116401000000008211171561328957600080fd5b8083526020830192505050908051906020019060200280838360005b838110156132c05780820151818401526020810190506132a5565b50505050905001604052602001805160405193929190846401000000008211156132e957600080fd5b838201915060208201858111156132ff57600080fd5b825186600182028301116401000000008211171561331c57600080fd5b8083526020830192505050908051906020019080838360005b83811015613350578082015181840152602081019050613335565b50505050905090810190601f16801561337d5780820380516001836020036101000a031916815260200191505b50604052505050935093509350935081518451146133e6576040517f08c379a00000000000000000000000000000000000000000000000000000000081526004018080602001828103825260388152602001806144aa6038913960400191505060405180910390fd5b6000805b855181101561376757606084828151811061340157fe5b602002602001015167ffffffffffffffff8111801561341f57600080fd5b506040519080825280601f01601f1916602001820160405280156134525781602001600182028036833780820191505090505b50905060005b85838151811061346457fe5b60200260200101518110156134da5784848151811061347f57fe5b602001015160f81c60f81b82828151811061349657fe5b60200101907effffffffffffffffffffffffffffffffffffffffffffffffffffffffffffff1916908160001a90535083806001019450508080600101915050613458565b506137488783815181106134ea57fe5b60200260200101518784815181106134fe57fe5b6020026020010151838f8f8f8f8f604051602401808060200187600760200280838360005b8381101561353e578082015181840152602081019050613523565b5050505090500186600260200280838360005b8381101561356c578082015181840152602081019050613551565b5050505090500185600660200280838360005b8381101561359a57808201518184015260208101905061357f565b50505050905001806020018060200184810384528a818151815260200191508051906020019080838360005b838110156135e15780820151818401526020810190506135c6565b50505050905090810190601f16801561360e5780820380516001836020036101000a031916815260200191505b50848103835286818151815260200191508051906020019080838360005b8381101561364757808201518184015260208101905061362c565b50505050905090810190601f1680156136745780820380516001836020036101000a031916815260200191505b50848103825285818151815260200191508051906020019080838360005b838110156136ad578082015181840152602081019050613692565b50505050905090810190601f1680156136da5780820380516001836020036101000a031916815260200191505b509950505050505050505050604051602081830303815290604052907bffffffffffffffffffffffffffffffffffffffffffffffffffffffff19166020820180517bffffffffffffffffffffffffffffffffffffffffffffffffffffffff8381831617835250505050613e56565b1561375957505050505050506137d6565b5080806001019150506133ea565b506040517f08c379a00000000000000000000000000000000000000000000000000000000081526004018080602001828103825260198152602001807f4e6f207374617469632063616c6c73207375636365656465640000000000000081525060200191505060405180910390fd5b505050505050565b60006137ee878787878787611cc5565b506001846005600681106137fe57fe5b60200201510190509695505050505050565b60009695505050505050565b60608060608088806020019051608081101561383757600080fd5b810190808051604051939291908464010000000082111561385757600080fd5b8382019150602082018581111561386d57600080fd5b825186602082028301116401000000008211171561388a57600080fd5b8083526020830192505050908051906020019060200280838360005b838110156138c15780820151818401526020810190506138a6565b50505050905001604052602001805160405193929190846401000000008211156138ea57600080fd5b8382019150602082018581111561390057600080fd5b825186602082028301116401000000008211171561391d57600080fd5b8083526020830192505050908051906020019060200280838360005b83811015613954578082015181840152602081019050613939565b505050509050016040526020018051604051939291908464010000000082111561397d57600080fd5b8382019150602082018581111561399357600080fd5b82518660208202830111640100000000821117156139b057600080fd5b8083526020830192505050908051906020019060200280838360005b838110156139e75780820151818401526020810190506139cc565b5050505090500160405260200180516040519392919084640100000000821115613a1057600080fd5b83820191506020820185811115613a2657600080fd5b8251866001820283011164010000000082111715613a4357600080fd5b8083526020830192505050908051906020019080838360005b83811015613a77578082015181840152602081019050613a5c565b50505050905090810190601f168015613aa45780820380516001836020036101000a031916815260200191505b5060405250505093509350935093508251845114613ac157600080fd5b606080606080613ad2896004613e6d565b8060200190516080811015613ae657600080fd5b8101908080516040519392919084640100000000821115613b0657600080fd5b83820191506020820185811115613b1c57600080fd5b8251866020820283011164010000000082111715613b3957600080fd5b8083526020830192505050908051906020019060200280838360005b83811015613b70578082015181840152602081019050613b55565b5050505090500160405260200180516040519392919084640100000000821115613b9957600080fd5b83820191506020820185811115613baf57600080fd5b8251866020820283011164010000000082111715613bcc57600080fd5b8083526020830192505050908051906020019060200280838360005b83811015613c03578082015181840152602081019050613be8565b5050505090500160405260200180516040519392919084640100000000821115613c2c57600080fd5b83820191506020820185811115613c4257600080fd5b8251866020820283011164010000000082111715613c5f57600080fd5b8083526020830192505050908051906020019060200280838360005b83811015613c96578082015181840152602081019050613c7b565b5050505090500160405260200180516040519392919084640100000000821115613cbf57600080fd5b83820191506020820185811115613cd557600080fd5b8251866001820283011164010000000082111715613cf257600080fd5b8083526020830192505050908051906020019080838360005b83811015613d26578082015181840152602081019050613d0b565b50505050905090810190601f168015613d535780820380516001836020036101000a031916815260200191505b50604052505050935093509350935060008054906101000a900473ffffffffffffffffffffffffffffffffffffffff1673ffffffffffffffffffffffffffffffffffffffff168c600260078110613da657fe5b602002015173ffffffffffffffffffffffffffffffffffffffff1614613dcb57600080fd5b600180811115613dd757fe5b8b6001811115613de357fe5b14613ded57600080fd5b835188511115613dfc57600080fd5b60005b8851811015613e35576000848281518110613e1657fe5b602002602001015114613e2857600080fd5b8080600101915050613dff565b50613e478483838f8e8d8d8d8d613e92565b50505050505050505050505050565b600080604051835160208501865afa905092915050565b60606000613e7c8451846142e0565b9050613e8984848361432a565b91505092915050565b60008060005b86518110156142c5576060868281518110613eaf57fe5b602002602001015167ffffffffffffffff81118015613ecd57600080fd5b506040519080825280601f01601f191660200182016040528015613f005781602001600182028036833780820191505090505b50905060005b878381518110613f1257fe5b6020026020010151811015613f8857858581518110613f2d57fe5b602001015160f81c60f81b828281518110613f4457fe5b60200101907effffffffffffffffffffffffffffffffffffffffffffffffffffffffffffff1916908160001a90535084806001019550508080600101915050613f06565b5060608c8381518110613f9757fe5b602002602001015167ffffffffffffffff81118015613fb557600080fd5b506040519080825280601f01601f191660200182016040528015613fe85781602001600182028036833780820191505090505b50905060005b8d8481518110613ffa57fe5b6020026020010151811015614070578c858151811061401557fe5b602001015160f81c60f81b82828151811061402c57fe5b60200101907effffffffffffffffffffffffffffffffffffffffffffffffffffffffffffff1916908160001a90535084806001019550508080600101915050613fee565b508d838151811061407d57fe5b60200260200101518b60026007811061409257fe5b602002019073ffffffffffffffffffffffffffffffffffffffff16908173ffffffffffffffffffffffffffffffffffffffff16815250506142ad8984815181106140d857fe5b60200260200101518885815181106140ec57fe5b6020026020010151848e60008f87604051602401808060200186600760200280838360005b8381101561412c578082015181840152602081019050614111565b5050505090500185600181111561413f57fe5b815260200184600660200280838360005b8381101561416b578082015181840152602081019050614150565b5050505090500180602001838103835288818151815260200191508051906020019080838360005b838110156141ae578082015181840152602081019050614193565b50505050905090810190601f1680156141db5780820380516001836020036101000a031916815260200191505b50838103825284818151815260200191508051906020019080838360005b838110156142145780820151818401526020810190506141f9565b50505050905090810190601f1680156142415780820380516001836020036101000a031916815260200191505b50975050505050505050604051602081830303815290604052907bffffffffffffffffffffffffffffffffffffffffffffffffffffffff19166020820180517bffffffffffffffffffffffffffffffffffffffffffffffffffffffff8381831617835250505050613e56565b6142b657600080fd5b50508080600101915050613e98565b50825182146142d357600080fd5b5050505050505050505050565b600061432283836040518060400160405280601e81526020017f536166654d6174683a207375627472616374696f6e206f766572666c6f7700008152506143a5565b905092915050565b60608082156000811461434857604051915060208201604052614399565b6040519150601f8416801560200281840101858101878315602002848b0101015b818310156143865780518352602083019250602081019050614369565b50868552601f19601f8301166040525050505b50809150509392505050565b6000838311158290614452576040517f08c379a00000000000000000000000000000000000000000000000000000000081526004018080602001828103825283818151815260200191508051906020019080838360005b838110156144175780820151818401526020810190506143fc565b50505050905090810190601f1680156144445780820380516001836020036101000a031916815260200191505b509250505060405180910390fd5b5060008385039050809150509392505050565b6040518060400160405280600290602082028036833780820191505090505090565b604051806040016040528060029060208202803683378082019150509050509056fe446966666572656e74206e756d626572206f66207374617469632063616c6c2061646472657373657320616e642065787472616461746173a26469706673582212204a8e83a077cbaaac8ce77a8504f9369a25795dc7925b6e493094ce40c54efad664736f6c63430007050033",
  "linkReferences": {},
  "deployedLinkReferences": {}
}