{
  "_format": "hh-sol-artifact-1",
  "contractName": "StaticERC1155",
  "sourceName": "contracts/static/StaticERC1155.sol",
  "abi": [
    {
      "inputs": [
        {
          "internalType": "bytes",
          "name": "extra",
          "type": "bytes"
        },
        {
          "internalType": "address[7]",
          "name": "addresses",
          "type": "address[7]"
        },
        {
          "internalType": "enum AuthenticatedProxy.HowToCall[2]",
          "name": "howToCalls",
          "type": "uint8[2]"
        },
        {
          "internalType": "uint256[6]",
          "name": "uints",
          "type": "uint256[6]"
        },
        {
          "internalType": "bytes",
          "name": "data",
          "type": "bytes"
        },
        {
          "internalType": "bytes",
          "name": "counterdata",
          "type": "bytes"
        }
      ],
      "name": "swapOneForOneERC1155",
      "outputs": [
        {
          "internalType": "uint256",
          "name": "",
          "type": "uint256"
        }
      ],
      "stateMutability": "pure",
      "type": "function"
    },
    {
      "inputs": [
        {
          "internalType": "bytes",
          "name": "extra",
          "type": "bytes"
        },
        {
          "internalType": "address[7]",
          "name": "addresses",
          "type": "address[7]"
        },
        {
          "internalType": "enum AuthenticatedProxy.HowToCall[2]",
          "name": "howToCalls",
          "type": "uint8[2]"
        },
        {
          "internalType": "uint256[6]",
          "name": "uints",
          "type": "uint256[6]"
        },
        {
          "internalType": "bytes",
          "name": "data",
          "type": "bytes"
        },
        {
          "internalType": "bytes",
          "name": "counterdata",
          "type": "bytes"
        }
      ],
      "name": "swapOneForOneERC1155Decoding",
      "outputs": [
        {
          "internalType": "uint256",
          "name": "",
          "type": "uint256"
        }
      ],
      "stateMutability": "pure",
      "type": "function"
    },
    {
      "inputs": [
        {
          "internalType": "bytes",
          "name": "extra",
          "type": "bytes"
        },
        {
          "internalType": "address[7]",
          "name": "addresses",
          "type": "address[7]"
        },
        {
          "internalType": "enum AuthenticatedProxy.HowToCall",
          "name": "howToCall",
          "type": "uint8"
        },
        {
          "internalType": "uint256[6]",
          "name": "",
          "type": "uint256[6]"
        },
        {
          "internalType": "bytes",
          "name": "data",
          "type": "bytes"
        }
      ],
      "name": "transferERC1155Exact",
      "outputs": [],
      "stateMutability": "pure",
      "type": "function"
    }
  ],
  "bytecode": "0x608060405234801561001057600080fd5b506116e8806100206000396000f3fe608060405234801561001057600080fd5b50600436106100415760003560e01c80632e0b69db146100465780634563928f146102285780637557ef98146104e9575b600080fd5b610226600480360361020081101561005d57600080fd5b810190808035906020019064010000000081111561007a57600080fd5b82018360208201111561008c57600080fd5b803590602001918460018302840111640100000000831117156100ae57600080fd5b91908080601f016020809104026020016040519081016040528093929190818152602001838380828437600081840152601f19601f8201169050808301925050505050505091929192908060e001906007806020026040519081016040528092919082600760200280828437600081840152601f19601f8201169050808301925050505050509192919290803560ff1690602001909291908060c001906006806020026040519081016040528092919082600660200280828437600081840152601f19601f8201169050808301925050505050509192919290803590602001906401000000008111156101a057600080fd5b8201836020820111156101b257600080fd5b803590602001918460018302840111640100000000831117156101d457600080fd5b91908080601f016020809104026020016040519081016040528093929190818152602001838380828437600081840152601f19601f8201169050808301925050505050505091929192905050506107aa565b005b6104d3600480360361024081101561023f57600080fd5b810190808035906020019064010000000081111561025c57600080fd5b82018360208201111561026e57600080fd5b8035906020019184600183028401116401000000008311171561029057600080fd5b91908080601f016020809104026020016040519081016040528093929190818152602001838380828437600081840152601f19601f8201169050808301925050505050505091929192908060e001906007806020026040519081016040528092919082600760200280828437600081840152601f19601f820116905080830192505050505050919291929080604001906002806020026040519081016040528092919082600260200280828437600081840152601f19601f82011690508083019250505050505091929192908060c001906006806020026040519081016040528092919082600660200280828437600081840152601f19601f8201169050808301925050505050509192919290803590602001906401000000008111156103b657600080fd5b8201836020820111156103c857600080fd5b803590602001918460018302840111640100000000831117156103ea57600080fd5b91908080601f016020809104026020016040519081016040528093929190818152602001838380828437600081840152601f19601f8201169050808301925050505050505091929192908035906020019064010000000081111561044d57600080fd5b82018360208201111561045f57600080fd5b8035906020019184600183028401116401000000008311171561048157600080fd5b91908080601f016020809104026020016040519081016040528093929190818152602001838380828437600081840152601f19601f82011690508083019250505050505050919291929050505061097f565b6040518082815260200191505060405180910390f35b610794600480360361024081101561050057600080fd5b810190808035906020019064010000000081111561051d57600080fd5b82018360208201111561052f57600080fd5b8035906020019184600183028401116401000000008311171561055157600080fd5b91908080601f016020809104026020016040519081016040528093929190818152602001838380828437600081840152601f19601f8201169050808301925050505050505091929192908060e001906007806020026040519081016040528092919082600760200280828437600081840152601f19601f820116905080830192505050505050919291929080604001906002806020026040519081016040528092919082600260200280828437600081840152601f19601f82011690508083019250505050505091929192908060c001906006806020026040519081016040528092919082600660200280828437600081840152601f19601f82011690508083019250505050505091929192908035906020019064010000000081111561067757600080fd5b82018360208201111561068957600080fd5b803590602001918460018302840111640100000000831117156106ab57600080fd5b91908080601f016020809104026020016040519081016040528093929190818152602001838380828437600081840152601f19601f8201169050808301925050505050505091929192908035906020019064010000000081111561070e57600080fd5b82018360208201111561072057600080fd5b8035906020019184600183028401116401000000008311171561074257600080fd5b91908080601f016020809104026020016040519081016040528093929190818152602001838380828437600081840152601f19601f820116905080830192505050505050509192919290505050610f8e565b6040518082815260200191505060405180910390f35b60008060008780602001905160608110156107c457600080fd5b810190808051906020019092919080519060200190929190805190602001909291905050509250925092508273ffffffffffffffffffffffffffffffffffffffff168760026007811061081357fe5b602002015173ffffffffffffffffffffffffffffffffffffffff161461083857600080fd5b6000600181111561084557fe5b86600181111561085157fe5b1461085b57600080fd5b61096c848860016007811061086c57fe5b60200201518960046007811061087e57fe5b60200201518585604051602401808573ffffffffffffffffffffffffffffffffffffffff1681526020018473ffffffffffffffffffffffffffffffffffffffff16815260200183815260200182815260200180602001828103825260008152602001602001955050505050506040516020818303038152906040527ff242432a000000000000000000000000000000000000000000000000000000007bffffffffffffffffffffffffffffffffffffffffffffffffffffffff19166020820180517bffffffffffffffffffffffffffffffffffffffffffffffffffffffff8381831617835250505050611453565b61097557600080fd5b5050505050505050565b6000808460006006811061098f57fe5b60200201511461099e57600080fd5b6109a6611551565b6109ae611573565b6109b6611573565b8980602001905160c08110156109cb57600080fd5b8101908091908260400191908260400191905050925092509250826000600281106109f257fe5b602002015173ffffffffffffffffffffffffffffffffffffffff1689600260078110610a1a57fe5b602002015173ffffffffffffffffffffffffffffffffffffffff1614610a8b576040517f08c379a00000000000000000000000000000000000000000000000000000000081526004018080602001828103825260388152602001806116216038913960400191505060405180910390fd5b600081600060028110610a9a57fe5b602002015111610af5576040517f08c379a000000000000000000000000000000000000000000000000000000000815260040180806020018281038252602d815260200180611659602d913960400191505060405180910390fd5b60006001811115610b0257fe5b88600060028110610b0f57fe5b60200201516001811115610b1f57fe5b14610b75576040517f08c379a00000000000000000000000000000000000000000000000000000000081526004018080602001828103825260238152602001806115d46023913960400191505060405180910390fd5b610ca8868a600160078110610b8657fe5b60200201518b600460078110610b9857fe5b602002015185600060028110610baa57fe5b602002015185600060028110610bbc57fe5b6020020151604051602401808573ffffffffffffffffffffffffffffffffffffffff1681526020018473ffffffffffffffffffffffffffffffffffffffff16815260200183815260200182815260200180602001828103825260008152602001602001955050505050506040516020818303038152906040527ff242432a000000000000000000000000000000000000000000000000000000007bffffffffffffffffffffffffffffffffffffffffffffffffffffffff19166020820180517bffffffffffffffffffffffffffffffffffffffffffffffffffffffff8381831617835250505050611453565b610cb157600080fd5b82600160028110610cbe57fe5b602002015173ffffffffffffffffffffffffffffffffffffffff1689600560078110610ce657fe5b602002015173ffffffffffffffffffffffffffffffffffffffff1614610d57576040517f08c379a000000000000000000000000000000000000000000000000000000000815260040180806020018281038252603e815260200180611596603e913960400191505060405180910390fd5b600081600160028110610d6657fe5b602002015111610dc1576040517f08c379a000000000000000000000000000000000000000000000000000000000815260040180806020018281038252602d815260200180611686602d913960400191505060405180910390fd5b60006001811115610dce57fe5b88600160028110610ddb57fe5b60200201516001811115610deb57fe5b14610e41576040517f08c379a000000000000000000000000000000000000000000000000000000000815260040180806020018281038252602a8152602001806115f7602a913960400191505060405180910390fd5b610f74858a600460078110610e5257fe5b60200201518b600160078110610e6457fe5b602002015185600160028110610e7657fe5b602002015185600160028110610e8857fe5b6020020151604051602401808573ffffffffffffffffffffffffffffffffffffffff1681526020018473ffffffffffffffffffffffffffffffffffffffff16815260200183815260200182815260200180602001828103825260008152602001602001955050505050506040516020818303038152906040527ff242432a000000000000000000000000000000000000000000000000000000007bffffffffffffffffffffffffffffffffffffffffffffffffffffffff19166020820180517bffffffffffffffffffffffffffffffffffffffffffffffffffffffff8381831617835250505050611453565b610f7d57600080fd5b600193505050509695505050505050565b6000606061101f6040516024016040516020818303038152906040527ff242432a000000000000000000000000000000000000000000000000000000007bffffffffffffffffffffffffffffffffffffffffffffffffffffffff19166020820180517bffffffffffffffffffffffffffffffffffffffffffffffffffffffff838183161783525050505060046114c0565b905060008560006006811061103057fe5b60200201511461103f57600080fd5b611047611551565b61104f611573565b611057611573565b8a80602001905160c081101561106c57600080fd5b81019080919082604001919082604001919050509250925092508260006002811061109357fe5b602002015173ffffffffffffffffffffffffffffffffffffffff168a6002600781106110bb57fe5b602002015173ffffffffffffffffffffffffffffffffffffffff161461112c576040517f08c379a00000000000000000000000000000000000000000000000000000000081526004018080602001828103825260388152602001806116216038913960400191505060405180910390fd5b6000600181111561113957fe5b8960006002811061114657fe5b6020020151600181111561115657fe5b146111ac576040517f08c379a00000000000000000000000000000000000000000000000000000000081526004018080602001828103825260238152602001806115d46023913960400191505060405180910390fd5b6111c0846111bb8960046114c0565b611453565b6111c957600080fd5b6112fc878b6001600781106111da57fe5b60200201518c6004600781106111ec57fe5b6020020151856000600281106111fe57fe5b60200201518560006002811061121057fe5b6020020151604051602401808573ffffffffffffffffffffffffffffffffffffffff1681526020018473ffffffffffffffffffffffffffffffffffffffff16815260200183815260200182815260200180602001828103825260008152602001602001955050505050506040516020818303038152906040527ff242432a000000000000000000000000000000000000000000000000000000007bffffffffffffffffffffffffffffffffffffffffffffffffffffffff19166020820180517bffffffffffffffffffffffffffffffffffffffffffffffffffffffff8381831617835250505050611453565b61130557600080fd5b611438868b60046007811061131657fe5b60200201518c60016007811061132857fe5b60200201518560016002811061133a57fe5b60200201518560016002811061134c57fe5b6020020151604051602401808573ffffffffffffffffffffffffffffffffffffffff1681526020018473ffffffffffffffffffffffffffffffffffffffff16815260200183815260200182815260200180602001828103825260008152602001602001955050505050506040516020818303038152906040527ff242432a000000000000000000000000000000000000000000000000000000007bffffffffffffffffffffffffffffffffffffffffffffffffffffffff19166020820180517bffffffffffffffffffffffffffffffffffffffffffffffffffffffff8381831617835250505050611453565b61144157600080fd5b60019450505050509695505050505050565b600080600190508351835181146001811461147157600092506114b4565b600160208701838101602088015b6002848385100114156114af57805183511461149e5760009650600093505b60208301925060208101905061147f565b505050505b50508091505092915050565b60606114ce836000846114d6565b905092915050565b6060808215600081146114f457604051915060208201604052611545565b6040519150601f8416801560200281840101858101878315602002848b0101015b818310156115325780518352602083019250602081019050611515565b50868552601f19601f8301166040525050505b50809150509392505050565b6040518060400160405280600290602082028036833780820191505090505090565b604051806040016040528060029060208202803683378082019150509050509056fe455243313135353a20636f756e74657263616c6c20746172676574206d75737420657175616c2061646472657373206f6620746f6b656e20746f20676574455243313135353a2063616c6c206d7573742062652061206469726563742063616c6c455243313135353a20636f756e74657263616c6c206d7573742062652061206469726563742063616c6c455243313135353a2063616c6c20746172676574206d75737420657175616c2061646472657373206f6620746f6b656e20746f2067697665455243313135353a206769766520616d6f756e74206d757374206265206c6172676572207468616e207a65726f455243313135353a2074616b6520616d6f756e74206d757374206265206c6172676572207468616e207a65726fa2646970667358221220f41f545aa279e1032dccde926c9a79f5bfb30eebb17dea9c4716929a25ee2b5264736f6c63430007050033",
  "linkReferences": {},
  "deployedLinkReferences": {}
}