{
  "_format": "hh-sol-artifact-1",
  "contractName": "StaticMarket",
  "sourceName": "contracts/StaticMarket.sol",
  "abi": [
    {
      "inputs": [],
      "stateMutability": "nonpayable",
      "type": "constructor"
    },
    {
      "inputs": [
        {
          "internalType": "bytes",
          "name": "extra",
          "type": "bytes"
        },
        {
          "internalType": "address[7]",
          "name": "addresses",
          "type": "address[7]"
        },
        {
          "internalType": "enum AuthenticatedProxy.HowToCall[2]",
          "name": "howToCalls",
          "type": "uint8[2]"
        },
        {
          "internalType": "uint256[6]",
          "name": "uints",
          "type": "uint256[6]"
        },
        {
          "internalType": "bytes",
          "name": "data",
          "type": "bytes"
        },
        {
          "internalType": "bytes",
          "name": "counterdata",
          "type": "bytes"
        }
      ],
      "name": "ERC20ForERC721",
      "outputs": [
        {
          "internalType": "uint256",
          "name": "",
          "type": "uint256"
        }
      ],
      "stateMutability": "pure",
      "type": "function"
    },
    {
      "inputs": [
        {
          "internalType": "bytes",
          "name": "extra",
          "type": "bytes"
        },
        {
          "internalType": "address[7]",
          "name": "addresses",
          "type": "address[7]"
        },
        {
          "internalType": "enum AuthenticatedProxy.HowToCall[2]",
          "name": "howToCalls",
          "type": "uint8[2]"
        },
        {
          "internalType": "uint256[6]",
          "name": "uints",
          "type": "uint256[6]"
        },
        {
          "internalType": "bytes",
          "name": "data",
          "type": "bytes"
        },
        {
          "internalType": "bytes",
          "name": "counterdata",
          "type": "bytes"
        }
      ],
      "name": "ERC721ForERC20",
      "outputs": [
        {
          "internalType": "uint256",
          "name": "",
          "type": "uint256"
        }
      ],
      "stateMutability": "pure",
      "type": "function"
    },
    {
      "inputs": [
        {
          "internalType": "bytes",
          "name": "extra",
          "type": "bytes"
        },
        {
          "internalType": "address[7]",
          "name": "addresses",
          "type": "address[7]"
        },
        {
          "internalType": "enum AuthenticatedProxy.HowToCall[2]",
          "name": "howToCalls",
          "type": "uint8[2]"
        },
        {
          "internalType": "uint256[6]",
          "name": "uints",
          "type": "uint256[6]"
        },
        {
          "internalType": "bytes",
          "name": "data",
          "type": "bytes"
        },
        {
          "internalType": "bytes",
          "name": "counterdata",
          "type": "bytes"
        }
      ],
      "name": "anyERC1155ForERC20",
      "outputs": [
        {
          "internalType": "uint256",
          "name": "",
          "type": "uint256"
        }
      ],
      "stateMutability": "pure",
      "type": "function"
    },
    {
      "inputs": [
        {
          "internalType": "bytes",
          "name": "extra",
          "type": "bytes"
        },
        {
          "internalType": "address[7]",
          "name": "addresses",
          "type": "address[7]"
        },
        {
          "internalType": "enum AuthenticatedProxy.HowToCall[2]",
          "name": "howToCalls",
          "type": "uint8[2]"
        },
        {
          "internalType": "uint256[6]",
          "name": "uints",
          "type": "uint256[6]"
        },
        {
          "internalType": "bytes",
          "name": "data",
          "type": "bytes"
        },
        {
          "internalType": "bytes",
          "name": "counterdata",
          "type": "bytes"
        }
      ],
      "name": "anyERC20ForERC1155",
      "outputs": [
        {
          "internalType": "uint256",
          "name": "",
          "type": "uint256"
        }
      ],
      "stateMutability": "pure",
      "type": "function"
    },
    {
      "inputs": [
        {
          "internalType": "bytes",
          "name": "extra",
          "type": "bytes"
        },
        {
          "internalType": "address[7]",
          "name": "addresses",
          "type": "address[7]"
        },
        {
          "internalType": "enum AuthenticatedProxy.HowToCall[2]",
          "name": "howToCalls",
          "type": "uint8[2]"
        },
        {
          "internalType": "uint256[6]",
          "name": "uints",
          "type": "uint256[6]"
        },
        {
          "internalType": "bytes",
          "name": "data",
          "type": "bytes"
        },
        {
          "internalType": "bytes",
          "name": "counterdata",
          "type": "bytes"
        }
      ],
      "name": "anyERC20ForERC20",
      "outputs": [
        {
          "internalType": "uint256",
          "name": "",
          "type": "uint256"
        }
      ],
      "stateMutability": "pure",
      "type": "function"
    },
    {
      "inputs": [],
      "name": "name",
      "outputs": [
        {
          "internalType": "string",
          "name": "",
          "type": "string"
        }
      ],
      "stateMutability": "view",
      "type": "function"
    }
  ],
  "bytecode": "0x608060405234801561001057600080fd5b5061320d806100206000396000f3fe608060405234801561001057600080fd5b50600436106100625760003560e01c806306fdde031461006757806323b04789146100ea5780637a7f30e0146103ab578063a6139b581461066c578063b9845b951461092d578063c3d3626a14610bee575b600080fd5b61006f610eaf565b6040518080602001828103825283818151815260200191508051906020019080838360005b838110156100af578082015181840152602081019050610094565b50505050905090810190601f1680156100dc5780820380516001836020036101000a031916815260200191505b509250505060405180910390f35b610395600480360361024081101561010157600080fd5b810190808035906020019064010000000081111561011e57600080fd5b82018360208201111561013057600080fd5b8035906020019184600183028401116401000000008311171561015257600080fd5b91908080601f016020809104026020016040519081016040528093929190818152602001838380828437600081840152601f19601f8201169050808301925050505050505091929192908060e001906007806020026040519081016040528092919082600760200280828437600081840152601f19601f820116905080830192505050505050919291929080604001906002806020026040519081016040528092919082600260200280828437600081840152601f19601f82011690508083019250505050505091929192908060c001906006806020026040519081016040528092919082600660200280828437600081840152601f19601f82011690508083019250505050505091929192908035906020019064010000000081111561027857600080fd5b82018360208201111561028a57600080fd5b803590602001918460018302840111640100000000831117156102ac57600080fd5b91908080601f016020809104026020016040519081016040528093929190818152602001838380828437600081840152601f19601f8201169050808301925050505050505091929192908035906020019064010000000081111561030f57600080fd5b82018360208201111561032157600080fd5b8035906020019184600183028401116401000000008311171561034357600080fd5b91908080601f016020809104026020016040519081016040528093929190818152602001838380828437600081840152601f19601f820116905080830192505050505050509192919290505050610ee8565b6040518082815260200191505060405180910390f35b61065660048036036102408110156103c257600080fd5b81019080803590602001906401000000008111156103df57600080fd5b8201836020820111156103f157600080fd5b8035906020019184600183028401116401000000008311171561041357600080fd5b91908080601f016020809104026020016040519081016040528093929190818152602001838380828437600081840152601f19601f8201169050808301925050505050505091929192908060e001906007806020026040519081016040528092919082600760200280828437600081840152601f19601f820116905080830192505050505050919291929080604001906002806020026040519081016040528092919082600260200280828437600081840152601f19601f82011690508083019250505050505091929192908060c001906006806020026040519081016040528092919082600660200280828437600081840152601f19601f82011690508083019250505050505091929192908035906020019064010000000081111561053957600080fd5b82018360208201111561054b57600080fd5b8035906020019184600183028401116401000000008311171561056d57600080fd5b91908080601f016020809104026020016040519081016040528093929190818152602001838380828437600081840152601f19601f820116905080830192505050505050509192919290803590602001906401000000008111156105d057600080fd5b8201836020820111156105e257600080fd5b8035906020019184600183028401116401000000008311171561060457600080fd5b91908080601f016020809104026020016040519081016040528093929190818152602001838380828437600081840152601f19601f82011690508083019250505050505050919291929050505061145f565b6040518082815260200191505060405180910390f35b610917600480360361024081101561068357600080fd5b81019080803590602001906401000000008111156106a057600080fd5b8201836020820111156106b257600080fd5b803590602001918460018302840111640100000000831117156106d457600080fd5b91908080601f016020809104026020016040519081016040528093929190818152602001838380828437600081840152601f19601f8201169050808301925050505050505091929192908060e001906007806020026040519081016040528092919082600760200280828437600081840152601f19601f820116905080830192505050505050919291929080604001906002806020026040519081016040528092919082600260200280828437600081840152601f19601f82011690508083019250505050505091929192908060c001906006806020026040519081016040528092919082600660200280828437600081840152601f19601f8201169050808301925050505050509192919290803590602001906401000000008111156107fa57600080fd5b82018360208201111561080c57600080fd5b8035906020019184600183028401116401000000008311171561082e57600080fd5b91908080601f016020809104026020016040519081016040528093929190818152602001838380828437600081840152601f19601f8201169050808301925050505050505091929192908035906020019064010000000081111561089157600080fd5b8201836020820111156108a357600080fd5b803590602001918460018302840111640100000000831117156108c557600080fd5b91908080601f016020809104026020016040519081016040528093929190818152602001838380828437600081840152601f19601f8201169050808301925050505050505091929192905050506119d6565b6040518082815260200191505060405180910390f35b610bd8600480360361024081101561094457600080fd5b810190808035906020019064010000000081111561096157600080fd5b82018360208201111561097357600080fd5b8035906020019184600183028401116401000000008311171561099557600080fd5b91908080601f016020809104026020016040519081016040528093929190818152602001838380828437600081840152601f19601f8201169050808301925050505050505091929192908060e001906007806020026040519081016040528092919082600760200280828437600081840152601f19601f820116905080830192505050505050919291929080604001906002806020026040519081016040528092919082600260200280828437600081840152601f19601f82011690508083019250505050505091929192908060c001906006806020026040519081016040528092919082600660200280828437600081840152601f19601f820116905080830192505050505050919291929080359060200190640100000000811115610abb57600080fd5b820183602082011115610acd57600080fd5b80359060200191846001830284011164010000000083111715610aef57600080fd5b91908080601f016020809104026020016040519081016040528093929190818152602001838380828437600081840152601f19601f82011690508083019250505050505050919291929080359060200190640100000000811115610b5257600080fd5b820183602082011115610b6457600080fd5b80359060200191846001830284011164010000000083111715610b8657600080fd5b91908080601f016020809104026020016040519081016040528093929190818152602001838380828437600081840152601f19601f820116905080830192505050505050509192919290505050611d3c565b6040518082815260200191505060405180910390f35b610e996004803603610240811015610c0557600080fd5b8101908080359060200190640100000000811115610c2257600080fd5b820183602082011115610c3457600080fd5b80359060200191846001830284011164010000000083111715610c5657600080fd5b91908080601f016020809104026020016040519081016040528093929190818152602001838380828437600081840152601f19601f8201169050808301925050505050505091929192908060e001906007806020026040519081016040528092919082600760200280828437600081840152601f19601f820116905080830192505050505050919291929080604001906002806020026040519081016040528092919082600260200280828437600081840152601f19601f82011690508083019250505050505091929192908060c001906006806020026040519081016040528092919082600660200280828437600081840152601f19601f820116905080830192505050505050919291929080359060200190640100000000811115610d7c57600080fd5b820183602082011115610d8e57600080fd5b80359060200191846001830284011164010000000083111715610db057600080fd5b91908080601f016020809104026020016040519081016040528093929190818152602001838380828437600081840152601f19601f82011690508083019250505050505050919291929080359060200190640100000000811115610e1357600080fd5b820183602082011115610e2557600080fd5b80359060200191846001830284011164010000000083111715610e4757600080fd5b91908080601f016020809104026020016040519081016040528093929190818152602001838380828437600081840152601f19601f8201169050808301925050505050505091929192905050506122a1565b6040518082815260200191505060405180910390f35b6040518060400160405280600d81526020017f537461746963204d61726b65740000000000000000000000000000000000000081525081565b60008084600060068110610ef857fe5b602002015114610f53576040517f08c379a00000000000000000000000000000000000000000000000000000000081526004018080602001828103825260278152602001806131326027913960400191505060405180910390fd5b60006001811115610f6057fe5b85600060028110610f6d57fe5b60200201516001811115610f7d57fe5b14610fd3576040517f08c379a000000000000000000000000000000000000000000000000000000000815260040180806020018281038252602e815260200180612d83602e913960400191505060405180910390fd5b610fdb612b40565b610fe3612b62565b8880602001905160a0811015610ff857600080fd5b81019080919082604001919050509150915060008160016003811061101957fe5b602002015111611074576040517f08c379a0000000000000000000000000000000000000000000000000000000008152600401808060200182810382526036815260200180612bec6036913960400191505060405180910390fd5b60008160026003811061108357fe5b6020020151116110de576040517f08c379a0000000000000000000000000000000000000000000000000000000008152600401808060200182810382526038815260200180612e1a6038913960400191505060405180910390fd5b816000600281106110eb57fe5b602002015173ffffffffffffffffffffffffffffffffffffffff168860026007811061111357fe5b602002015173ffffffffffffffffffffffffffffffffffffffff1614611184576040517f08c379a00000000000000000000000000000000000000000000000000000000081526004018080602001828103825260438152602001806130ef6043913960600191505060405180910390fd5b8160016002811061119157fe5b602002015173ffffffffffffffffffffffffffffffffffffffff16886005600781106111b957fe5b602002015173ffffffffffffffffffffffffffffffffffffffff161461122a576040517f08c379a0000000000000000000000000000000000000000000000000000000008152600401808060200182810382526049815260200180612c8b6049913960600191505060405180910390fd5b611232612b84565b604051806040016040528061124688612607565b815260200161125487612647565b815250905060006112878860056006811061126b57fe5b60200201518360006002811061127d57fe5b6020020151612687565b90508760016006811061129657fe5b60200201518111156112f3576040517f08c379a0000000000000000000000000000000000000000000000000000000008152600401808060200182810382526031815260200180612d006031913960400191505060405180910390fd5b61131f8360026003811061130357fe5b60200201518360006002811061131557fe5b602002015161270f565b61134b8460016003811061132f57fe5b60200201518460016002811061134157fe5b602002015161270f565b146113be576040517f08c379a000000000000000000000000000000000000000000000000000000000815260040180806020018281038252601f8152602001807f616e7945524331313535466f7245524332303a2077726f6e6720726174696f0081525060200191505060405180910390fd5b61140f878b6001600781106113cf57fe5b60200201518c6004600781106113e157fe5b6020020151866000600381106113f357fe5b60200201518660006002811061140557fe5b6020020151612795565b61144e868b60046007811061142057fe5b60200201518c60016007811061143257fe5b60200201518560016002811061144457fe5b6020020151612894565b809450505050509695505050505050565b6000808460006006811061146f57fe5b6020020151146114ca576040517f08c379a00000000000000000000000000000000000000000000000000000000081526004018080602001828103825260278152602001806130c86027913960400191505060405180910390fd5b600060018111156114d757fe5b856000600281106114e457fe5b602002015160018111156114f457fe5b1461154a576040517f08c379a000000000000000000000000000000000000000000000000000000000815260040180806020018281038252602e815260200180612ed8602e913960400191505060405180910390fd5b611552612b40565b61155a612b62565b8880602001905160a081101561156f57600080fd5b81019080919082604001919050509150915060008160016003811061159057fe5b6020020151116115eb576040517f08c379a0000000000000000000000000000000000000000000000000000000008152600401808060200182810382526036815260200180612bec6036913960400191505060405180910390fd5b6000816002600381106115fa57fe5b602002015111611655576040517f08c379a0000000000000000000000000000000000000000000000000000000008152600401808060200182810382526038815260200180612e1a6038913960400191505060405180910390fd5b8160006002811061166257fe5b602002015173ffffffffffffffffffffffffffffffffffffffff168860026007811061168a57fe5b602002015173ffffffffffffffffffffffffffffffffffffffff16146116fb576040517f08c379a0000000000000000000000000000000000000000000000000000000008152600401808060200182810382526042815260200180612fe56042913960600191505060405180910390fd5b8160016002811061170857fe5b602002015173ffffffffffffffffffffffffffffffffffffffff168860056007811061173057fe5b602002015173ffffffffffffffffffffffffffffffffffffffff16146117a1576040517f08c379a000000000000000000000000000000000000000000000000000000000815260040180806020018281038252604a81526020018061318e604a913960600191505060405180910390fd5b6117a9612b84565b60405180604001604052806117bd87612607565b81526020016117cb88612647565b815250905060006117fe886005600681106117e257fe5b6020020151836001600281106117f457fe5b6020020151612687565b90508760016006811061180d57fe5b602002015181111561186a576040517f08c379a00000000000000000000000000000000000000000000000000000000081526004018080602001828103825260318152602001806130486031913960400191505060405180910390fd5b6118968360026003811061187a57fe5b60200201518360016002811061188c57fe5b602002015161270f565b6118c2846001600381106118a657fe5b6020020151846000600281106118b857fe5b602002015161270f565b14611935576040517f08c379a000000000000000000000000000000000000000000000000000000000815260040180806020018281038252601f8152602001807f616e794552433230466f72455243313135353a2077726f6e6720726174696f0081525060200191505060405180910390fd5b611986868b60046007811061194657fe5b60200201518c60016007811061195857fe5b60200201518660006003811061196a57fe5b60200201518660006002811061197c57fe5b6020020151612795565b6119c5878b60016007811061199757fe5b60200201518c6004600781106119a957fe5b6020020151856001600281106119bb57fe5b6020020151612894565b809450505050509695505050505050565b600080846000600681106119e657fe5b602002015114611a41576040517f08c379a0000000000000000000000000000000000000000000000000000000008152600401808060200182810382526023815260200180612fc26023913960400191505060405180910390fd5b60006001811115611a4e57fe5b85600060028110611a5b57fe5b60200201516001811115611a6b57fe5b14611ac1576040517f08c379a000000000000000000000000000000000000000000000000000000000815260040180806020018281038252602a815260200180612c22602a913960400191505060405180910390fd5b611ac9612b40565b611ad1612b84565b888060200190516080811015611ae657600080fd5b810190809190826040019190505091509150600081600160028110611b0757fe5b602002015111611b62576040517f08c379a0000000000000000000000000000000000000000000000000000000008152600401808060200182810382526035815260200180612de56035913960400191505060405180910390fd5b81600060028110611b6f57fe5b602002015173ffffffffffffffffffffffffffffffffffffffff1688600260078110611b9757fe5b602002015173ffffffffffffffffffffffffffffffffffffffff1614611c08576040517f08c379a000000000000000000000000000000000000000000000000000000000815260040180806020018281038252603f815260200180612c4c603f913960400191505060405180910390fd5b81600160028110611c1557fe5b602002015173ffffffffffffffffffffffffffffffffffffffff1688600560078110611c3d57fe5b602002015173ffffffffffffffffffffffffffffffffffffffff1614611cae576040517f08c379a0000000000000000000000000000000000000000000000000000000008152600401808060200182810382526045815260200180612f066045913960600191505060405180910390fd5b611ced8489600460078110611cbf57fe5b60200201518a600160078110611cd157fe5b602002015184600060028110611ce357fe5b6020020151612976565b611d2c8589600160078110611cfe57fe5b60200201518a600460078110611d1057fe5b602002015184600160028110611d2257fe5b6020020151612894565b6001925050509695505050505050565b60008084600060068110611d4c57fe5b602002015114611da7576040517f08c379a00000000000000000000000000000000000000000000000000000000081526004018080602001828103825260258152602001806130a36025913960400191505060405180910390fd5b60006001811115611db457fe5b85600060028110611dc157fe5b60200201516001811115611dd157fe5b14611e27576040517f08c379a000000000000000000000000000000000000000000000000000000000815260040180806020018281038252602c815260200180612cd4602c913960400191505060405180910390fd5b611e2f612b40565b611e37612b84565b888060200190516080811015611e4c57600080fd5b810190809190826040019190505091509150600081600060028110611e6d57fe5b602002015111611ec8576040517f08c379a0000000000000000000000000000000000000000000000000000000008152600401808060200182810382526034815260200180612db16034913960400191505060405180910390fd5b600081600160028110611ed757fe5b602002015111611f32576040517f08c379a0000000000000000000000000000000000000000000000000000000008152600401808060200182810382526036815260200180612f8c6036913960400191505060405180910390fd5b81600060028110611f3f57fe5b602002015173ffffffffffffffffffffffffffffffffffffffff1688600260078110611f6757fe5b602002015173ffffffffffffffffffffffffffffffffffffffff1614611fd8576040517f08c379a0000000000000000000000000000000000000000000000000000000008152600401808060200182810382526041815260200180612f4b6041913960600191505060405180910390fd5b81600160028110611fe557fe5b602002015173ffffffffffffffffffffffffffffffffffffffff168860056007811061200d57fe5b602002015173ffffffffffffffffffffffffffffffffffffffff161461207e576040517f08c379a0000000000000000000000000000000000000000000000000000000008152600401808060200182810382526047815260200180612e916047913960600191505060405180910390fd5b612086612b84565b604051806040016040528061209a88612647565b81526020016120a887612647565b815250905060006120db886005600681106120bf57fe5b6020020151836000600281106120d157fe5b6020020151612687565b9050876001600681106120ea57fe5b6020020151811115612147576040517f08c379a000000000000000000000000000000000000000000000000000000000815260040180806020018281038252602f815260200180612d31602f913960400191505060405180910390fd5b6121738360016002811061215757fe5b60200201518360016002811061216957fe5b602002015161270f565b61219f8460006002811061218357fe5b60200201518460006002811061219557fe5b602002015161270f565b14612212576040517f08c379a000000000000000000000000000000000000000000000000000000000815260040180806020018281038252601d8152602001807f616e794552433230466f7245524332303a2077726f6e6720726174696f00000081525060200191505060405180910390fd5b612251878b60016007811061222357fe5b60200201518c60046007811061223557fe5b60200201518560006002811061224757fe5b6020020151612894565b612290868b60046007811061226257fe5b60200201518c60016007811061227457fe5b60200201518560016002811061228657fe5b6020020151612894565b809450505050509695505050505050565b600080846000600681106122b157fe5b60200201511461230c576040517f08c379a0000000000000000000000000000000000000000000000000000000008152600401808060200182810382526023815260200180612d606023913960400191505060405180910390fd5b6000600181111561231957fe5b8560006002811061232657fe5b6020020151600181111561233657fe5b1461238c576040517f08c379a000000000000000000000000000000000000000000000000000000000815260040180806020018281038252602a815260200180613079602a913960400191505060405180910390fd5b612394612b40565b61239c612b84565b8880602001905160808110156123b157600080fd5b8101908091908260400191905050915091506000816001600281106123d257fe5b60200201511161242d576040517f08c379a00000000000000000000000000000000000000000000000000000000081526004018080602001828103825260358152602001806131596035913960400191505060405180910390fd5b8160006002811061243a57fe5b602002015173ffffffffffffffffffffffffffffffffffffffff168860026007811061246257fe5b602002015173ffffffffffffffffffffffffffffffffffffffff16146124d3576040517f08c379a000000000000000000000000000000000000000000000000000000000815260040180806020018281038252603f815260200180612e52603f913960400191505060405180910390fd5b816001600281106124e057fe5b602002015173ffffffffffffffffffffffffffffffffffffffff168860056007811061250857fe5b602002015173ffffffffffffffffffffffffffffffffffffffff1614612579576040517f08c379a0000000000000000000000000000000000000000000000000000000008152600401808060200182810382526045815260200180612ba76045913960600191505060405180910390fd5b6125b8858960016007811061258a57fe5b60200201518a60046007811061259c57fe5b6020020151846000600281106125ae57fe5b6020020151612976565b6125f784896004600781106125c957fe5b60200201518a6001600781106125db57fe5b6020020151846001600281106125ed57fe5b6020020151612894565b6001925050509695505050505050565b6000806126178360646020612a58565b806020019051602081101561262b57600080fd5b8101908080519060200190929190505050905080915050919050565b6000806126578360446020612a58565b806020019051602081101561266b57600080fd5b8101908080519060200190929190505050905080915050919050565b600080828401905083811015612705576040517f08c379a000000000000000000000000000000000000000000000000000000000815260040180806020018281038252601b8152602001807f536166654d6174683a206164646974696f6e206f766572666c6f77000000000081525060200191505060405180910390fd5b8091505092915050565b600080831415612722576000905061278f565b600082840290508284828161273357fe5b041461278a576040517f08c379a00000000000000000000000000000000000000000000000000000000081526004018080602001828103825260218152602001806130276021913960400191505060405180910390fd5b809150505b92915050565b6128848585858585604051602401808573ffffffffffffffffffffffffffffffffffffffff1681526020018473ffffffffffffffffffffffffffffffffffffffff16815260200183815260200182815260200180602001828103825260008152602001602001955050505050506040516020818303038152906040527ff242432a000000000000000000000000000000000000000000000000000000007bffffffffffffffffffffffffffffffffffffffffffffffffffffffff19166020820180517bffffffffffffffffffffffffffffffffffffffffffffffffffffffff8381831617835250505050612ad3565b61288d57600080fd5b5050505050565b61296784848484604051602401808473ffffffffffffffffffffffffffffffffffffffff1681526020018373ffffffffffffffffffffffffffffffffffffffff16815260200182815260200193505050506040516020818303038152906040527f23b872dd000000000000000000000000000000000000000000000000000000007bffffffffffffffffffffffffffffffffffffffffffffffffffffffff19166020820180517bffffffffffffffffffffffffffffffffffffffffffffffffffffffff8381831617835250505050612ad3565b61297057600080fd5b50505050565b612a4984848484604051602401808473ffffffffffffffffffffffffffffffffffffffff1681526020018373ffffffffffffffffffffffffffffffffffffffff16815260200182815260200193505050506040516020818303038152906040527f23b872dd000000000000000000000000000000000000000000000000000000007bffffffffffffffffffffffffffffffffffffffffffffffffffffffff19166020820180517bffffffffffffffffffffffffffffffffffffffffffffffffffffffff8381831617835250505050612ad3565b612a5257600080fd5b50505050565b606080821560008114612a7657604051915060208201604052612ac7565b6040519150601f8416801560200281840101858101878315602002848b0101015b81831015612ab45780518352602083019250602081019050612a97565b50868552601f19601f8301166040525050505b50809150509392505050565b6000806001905083518351811460018114612af15760009250612b34565b600160208701838101602088015b600284838510011415612b2f578051835114612b1e5760009650600093505b602083019250602081019050612aff565b505050505b50508091505092915050565b6040518060400160405280600290602082028036833780820191505090505090565b6040518060600160405280600390602082028036833780820191505090505090565b604051806040016040528060029060208202803683378082019150509050509056fe455243373231466f7245524332303a20636f756e74657263616c6c20746172676574206d75737420657175616c2061646472657373206f6620746f6b656e20746f20676574616e794552433230466f72455243313135353a206e756d657261746f72206d757374206265206c6172676572207468616e207a65726f4552433230466f724552433732313a2063616c6c206d7573742062652061206469726563742063616c6c4552433230466f724552433732313a2063616c6c20746172676574206d75737420657175616c2061646472657373206f6620746f6b656e20746f2067697665616e7945524331313535466f7245524332303a20636f756e74657263616c6c20746172676574206d75737420657175616c2061646472657373206f6620746f6b656e20746f20676574616e794552433230466f7245524332303a2063616c6c206d7573742062652061206469726563742063616c6c616e7945524331313535466f7245524332303a206e65772066696c6c2065786365656473206d6178696d756d2066696c6c616e794552433230466f7245524332303a206e65772066696c6c2065786365656473206d6178696d756d2066696c6c455243373231466f7245524332303a205a65726f2076616c7565207265717569726564616e7945524331313535466f7245524332303a2063616c6c206d7573742062652061206469726563742063616c6c616e794552433230466f7245524332303a206e756d657261746f72206d757374206265206c6172676572207468616e207a65726f4552433230466f724552433732313a20455243373231207072696365206d757374206265206c6172676572207468616e207a65726f616e794552433230466f72455243313135353a2064656e6f6d696e61746f72206d757374206265206c6172676572207468616e207a65726f455243373231466f7245524332303a2063616c6c20746172676574206d75737420657175616c2061646472657373206f6620746f6b656e20746f2067697665616e794552433230466f7245524332303a20636f756e74657263616c6c20746172676574206d75737420657175616c2061646472657373206f6620746f6b656e20746f20676574616e794552433230466f72455243313135353a2063616c6c206d7573742062652061206469726563742063616c6c4552433230466f724552433732313a20636f756e74657263616c6c20746172676574206d75737420657175616c2061646472657373206f6620746f6b656e20746f20676574616e794552433230466f7245524332303a2063616c6c20746172676574206d75737420657175616c2061646472657373206f6620746f6b656e20746f2067697665616e794552433230466f7245524332303a2064656e6f6d696e61746f72206d757374206265206c6172676572207468616e207a65726f4552433230466f724552433732313a205a65726f2076616c7565207265717569726564616e794552433230466f72455243313135353a2063616c6c20746172676574206d75737420657175616c2061646472657373206f6620746f6b656e20746f20676574536166654d6174683a206d756c7469706c69636174696f6e206f766572666c6f77616e794552433230466f72455243313135353a206e65772066696c6c2065786365656473206d6178696d756d2066696c6c455243373231466f7245524332303a2063616c6c206d7573742062652061206469726563742063616c6c616e794552433230466f7245524332303a205a65726f2076616c7565207265717569726564616e794552433230466f72455243313135353a205a65726f2076616c7565207265717569726564616e7945524331313535466f7245524332303a2063616c6c20746172676574206d75737420657175616c2061646472657373206f6620746f6b656e20746f2067697665616e7945524331313535466f7245524332303a205a65726f2076616c7565207265717569726564455243373231466f7245524332303a20455243373231207072696365206d757374206265206c6172676572207468616e207a65726f616e794552433230466f72455243313135353a20636f756e74657263616c6c20746172676574206d75737420657175616c2061646472657373206f6620746f6b656e20746f2067697665a2646970667358221220ddcfd26bd3c9f74ac4d3756a6b9f3991d5cb167687a6e1be2f177d45a3920a5664736f6c63430007050033",
  "linkReferences": {},
  "deployedLinkReferences": {}
}