{
  "_format": "hh-sol-artifact-1",
  "contractName": "StaticERC20",
  "sourceName": "contracts/static/StaticERC20.sol",
  "abi": [
    {
      "inputs": [
        {
          "internalType": "bytes",
          "name": "extra",
          "type": "bytes"
        },
        {
          "internalType": "address[7]",
          "name": "addresses",
          "type": "address[7]"
        },
        {
          "internalType": "enum AuthenticatedProxy.HowToCall[2]",
          "name": "howToCalls",
          "type": "uint8[2]"
        },
        {
          "internalType": "uint256[6]",
          "name": "uints",
          "type": "uint256[6]"
        },
        {
          "internalType": "bytes",
          "name": "data",
          "type": "bytes"
        },
        {
          "internalType": "bytes",
          "name": "counterdata",
          "type": "bytes"
        }
      ],
      "name": "swapExact",
      "outputs": [
        {
          "internalType": "uint256",
          "name": "",
          "type": "uint256"
        }
      ],
      "stateMutability": "pure",
      "type": "function"
    },
    {
      "inputs": [
        {
          "internalType": "bytes",
          "name": "extra",
          "type": "bytes"
        },
        {
          "internalType": "address[7]",
          "name": "addresses",
          "type": "address[7]"
        },
        {
          "internalType": "enum AuthenticatedProxy.HowToCall[2]",
          "name": "howToCalls",
          "type": "uint8[2]"
        },
        {
          "internalType": "uint256[6]",
          "name": "uints",
          "type": "uint256[6]"
        },
        {
          "internalType": "bytes",
          "name": "data",
          "type": "bytes"
        },
        {
          "internalType": "bytes",
          "name": "counterdata",
          "type": "bytes"
        }
      ],
      "name": "swapForever",
      "outputs": [
        {
          "internalType": "uint256",
          "name": "",
          "type": "uint256"
        }
      ],
      "stateMutability": "pure",
      "type": "function"
    },
    {
      "inputs": [
        {
          "internalType": "bytes",
          "name": "extra",
          "type": "bytes"
        },
        {
          "internalType": "address[7]",
          "name": "addresses",
          "type": "address[7]"
        },
        {
          "internalType": "enum AuthenticatedProxy.HowToCall",
          "name": "howToCall",
          "type": "uint8"
        },
        {
          "internalType": "uint256[6]",
          "name": "",
          "type": "uint256[6]"
        },
        {
          "internalType": "bytes",
          "name": "data",
          "type": "bytes"
        }
      ],
      "name": "transferERC20Exact",
      "outputs": [],
      "stateMutability": "pure",
      "type": "function"
    }
  ],
  "bytecode": "0x608060405234801561001057600080fd5b5061149a806100206000396000f3fe608060405234801561001057600080fd5b50600436106100415760003560e01c806323f62d9c14610046578063265a87e714610307578063f6280c86146104e9575b600080fd5b6102f1600480360361024081101561005d57600080fd5b810190808035906020019064010000000081111561007a57600080fd5b82018360208201111561008c57600080fd5b803590602001918460018302840111640100000000831117156100ae57600080fd5b91908080601f016020809104026020016040519081016040528093929190818152602001838380828437600081840152601f19601f8201169050808301925050505050505091929192908060e001906007806020026040519081016040528092919082600760200280828437600081840152601f19601f820116905080830192505050505050919291929080604001906002806020026040519081016040528092919082600260200280828437600081840152601f19601f82011690508083019250505050505091929192908060c001906006806020026040519081016040528092919082600660200280828437600081840152601f19601f8201169050808301925050505050509192919290803590602001906401000000008111156101d457600080fd5b8201836020820111156101e657600080fd5b8035906020019184600183028401116401000000008311171561020857600080fd5b91908080601f016020809104026020016040519081016040528093929190818152602001838380828437600081840152601f19601f8201169050808301925050505050505091929192908035906020019064010000000081111561026b57600080fd5b82018360208201111561027d57600080fd5b8035906020019184600183028401116401000000008311171561029f57600080fd5b91908080601f016020809104026020016040519081016040528093929190818152602001838380828437600081840152601f19601f8201169050808301925050505050505091929192905050506107aa565b6040518082815260200191505060405180910390f35b6104e7600480360361020081101561031e57600080fd5b810190808035906020019064010000000081111561033b57600080fd5b82018360208201111561034d57600080fd5b8035906020019184600183028401116401000000008311171561036f57600080fd5b91908080601f016020809104026020016040519081016040528093929190818152602001838380828437600081840152601f19601f8201169050808301925050505050505091929192908060e001906007806020026040519081016040528092919082600760200280828437600081840152601f19601f8201169050808301925050505050509192919290803560ff1690602001909291908060c001906006806020026040519081016040528092919082600660200280828437600081840152601f19601f82011690508083019250505050505091929192908035906020019064010000000081111561046157600080fd5b82018360208201111561047357600080fd5b8035906020019184600183028401116401000000008311171561049557600080fd5b91908080601f016020809104026020016040519081016040528093929190818152602001838380828437600081840152601f19601f820116905080830192505050505050509192919290505050610b4a565b005b610794600480360361024081101561050057600080fd5b810190808035906020019064010000000081111561051d57600080fd5b82018360208201111561052f57600080fd5b8035906020019184600183028401116401000000008311171561055157600080fd5b91908080601f016020809104026020016040519081016040528093929190818152602001838380828437600081840152601f19601f8201169050808301925050505050505091929192908060e001906007806020026040519081016040528092919082600760200280828437600081840152601f19601f820116905080830192505050505050919291929080604001906002806020026040519081016040528092919082600260200280828437600081840152601f19601f82011690508083019250505050505091929192908060c001906006806020026040519081016040528092919082600660200280828437600081840152601f19601f82011690508083019250505050505091929192908035906020019064010000000081111561067757600080fd5b82018360208201111561068957600080fd5b803590602001918460018302840111640100000000831117156106ab57600080fd5b91908080601f016020809104026020016040519081016040528093929190818152602001838380828437600081840152601f19601f8201169050808301925050505050505091929192908035906020019064010000000081111561070e57600080fd5b82018360208201111561072057600080fd5b8035906020019184600183028401116401000000008311171561074257600080fd5b91908080601f016020809104026020016040519081016040528093929190818152602001838380828437600081840152601f19601f820116905080830192505050505050509192919290505050610cf4565b6040518082815260200191505060405180910390f35b600080846000600681106107ba57fe5b6020020151146107c957600080fd5b6107d16113ff565b6107d9611421565b8880602001905160808110156107ee57600080fd5b8101908091908260400191905050915091508160006002811061080d57fe5b602002015173ffffffffffffffffffffffffffffffffffffffff168860026007811061083557fe5b602002015173ffffffffffffffffffffffffffffffffffffffff161461085a57600080fd5b6000600181111561086757fe5b8760006002811061087457fe5b6020020151600181111561088457fe5b1461088e57600080fd5b610994858960016007811061089f57fe5b60200201518a6004600781106108b157fe5b6020020151846000600281106108c357fe5b6020020151604051602401808473ffffffffffffffffffffffffffffffffffffffff1681526020018373ffffffffffffffffffffffffffffffffffffffff16815260200182815260200193505050506040516020818303038152906040527f23b872dd000000000000000000000000000000000000000000000000000000007bffffffffffffffffffffffffffffffffffffffffffffffffffffffff19166020820180517bffffffffffffffffffffffffffffffffffffffffffffffffffffffff838183161783525050505061114c565b61099d57600080fd5b816001600281106109aa57fe5b602002015173ffffffffffffffffffffffffffffffffffffffff16886005600781106109d257fe5b602002015173ffffffffffffffffffffffffffffffffffffffff16146109f757600080fd5b60006001811115610a0457fe5b87600160028110610a1157fe5b60200201516001811115610a2157fe5b14610a2b57600080fd5b610b318489600460078110610a3c57fe5b60200201518a600160078110610a4e57fe5b602002015184600160028110610a6057fe5b6020020151604051602401808473ffffffffffffffffffffffffffffffffffffffff1681526020018373ffffffffffffffffffffffffffffffffffffffff16815260200182815260200193505050506040516020818303038152906040527f23b872dd000000000000000000000000000000000000000000000000000000007bffffffffffffffffffffffffffffffffffffffffffffffffffffffff19166020820180517bffffffffffffffffffffffffffffffffffffffffffffffffffffffff838183161783525050505061114c565b610b3a57600080fd5b6001925050509695505050505050565b600080868060200190516040811015610b6257600080fd5b810190808051906020019092919080519060200190929190505050915091508173ffffffffffffffffffffffffffffffffffffffff1686600260078110610ba557fe5b602002015173ffffffffffffffffffffffffffffffffffffffff1614610bca57600080fd5b60006001811115610bd757fe5b856001811115610be357fe5b14610bed57600080fd5b610ce28387600160078110610bfe57fe5b602002015188600460078110610c1057fe5b602002015184604051602401808473ffffffffffffffffffffffffffffffffffffffff1681526020018373ffffffffffffffffffffffffffffffffffffffff16815260200182815260200193505050506040516020818303038152906040527f23b872dd000000000000000000000000000000000000000000000000000000007bffffffffffffffffffffffffffffffffffffffffffffffffffffffff19166020820180517bffffffffffffffffffffffffffffffffffffffffffffffffffffffff838183161783525050505061114c565b610ceb57600080fd5b50505050505050565b60006060610d856040516024016040516020818303038152906040527f23b872dd000000000000000000000000000000000000000000000000000000007bffffffffffffffffffffffffffffffffffffffffffffffffffffffff19166020820180517bffffffffffffffffffffffffffffffffffffffffffffffffffffffff838183161783525050505060046111b9565b9050600085600060068110610d9657fe5b602002015114610da557600080fd5b610dad6113ff565b610db5611421565b898060200190516080811015610dca57600080fd5b81019080919082604001919050509150915081600060028110610de957fe5b602002015173ffffffffffffffffffffffffffffffffffffffff1689600260078110610e1157fe5b602002015173ffffffffffffffffffffffffffffffffffffffff1614610e3657600080fd5b60006001811115610e4357fe5b88600060028110610e5057fe5b60200201516001811115610e6057fe5b14610e6a57600080fd5b610e7e83610e798860046111b9565b61114c565b610e8757600080fd5b6000806000610e978960046111cf565b8060200190516060811015610eab57600080fd5b810190808051906020019092919080519060200190929190805190602001909291905050509250925092508b600160078110610ee357fe5b602002015173ffffffffffffffffffffffffffffffffffffffff168373ffffffffffffffffffffffffffffffffffffffff1614610f1f57600080fd5b8b600460078110610f2c57fe5b602002015173ffffffffffffffffffffffffffffffffffffffff168273ffffffffffffffffffffffffffffffffffffffff1614610f6857600080fd5b84600160028110610f7557fe5b602002015173ffffffffffffffffffffffffffffffffffffffff168c600560078110610f9d57fe5b602002015173ffffffffffffffffffffffffffffffffffffffff1614610fc257600080fd5b60006001811115610fcf57fe5b8b600160028110610fdc57fe5b60200201516001811115610fec57fe5b14610ff657600080fd5b61100a866110058a60046111b9565b61114c565b61101357600080fd5b60008060006110238b60046111cf565b806020019051606081101561103757600080fd5b810190808051906020019092919080519060200190929190805190602001909291905050509250925092508e60046007811061106f57fe5b602002015173ffffffffffffffffffffffffffffffffffffffff168373ffffffffffffffffffffffffffffffffffffffff16146110ab57600080fd5b8e6001600781106110b857fe5b602002015173ffffffffffffffffffffffffffffffffffffffff168273ffffffffffffffffffffffffffffffffffffffff16146110f457600080fd5b61110f848860006002811061110557fe5b60200201516111f4565b61112a828960016002811061112057fe5b60200201516111f4565b101561113557600080fd5b600199505050505050505050509695505050505050565b600080600190508351835181146001811461116a57600092506111ad565b600160208701838101602088015b6002848385100114156111a85780518351146111975760009650600093505b602083019250602081019050611178565b505050505b50508091505092915050565b60606111c78360008461127a565b905092915050565b606060006111de8451846112f5565b90506111eb84848361127a565b91505092915050565b6000808314156112075760009050611274565b600082840290508284828161121857fe5b041461126f576040517f08c379a00000000000000000000000000000000000000000000000000000000081526004018080602001828103825260218152602001806114446021913960400191505060405180910390fd5b809150505b92915050565b606080821560008114611298576040519150602082016040526112e9565b6040519150601f8416801560200281840101858101878315602002848b0101015b818310156112d657805183526020830192506020810190506112b9565b50868552601f19601f8301166040525050505b50809150509392505050565b600061133783836040518060400160405280601e81526020017f536166654d6174683a207375627472616374696f6e206f766572666c6f77000081525061133f565b905092915050565b60008383111582906113ec576040517f08c379a00000000000000000000000000000000000000000000000000000000081526004018080602001828103825283818151815260200191508051906020019080838360005b838110156113b1578082015181840152602081019050611396565b50505050905090810190601f1680156113de5780820380516001836020036101000a031916815260200191505b509250505060405180910390fd5b5060008385039050809150509392505050565b6040518060400160405280600290602082028036833780820191505090505090565b604051806040016040528060029060208202803683378082019150509050509056fe536166654d6174683a206d756c7469706c69636174696f6e206f766572666c6f77a2646970667358221220c8a13ca131a6bcbad1268f391341d99ea030e7ab1c68a7b38d51f463a31e377164736f6c63430007050033",
  "linkReferences": {},
  "deployedLinkReferences": {}
}