{
  "_format": "hh-sol-artifact-1",
  "contractName": "ExchangeCore",
  "sourceName": "contracts/exchange/ExchangeCore.sol",
  "abi": [
    {
      "anonymous": false,
      "inputs": [
        {
          "indexed": true,
          "internalType": "bytes32",
          "name": "hash",
          "type": "bytes32"
        },
        {
          "indexed": false,
          "internalType": "address",
          "name": "registry",
          "type": "address"
        },
        {
          "indexed": true,
          "internalType": "address",
          "name": "maker",
          "type": "address"
        },
        {
          "indexed": false,
          "internalType": "address",
          "name": "staticTarget",
          "type": "address"
        },
        {
          "indexed": false,
          "internalType": "bytes4",
          "name": "staticSelector",
          "type": "bytes4"
        },
        {
          "indexed": false,
          "internalType": "bytes",
          "name": "staticExtradata",
          "type": "bytes"
        },
        {
          "indexed": false,
          "internalType": "uint256",
          "name": "maximumFill",
          "type": "uint256"
        },
        {
          "indexed": false,
          "internalType": "uint256",
          "name": "listingTime",
          "type": "uint256"
        },
        {
          "indexed": false,
          "internalType": "uint256",
          "name": "expirationTime",
          "type": "uint256"
        },
        {
          "indexed": false,
          "internalType": "uint256",
          "name": "salt",
          "type": "uint256"
        },
        {
          "indexed": false,
          "internalType": "bool",
          "name": "orderbookInclusionDesired",
          "type": "bool"
        }
      ],
      "name": "OrderApproved",
      "type": "event"
    },
    {
      "anonymous": false,
      "inputs": [
        {
          "indexed": true,
          "internalType": "bytes32",
          "name": "hash",
          "type": "bytes32"
        },
        {
          "indexed": true,
          "internalType": "address",
          "name": "maker",
          "type": "address"
        },
        {
          "indexed": false,
          "internalType": "uint256",
          "name": "newFill",
          "type": "uint256"
        }
      ],
      "name": "OrderFillChanged",
      "type": "event"
    },
    {
      "anonymous": false,
      "inputs": [
        {
          "indexed": false,
          "internalType": "bytes32",
          "name": "firstHash",
          "type": "bytes32"
        },
        {
          "indexed": false,
          "internalType": "bytes32",
          "name": "secondHash",
          "type": "bytes32"
        },
        {
          "indexed": true,
          "internalType": "address",
          "name": "firstMaker",
          "type": "address"
        },
        {
          "indexed": true,
          "internalType": "address",
          "name": "secondMaker",
          "type": "address"
        },
        {
          "indexed": false,
          "internalType": "uint256",
          "name": "newFirstFill",
          "type": "uint256"
        },
        {
          "indexed": false,
          "internalType": "uint256",
          "name": "newSecondFill",
          "type": "uint256"
        },
        {
          "indexed": true,
          "internalType": "bytes32",
          "name": "metadata",
          "type": "bytes32"
        }
      ],
      "name": "OrdersMatched",
      "type": "event"
    },
    {
      "inputs": [
        {
          "internalType": "address",
          "name": "",
          "type": "address"
        },
        {
          "internalType": "bytes32",
          "name": "",
          "type": "bytes32"
        }
      ],
      "name": "approved",
      "outputs": [
        {
          "internalType": "bool",
          "name": "",
          "type": "bool"
        }
      ],
      "stateMutability": "view",
      "type": "function"
    },
    {
      "inputs": [
        {
          "internalType": "address",
          "name": "",
          "type": "address"
        },
        {
          "internalType": "bytes32",
          "name": "",
          "type": "bytes32"
        }
      ],
      "name": "fills",
      "outputs": [
        {
          "internalType": "uint256",
          "name": "",
          "type": "uint256"
        }
      ],
      "stateMutability": "view",
      "type": "function"
    },
    {
      "inputs": [
        {
          "internalType": "address",
          "name": "",
          "type": "address"
        }
      ],
      "name": "registries",
      "outputs": [
        {
          "internalType": "bool",
          "name": "",
          "type": "bool"
        }
      ],
      "stateMutability": "view",
      "type": "function"
    }
  ],
  "bytecode": "0x608060405260008060006101000a81548160ff0219169083151502179055506040518060400160405280601a81526020017f19457468657265756d205369676e6564204d6573736167653a0a0000000000008152506002908051906020019061006992919061007c565b5034801561007657600080fd5b50610127565b828054600181600116156101000203166002900490600052602060002090601f0160209004810192826100b257600085556100f9565b82601f106100cb57805160ff19168380011785556100f9565b828001600101855582156100f9579182015b828111156100f85782518255916020019190600101906100dd565b5b509050610106919061010a565b5090565b5b8082111561012357600081600090555060010161010b565b5090565b610210806101366000396000f3fe608060405234801561001057600080fd5b50600436106100415760003560e01c8063caed80df14610046578063fac7fc38146100a0578063ffc2ab1414610104575b600080fd5b6100886004803603602081101561005c57600080fd5b81019080803573ffffffffffffffffffffffffffffffffffffffff169060200190929190505050610166565b60405180821515815260200191505060405180910390f35b6100ec600480360360408110156100b657600080fd5b81019080803573ffffffffffffffffffffffffffffffffffffffff16906020019092919080359060200190929190505050610186565b60405180821515815260200191505060405180910390f35b6101506004803603604081101561011a57600080fd5b81019080803573ffffffffffffffffffffffffffffffffffffffff169060200190929190803590602001909291905050506101b5565b6040518082815260200191505060405180910390f35b60036020528060005260406000206000915054906101000a900460ff1681565b60056020528160005260406000206020528060005260406000206000915091509054906101000a900460ff1681565b600460205281600052604060002060205280600052604060002060009150915050548156fea26469706673582212201d54a552d58080bda5222fc107f76b38f0ab679b1ab78d641afe37e7833e4d8464736f6c63430007050033",
  "linkReferences": {},
  "deployedLinkReferences": {}
}