{
  "_format": "hh-sol-artifact-1",
  "contractName": "Exchange",
  "sourceName": "contracts/exchange/Exchange.sol",
  "abi": [
    {
      "anonymous": false,
      "inputs": [
        {
          "indexed": true,
          "internalType": "bytes32",
          "name": "hash",
          "type": "bytes32"
        },
        {
          "indexed": false,
          "internalType": "address",
          "name": "registry",
          "type": "address"
        },
        {
          "indexed": true,
          "internalType": "address",
          "name": "maker",
          "type": "address"
        },
        {
          "indexed": false,
          "internalType": "address",
          "name": "staticTarget",
          "type": "address"
        },
        {
          "indexed": false,
          "internalType": "bytes4",
          "name": "staticSelector",
          "type": "bytes4"
        },
        {
          "indexed": false,
          "internalType": "bytes",
          "name": "staticExtradata",
          "type": "bytes"
        },
        {
          "indexed": false,
          "internalType": "uint256",
          "name": "maximumFill",
          "type": "uint256"
        },
        {
          "indexed": false,
          "internalType": "uint256",
          "name": "listingTime",
          "type": "uint256"
        },
        {
          "indexed": false,
          "internalType": "uint256",
          "name": "expirationTime",
          "type": "uint256"
        },
        {
          "indexed": false,
          "internalType": "uint256",
          "name": "salt",
          "type": "uint256"
        },
        {
          "indexed": false,
          "internalType": "bool",
          "name": "orderbookInclusionDesired",
          "type": "bool"
        }
      ],
      "name": "OrderApproved",
      "type": "event"
    },
    {
      "anonymous": false,
      "inputs": [
        {
          "indexed": true,
          "internalType": "bytes32",
          "name": "hash",
          "type": "bytes32"
        },
        {
          "indexed": true,
          "internalType": "address",
          "name": "maker",
          "type": "address"
        },
        {
          "indexed": false,
          "internalType": "uint256",
          "name": "newFill",
          "type": "uint256"
        }
      ],
      "name": "OrderFillChanged",
      "type": "event"
    },
    {
      "anonymous": false,
      "inputs": [
        {
          "indexed": false,
          "internalType": "bytes32",
          "name": "firstHash",
          "type": "bytes32"
        },
        {
          "indexed": false,
          "internalType": "bytes32",
          "name": "secondHash",
          "type": "bytes32"
        },
        {
          "indexed": true,
          "internalType": "address",
          "name": "firstMaker",
          "type": "address"
        },
        {
          "indexed": true,
          "internalType": "address",
          "name": "secondMaker",
          "type": "address"
        },
        {
          "indexed": false,
          "internalType": "uint256",
          "name": "newFirstFill",
          "type": "uint256"
        },
        {
          "indexed": false,
          "internalType": "uint256",
          "name": "newSecondFill",
          "type": "uint256"
        },
        {
          "indexed": true,
          "internalType": "bytes32",
          "name": "metadata",
          "type": "bytes32"
        }
      ],
      "name": "OrdersMatched",
      "type": "event"
    },
    {
      "inputs": [
        {
          "internalType": "bytes32",
          "name": "hash",
          "type": "bytes32"
        }
      ],
      "name": "approveOrderHash_",
      "outputs": [],
      "stateMutability": "nonpayable",
      "type": "function"
    },
    {
      "inputs": [
        {
          "internalType": "address",
          "name": "registry",
          "type": "address"
        },
        {
          "internalType": "address",
          "name": "maker",
          "type": "address"
        },
        {
          "internalType": "address",
          "name": "staticTarget",
          "type": "address"
        },
        {
          "internalType": "bytes4",
          "name": "staticSelector",
          "type": "bytes4"
        },
        {
          "internalType": "bytes",
          "name": "staticExtradata",
          "type": "bytes"
        },
        {
          "internalType": "uint256",
          "name": "maximumFill",
          "type": "uint256"
        },
        {
          "internalType": "uint256",
          "name": "listingTime",
          "type": "uint256"
        },
        {
          "internalType": "uint256",
          "name": "expirationTime",
          "type": "uint256"
        },
        {
          "internalType": "uint256",
          "name": "salt",
          "type": "uint256"
        },
        {
          "internalType": "bool",
          "name": "orderbookInclusionDesired",
          "type": "bool"
        }
      ],
      "name": "approveOrder_",
      "outputs": [],
      "stateMutability": "nonpayable",
      "type": "function"
    },
    {
      "inputs": [
        {
          "internalType": "address",
          "name": "",
          "type": "address"
        },
        {
          "internalType": "bytes32",
          "name": "",
          "type": "bytes32"
        }
      ],
      "name": "approved",
      "outputs": [
        {
          "internalType": "bool",
          "name": "",
          "type": "bool"
        }
      ],
      "stateMutability": "view",
      "type": "function"
    },
    {
      "inputs": [
        {
          "internalType": "uint256[16]",
          "name": "uints",
          "type": "uint256[16]"
        },
        {
          "internalType": "bytes4[2]",
          "name": "staticSelectors",
          "type": "bytes4[2]"
        },
        {
          "internalType": "bytes",
          "name": "firstExtradata",
          "type": "bytes"
        },
        {
          "internalType": "bytes",
          "name": "firstCalldata",
          "type": "bytes"
        },
        {
          "internalType": "bytes",
          "name": "secondExtradata",
          "type": "bytes"
        },
        {
          "internalType": "bytes",
          "name": "secondCalldata",
          "type": "bytes"
        },
        {
          "internalType": "uint8[2]",
          "name": "howToCalls",
          "type": "uint8[2]"
        },
        {
          "internalType": "bytes32",
          "name": "metadata",
          "type": "bytes32"
        },
        {
          "internalType": "bytes",
          "name": "signatures",
          "type": "bytes"
        }
      ],
      "name": "atomicMatch_",
      "outputs": [],
      "stateMutability": "payable",
      "type": "function"
    },
    {
      "inputs": [
        {
          "internalType": "address",
          "name": "",
          "type": "address"
        },
        {
          "internalType": "bytes32",
          "name": "",
          "type": "bytes32"
        }
      ],
      "name": "fills",
      "outputs": [
        {
          "internalType": "uint256",
          "name": "",
          "type": "uint256"
        }
      ],
      "stateMutability": "view",
      "type": "function"
    },
    {
      "inputs": [
        {
          "internalType": "address",
          "name": "registry",
          "type": "address"
        },
        {
          "internalType": "address",
          "name": "maker",
          "type": "address"
        },
        {
          "internalType": "address",
          "name": "staticTarget",
          "type": "address"
        },
        {
          "internalType": "bytes4",
          "name": "staticSelector",
          "type": "bytes4"
        },
        {
          "internalType": "bytes",
          "name": "staticExtradata",
          "type": "bytes"
        },
        {
          "internalType": "uint256",
          "name": "maximumFill",
          "type": "uint256"
        },
        {
          "internalType": "uint256",
          "name": "listingTime",
          "type": "uint256"
        },
        {
          "internalType": "uint256",
          "name": "expirationTime",
          "type": "uint256"
        },
        {
          "internalType": "uint256",
          "name": "salt",
          "type": "uint256"
        }
      ],
      "name": "hashOrder_",
      "outputs": [
        {
          "internalType": "bytes32",
          "name": "hash",
          "type": "bytes32"
        }
      ],
      "stateMutability": "pure",
      "type": "function"
    },
    {
      "inputs": [
        {
          "internalType": "bytes32",
          "name": "orderHash",
          "type": "bytes32"
        }
      ],
      "name": "hashToSign_",
      "outputs": [
        {
          "internalType": "bytes32",
          "name": "hash",
          "type": "bytes32"
        }
      ],
      "stateMutability": "view",
      "type": "function"
    },
    {
      "inputs": [
        {
          "internalType": "address",
          "name": "",
          "type": "address"
        }
      ],
      "name": "registries",
      "outputs": [
        {
          "internalType": "bool",
          "name": "",
          "type": "bool"
        }
      ],
      "stateMutability": "view",
      "type": "function"
    },
    {
      "inputs": [
        {
          "internalType": "bytes32",
          "name": "hash",
          "type": "bytes32"
        },
        {
          "internalType": "uint256",
          "name": "fill",
          "type": "uint256"
        }
      ],
      "name": "setOrderFill_",
      "outputs": [],
      "stateMutability": "nonpayable",
      "type": "function"
    },
    {
      "inputs": [
        {
          "internalType": "bytes32",
          "name": "hash",
          "type": "bytes32"
        },
        {
          "internalType": "address",
          "name": "maker",
          "type": "address"
        },
        {
          "internalType": "bytes",
          "name": "signature",
          "type": "bytes"
        }
      ],
      "name": "validateOrderAuthorization_",
      "outputs": [
        {
          "internalType": "bool",
          "name": "",
          "type": "bool"
        }
      ],
      "stateMutability": "view",
      "type": "function"
    },
    {
      "inputs": [
        {
          "internalType": "address",
          "name": "registry",
          "type": "address"
        },
        {
          "internalType": "address",
          "name": "maker",
          "type": "address"
        },
        {
          "internalType": "address",
          "name": "staticTarget",
          "type": "address"
        },
        {
          "internalType": "bytes4",
          "name": "staticSelector",
          "type": "bytes4"
        },
        {
          "internalType": "bytes",
          "name": "staticExtradata",
          "type": "bytes"
        },
        {
          "internalType": "uint256",
          "name": "maximumFill",
          "type": "uint256"
        },
        {
          "internalType": "uint256",
          "name": "listingTime",
          "type": "uint256"
        },
        {
          "internalType": "uint256",
          "name": "expirationTime",
          "type": "uint256"
        },
        {
          "internalType": "uint256",
          "name": "salt",
          "type": "uint256"
        }
      ],
      "name": "validateOrderParameters_",
      "outputs": [
        {
          "internalType": "bool",
          "name": "",
          "type": "bool"
        }
      ],
      "stateMutability": "view",
      "type": "function"
    }
  ],
  "bytecode": "0x608060405260008060006101000a81548160ff0219169083151502179055506040518060400160405280601a81526020017f19457468657265756d205369676e6564204d6573736167653a0a000000000000815250600290805190602001906200006b92919062000080565b503480156200007957600080fd5b5062000136565b828054600181600116156101000203166002900490600052602060002090601f016020900481019282620000b8576000855562000104565b82601f10620000d357805160ff191683800117855562000104565b8280016001018555821562000104579182015b8281111562000103578251825591602001919060010190620000e6565b5b50905062000113919062000117565b5090565b5b808211156200013257600081600090555060010162000118565b5090565b61344280620001466000396000f3fe60806040526004361061009c5760003560e01c8063caed80df11610064578063caed80df14610711578063d57ad58814610778578063f861975b146107c7578063f9b0bc2014610913578063fac7fc3814610a61578063ffc2ab1414610ad25761009c565b80630812226e146100a157806313b219e2146100dc57806314127f13146101a2578063995e8195146101e75780639a5168db1461032b575b600080fd5b3480156100ad57600080fd5b506100da600480360360208110156100c457600080fd5b8101908080359060200190929190505050610b41565b005b3480156100e857600080fd5b5061018a600480360360608110156100ff57600080fd5b8101908080359060200190929190803573ffffffffffffffffffffffffffffffffffffffff1690602001909291908035906020019064010000000081111561014657600080fd5b82018360208201111561015857600080fd5b8035906020019184600183028401116401000000008311171561017a57600080fd5b9091929391929390505050610b4d565b60405180821515815260200191505060405180910390f35b3480156101ae57600080fd5b506101e5600480360360408110156101c557600080fd5b810190808035906020019092919080359060200190929190505050610ba8565b005b3480156101f357600080fd5b50610329600480360361014081101561020b57600080fd5b81019080803573ffffffffffffffffffffffffffffffffffffffff169060200190929190803573ffffffffffffffffffffffffffffffffffffffff169060200190929190803573ffffffffffffffffffffffffffffffffffffffff16906020019092919080357bffffffffffffffffffffffffffffffffffffffffffffffffffffffff19169060200190929190803590602001906401000000008111156102b157600080fd5b8201836020820111156102c357600080fd5b803590602001918460018302840111640100000000831117156102e557600080fd5b909192939192939080359060200190929190803590602001909291908035906020019092919080359060200190929190803515159060200190929190505050610bb6565b005b61070f600480360361034081101561034257600080fd5b810190808061020001906010806020026040519081016040528092919082601060200280828437600081840152601f19601f820116905080830192505050505050919291929080604001906002806020026040519081016040528092919082600260200280828437600081840152601f19601f8201169050808301925050505050509192919290803590602001906401000000008111156103e257600080fd5b8201836020820111156103f457600080fd5b8035906020019184600183028401116401000000008311171561041657600080fd5b91908080601f016020809104026020016040519081016040528093929190818152602001838380828437600081840152601f19601f8201169050808301925050505050505091929192908035906020019064010000000081111561047957600080fd5b82018360208201111561048b57600080fd5b803590602001918460018302840111640100000000831117156104ad57600080fd5b91908080601f016020809104026020016040519081016040528093929190818152602001838380828437600081840152601f19601f8201169050808301925050505050505091929192908035906020019064010000000081111561051057600080fd5b82018360208201111561052257600080fd5b8035906020019184600183028401116401000000008311171561054457600080fd5b91908080601f016020809104026020016040519081016040528093929190818152602001838380828437600081840152601f19601f820116905080830192505050505050509192919290803590602001906401000000008111156105a757600080fd5b8201836020820111156105b957600080fd5b803590602001918460018302840111640100000000831117156105db57600080fd5b91908080601f016020809104026020016040519081016040528093929190818152602001838380828437600081840152601f19601f82011690508083019250505050505050919291929080604001906002806020026040519081016040528092919082600260200280828437600081840152601f19601f8201169050808301925050505050509192919290803590602001909291908035906020019064010000000081111561068957600080fd5b82018360208201111561069b57600080fd5b803590602001918460018302840111640100000000831117156106bd57600080fd5b91908080601f016020809104026020016040519081016040528093929190818152602001838380828437600081840152601f19601f820116905080830192505050505050509192919290505050610cb1565b005b34801561071d57600080fd5b506107606004803603602081101561073457600080fd5b81019080803573ffffffffffffffffffffffffffffffffffffffff169060200190929190505050610ff0565b60405180821515815260200191505060405180910390f35b34801561078457600080fd5b506107b16004803603602081101561079b57600080fd5b8101908080359060200190929190505050611010565b6040518082815260200191505060405180910390f35b3480156107d357600080fd5b506108fd60048036036101208110156107eb57600080fd5b81019080803573ffffffffffffffffffffffffffffffffffffffff169060200190929190803573ffffffffffffffffffffffffffffffffffffffff169060200190929190803573ffffffffffffffffffffffffffffffffffffffff16906020019092919080357bffffffffffffffffffffffffffffffffffffffffffffffffffffffff191690602001909291908035906020019064010000000081111561089157600080fd5b8201836020820111156108a357600080fd5b803590602001918460018302840111640100000000831117156108c557600080fd5b909192939192939080359060200190929190803590602001909291908035906020019092919080359060200190929190505050611022565b6040518082815260200191505060405180910390f35b34801561091f57600080fd5b50610a49600480360361012081101561093757600080fd5b81019080803573ffffffffffffffffffffffffffffffffffffffff169060200190929190803573ffffffffffffffffffffffffffffffffffffffff169060200190929190803573ffffffffffffffffffffffffffffffffffffffff16906020019092919080357bffffffffffffffffffffffffffffffffffffffffffffffffffffffff19169060200190929190803590602001906401000000008111156109dd57600080fd5b8201836020820111156109ef57600080fd5b80359060200191846001830284011164010000000083111715610a1157600080fd5b909192939192939080359060200190929190803590602001909291908035906020019092919080359060200190929190505050611121565b60405180821515815260200191505060405180910390f35b348015610a6d57600080fd5b50610aba60048036036040811015610a8457600080fd5b81019080803573ffffffffffffffffffffffffffffffffffffffff16906020019092919080359060200190929190505050611235565b60405180821515815260200191505060405180910390f35b348015610ade57600080fd5b50610b2b60048036036040811015610af557600080fd5b81019080803573ffffffffffffffffffffffffffffffffffffffff16906020019092919080359060200190929190505050611264565b6040518082815260200191505060405180910390f35b610b4a81611289565b50565b6000610b9e858585858080601f016020809104026020016040519081016040528093929190818152602001838380828437600081840152601f19601f820116905080830192505050505050506113c6565b9050949350505050565b610bb282826118f2565b5050565b610ca46040518061012001604052808d73ffffffffffffffffffffffffffffffffffffffff1681526020018c73ffffffffffffffffffffffffffffffffffffffff1681526020018b73ffffffffffffffffffffffffffffffffffffffff1681526020018a7bffffffffffffffffffffffffffffffffffffffffffffffffffffffff1916815260200189898080601f016020809104026020016040519081016040528093929190818152602001838380828437600081840152601f19601f8201169050808301925050505050505081526020018781526020018681526020018581526020018481525082611a43565b5050505050505050505050565b610fe56040518061012001604052808b600060108110610ccd57fe5b602002015173ffffffffffffffffffffffffffffffffffffffff1681526020018b600160108110610cfa57fe5b602002015173ffffffffffffffffffffffffffffffffffffffff1681526020018b600260108110610d2757fe5b602002015173ffffffffffffffffffffffffffffffffffffffff1681526020018a600060028110610d5457fe5b60200201517bffffffffffffffffffffffffffffffffffffffffffffffffffffffff191681526020018981526020018b600360108110610d9057fe5b602002015181526020018b600460108110610da757fe5b602002015181526020018b600560108110610dbe57fe5b602002015181526020018b600660108110610dd557fe5b602002015181525060405180606001604052808c600760108110610df557fe5b602002015173ffffffffffffffffffffffffffffffffffffffff16815260200186600060028110610e2257fe5b602002015160ff166001811115610e3557fe5b6001811115610e4057fe5b8152602001898152506040518061012001604052808d600860108110610e6257fe5b602002015173ffffffffffffffffffffffffffffffffffffffff1681526020018d600960108110610e8f57fe5b602002015173ffffffffffffffffffffffffffffffffffffffff1681526020018d600a60108110610ebc57fe5b602002015173ffffffffffffffffffffffffffffffffffffffff1681526020018c600160028110610ee957fe5b60200201517bffffffffffffffffffffffffffffffffffffffffffffffffffffffff191681526020018981526020018d600b60108110610f2557fe5b602002015181526020018d600c60108110610f3c57fe5b602002015181526020018d600d60108110610f5357fe5b602002015181526020018d600e60108110610f6a57fe5b602002015181525060405180606001604052808e600f60108110610f8a57fe5b602002015173ffffffffffffffffffffffffffffffffffffffff16815260200188600160028110610fb757fe5b602002015160ff166001811115610fca57fe5b6001811115610fd557fe5b8152602001898152508587611c4c565b505050505050505050565b60036020528060005260406000206000915054906101000a900460ff1681565b600061101b8261253b565b9050919050565b60006111116040518061012001604052808d73ffffffffffffffffffffffffffffffffffffffff1681526020018c73ffffffffffffffffffffffffffffffffffffffff1681526020018b73ffffffffffffffffffffffffffffffffffffffff1681526020018a7bffffffffffffffffffffffffffffffffffffffffffffffffffffffff1916815260200189898080601f016020809104026020016040519081016040528093929190818152602001838380828437600081840152601f19601f8201169050808301925050505050505081526020018781526020018681526020018581526020018481525061259d565b90509a9950505050505050505050565b600061112b6131a7565b6040518061012001604052808d73ffffffffffffffffffffffffffffffffffffffff1681526020018c73ffffffffffffffffffffffffffffffffffffffff1681526020018b73ffffffffffffffffffffffffffffffffffffffff1681526020018a7bffffffffffffffffffffffffffffffffffffffffffffffffffffffff1916815260200189898080601f016020809104026020016040519081016040528093929190818152602001838380828437600081840152601f19601f8201169050808301925050505050505081526020018781526020018681526020018581526020018481525090506112248161121f8361259d565b6126c2565b9150509a9950505050505050505050565b60056020528160005260406000206020528060005260406000206000915091509054906101000a900460ff1681565b6004602052816000526040600020602052806000526040600020600091509150505481565b600560003373ffffffffffffffffffffffffffffffffffffffff1673ffffffffffffffffffffffffffffffffffffffff168152602001908152602001600020600082815260200190815260200160002060009054906101000a900460ff161561135a576040517f08c379a000000000000000000000000000000000000000000000000000000000815260040180806020018281038252601f8152602001807f4f726465722068617320616c7265616479206265656e20617070726f7665640081525060200191505060405180910390fd5b6001600560003373ffffffffffffffffffffffffffffffffffffffff1673ffffffffffffffffffffffffffffffffffffffff168152602001908152602001600020600083815260200190815260200160002060006101000a81548160ff02191690831515021790555050565b600080600460008573ffffffffffffffffffffffffffffffffffffffff1673ffffffffffffffffffffffffffffffffffffffff168152602001908152602001600020600086815260200190815260200160002054111561142957600190506118eb565b3373ffffffffffffffffffffffffffffffffffffffff168373ffffffffffffffffffffffffffffffffffffffff16141561146657600190506118eb565b600560008473ffffffffffffffffffffffffffffffffffffffff1673ffffffffffffffffffffffffffffffffffffffff168152602001908152602001600020600085815260200190815260200160002060009054906101000a900460ff16156114d257600190506118eb565b60006114dd8561253b565b905060006114ea85612786565b9050801561164d57631626ba7e60e01b7bffffffffffffffffffffffffffffffffffffffffffffffffffffffff19168573ffffffffffffffffffffffffffffffffffffffff16631626ba7e84876040518363ffffffff1660e01b81526004018083815260200180602001828103825283818151815260200191508051906020019080838360005b8381101561158c578082015181840152602081019050611571565b50505050905090810190601f1680156115b95780820380516001836020036101000a031916815260200191505b50935050505060206040518083038186803b1580156115d757600080fd5b505afa1580156115eb573d6000803e3d6000fd5b505050506040513d602081101561160157600080fd5b81019080805190602001909291905050507bffffffffffffffffffffffffffffffffffffffffffffffffffffffff19161415611642576001925050506118eb565b6000925050506118eb565b600080600086806020019051606081101561166757600080fd5b81019080805190602001909291908051906020019092919080519060200190929190505050925092509250604187511180156116e25750600360f81b876001895103815181106116b357fe5b602001015160f81c60f81b7effffffffffffffffffffffffffffffffffffffffffffffffffffffffffffff1916145b1561183b578773ffffffffffffffffffffffffffffffffffffffff16600160028760405160200180838054600181600116156101000203166002900480156117615780601f1061173f576101008083540402835291820191611761565b820191906000526020600020905b81548152906001019060200180831161174d575b5050807f3332000000000000000000000000000000000000000000000000000000000000815250600201828152602001925050506040516020818303038152906040528051906020012085858560405160008152602001604052604051808581526020018460ff1681526020018381526020018281526020019450505050506020604051602081039080840390855afa158015611802573d6000803e3d6000fd5b5050506020604051035173ffffffffffffffffffffffffffffffffffffffff161415611836576001955050505050506118eb565b6118e1565b8773ffffffffffffffffffffffffffffffffffffffff1660018685858560405160008152602001604052604051808581526020018460ff1681526020018381526020018281526020019450505050506020604051602081039080840390855afa1580156118ac573d6000803e3d6000fd5b5050506020604051035173ffffffffffffffffffffffffffffffffffffffff1614156118e0576001955050505050506118eb565b5b6000955050505050505b9392505050565b80600460003373ffffffffffffffffffffffffffffffffffffffff1673ffffffffffffffffffffffffffffffffffffffff168152602001908152602001600020600084815260200190815260200160002054141561199b576040517f08c379a00000000000000000000000000000000000000000000000000000000081526004018080602001828103825260288152602001806133366028913960400191505060405180910390fd5b80600460003373ffffffffffffffffffffffffffffffffffffffff1673ffffffffffffffffffffffffffffffffffffffff1681526020019081526020016000206000848152602001908152602001600020819055503373ffffffffffffffffffffffffffffffffffffffff16827f826cd05b52546b47590739469989cacd5336e0a9e6f9392de2dee5cfb19c8aab836040518082815260200191505060405180910390a35050565b3373ffffffffffffffffffffffffffffffffffffffff16826020015173ffffffffffffffffffffffffffffffffffffffff1614611acb576040517f08c379a000000000000000000000000000000000000000000000000000000000815260040180806020018281038252604a8152602001806132bb604a913960600191505060405180910390fd5b6000611ad68361259d565b9050611ae181611289565b826020015173ffffffffffffffffffffffffffffffffffffffff16817fbace5d282ba59cba3de1ac539b0ed46ae5a3d8ad434a3ac9f07ce45d1661481885600001518660400151876060015188608001518960a001518a60c001518b60e001518c61010001518c604051808a73ffffffffffffffffffffffffffffffffffffffff1681526020018973ffffffffffffffffffffffffffffffffffffffff168152602001887bffffffffffffffffffffffffffffffffffffffffffffffffffffffff19168152602001806020018781526020018681526020018581526020018481526020018315158152602001828103825288818151815260200191508051906020019080838360005b83811015611c05578082015181840152602081019050611bea565b50505050905090810190601f168015611c325780820380516001836020036101000a031916815260200191505b509a505050505050505050505060405180910390a3505050565b60008054906101000a900460ff1615611ccd576040517f08c379a00000000000000000000000000000000000000000000000000000000081526004018080602001828103825260138152602001807f5265656e7472616e63792064657465637465640000000000000000000000000081525060200191505060405180910390fd5b60016000806101000a81548160ff0219169083151502179055506000611cf28761259d565b9050611cfe87826126c2565b611d53576040517f08c379a00000000000000000000000000000000000000000000000000000000081526004018080602001828103825260228152602001806133a76022913960400191505060405180910390fd5b6000611d5e8661259d565b9050611d6a86826126c2565b611dbf576040517f08c379a00000000000000000000000000000000000000000000000000000000081526004018080602001828103825260238152602001806133ea6023913960400191505060405180910390fd5b80821415611e18576040517f08c379a000000000000000000000000000000000000000000000000000000000815260040180806020018281038252602281526020018061335e6022913960400191505060405180910390fd5b606080858060200190516040811015611e3057600080fd5b8101908080516040519392919084640100000000821115611e5057600080fd5b83820191506020820185811115611e6657600080fd5b8251866001820283011164010000000082111715611e8357600080fd5b8083526020830192505050908051906020019080838360005b83811015611eb7578082015181840152602081019050611e9c565b50505050905090810190601f168015611ee45780820380516001836020036101000a031916815260200191505b5060405260200180516040519392919084640100000000821115611f0757600080fd5b83820191506020820185811115611f1d57600080fd5b8251866001820283011164010000000082111715611f3a57600080fd5b8083526020830192505050908051906020019080838360005b83811015611f6e578082015181840152602081019050611f53565b50505050905090810190601f168015611f9b5780820380516001836020036101000a031916815260200191505b5060405250505091509150611fb5848b60200151846113c6565b612027576040517f08c379a00000000000000000000000000000000000000000000000000000000081526004018080602001828103825260208152602001807f4669727374206f72646572206661696c656420617574686f72697a6174696f6e81525060200191505060405180910390fd5b612036838960200151836113c6565b61208b576040517f08c379a00000000000000000000000000000000000000000000000000000000081526004018080602001828103825260218152602001806133c96021913960400191505060405180910390fd5b50506000341115612178576000886020015173ffffffffffffffffffffffffffffffffffffffff163460405180600001905060006040518083038185875af1925050503d80600081146120fa576040519150601f19603f3d011682016040523d82523d6000602084013e6120ff565b606091505b5050905080612176576040517f08c379a000000000000000000000000000000000000000000000000000000000815260040180806020018281038252601d8152602001807f6e617469766520746f6b656e207472616e73666572206661696c65642e00000081525060200191505060405180910390fd5b505b61218b8860000151896020015189612799565b6121fd576040517f08c379a00000000000000000000000000000000000000000000000000000000081526004018080602001828103825260118152602001807f46697273742063616c6c206661696c656400000000000000000000000000000081525060200191505060405180910390fd5b6122108660000151876020015187612799565b612282576040517f08c379a00000000000000000000000000000000000000000000000000000000081526004018080602001828103825260128152602001807f5365636f6e642063616c6c206661696c6564000000000000000000000000000081525060200191505060405180910390fd5b6000600460008a6020015173ffffffffffffffffffffffffffffffffffffffff1673ffffffffffffffffffffffffffffffffffffffff1681526020019081526020016000206000848152602001908152602001600020549050600060046000896020015173ffffffffffffffffffffffffffffffffffffffff1673ffffffffffffffffffffffffffffffffffffffff168152602001908152602001600020600084815260200190815260200160002054905060006123458b8b8b8b333489612c64565b905060006123598a8a8e8e33600089612c64565b90503373ffffffffffffffffffffffffffffffffffffffff168c6020015173ffffffffffffffffffffffffffffffffffffffff16146123f4578382146123f35781600460008e6020015173ffffffffffffffffffffffffffffffffffffffff1673ffffffffffffffffffffffffffffffffffffffff1681526020019081526020016000206000888152602001908152602001600020819055505b5b3373ffffffffffffffffffffffffffffffffffffffff168a6020015173ffffffffffffffffffffffffffffffffffffffff161461248d5782811461248c5780600460008c6020015173ffffffffffffffffffffffffffffffffffffffff1673ffffffffffffffffffffffffffffffffffffffff1681526020019081526020016000206000878152602001908152602001600020819055505b5b868a6020015173ffffffffffffffffffffffffffffffffffffffff168d6020015173ffffffffffffffffffffffffffffffffffffffff167fe8447df45ce371d4c2f6cfcb9342b06165f71b244e809b909977f0dab191a009898987876040518085815260200184815260200183815260200182815260200194505050505060405180910390a450505050505060008060006101000a81548160ff021916908315150217905550505050505050565b60006001548260405160200180807f190100000000000000000000000000000000000000000000000000000000000081525060020183815260200182815260200192505050604051602081830303815290604052805190602001209050919050565b60007feb61b8100bcd004cad335a779aa74e9b176b520f4b98e7b487c133a82e9853dd82600001518360200151846040015185606001518660800151805190602001208760a001518860c001518960e001518a6101000151604051602001808b81526020018a73ffffffffffffffffffffffffffffffffffffffff1681526020018973ffffffffffffffffffffffffffffffffffffffff1681526020018873ffffffffffffffffffffffffffffffffffffffff168152602001877bffffffffffffffffffffffffffffffffffffffffffffffffffffffff191681526020018681526020018581526020018481526020018381526020018281526020019a5050505050505050505050604051602081830303815290604052805190602001209050919050565b6000428360c0015111806126eb575060008360e00151141580156126ea5750428360e0015111155b5b156126f95760009050612780565b8260a0015160046000856020015173ffffffffffffffffffffffffffffffffffffffff1673ffffffffffffffffffffffffffffffffffffffff168152602001908152602001600020600084815260200190815260200160002054106127615760009050612780565b61276e8360400151612786565b61277b5760009050612780565b600190505b92915050565b600080823b905060008111915050919050565b6000600360008573ffffffffffffffffffffffffffffffffffffffff1673ffffffffffffffffffffffffffffffffffffffff16815260200190815260200160002060009054906101000a900460ff166127f157600080fd5b6127fe8260000151612786565b612870576040517f08c379a000000000000000000000000000000000000000000000000000000000815260040180806020018281038252601a8152602001807f43616c6c2074617267657420646f6573206e6f7420657869737400000000000081525060200191505060405180910390fd5b60008473ffffffffffffffffffffffffffffffffffffffff1663c4552791856040518263ffffffff1660e01b8152600401808273ffffffffffffffffffffffffffffffffffffffff168152602001915050602060405180830381600087803b1580156128db57600080fd5b505af11580156128ef573d6000803e3d6000fd5b505050506040513d602081101561290557600080fd5b81019080805190602001909291905050509050600073ffffffffffffffffffffffffffffffffffffffff168173ffffffffffffffffffffffffffffffffffffffff16141561299e576040517f08c379a00000000000000000000000000000000000000000000000000000000081526004018080602001828103825260278152602001806133806027913960400191505060405180910390fd5b8473ffffffffffffffffffffffffffffffffffffffff166397204d8e6040518163ffffffff1660e01b8152600401602060405180830381600087803b1580156129e657600080fd5b505af11580156129fa573d6000803e3d6000fd5b505050506040513d6020811015612a1057600080fd5b810190808051906020019092919050505073ffffffffffffffffffffffffffffffffffffffff168173ffffffffffffffffffffffffffffffffffffffff16635c60da1b6040518163ffffffff1660e01b815260040160206040518083038186803b158015612a7d57600080fd5b505afa158015612a91573d6000803e3d6000fd5b505050506040513d6020811015612aa757600080fd5b810190808051906020019092919050505073ffffffffffffffffffffffffffffffffffffffff1614612b24576040517f08c379a00000000000000000000000000000000000000000000000000000000081526004018080602001828103825260318152602001806133056031913960400191505060405180910390fd5b60008190508073ffffffffffffffffffffffffffffffffffffffff16631b0f7ba98560000151866020015187604001516040518463ffffffff1660e01b8152600401808473ffffffffffffffffffffffffffffffffffffffff168152602001836001811115612b8f57fe5b815260200180602001828103825283818151815260200191508051906020019080838360005b83811015612bd0578082015181840152602081019050612bb5565b50505050905090810190601f168015612bfd5780820380516001836020036101000a031916815260200191505b50945050505050602060405180830381600087803b158015612c1e57600080fd5b505af1158015612c32573d6000803e3d6000fd5b505050506040513d6020811015612c4857600080fd5b8101908080519060200190929190505050925050509392505050565b6000612c828860400151612c7d8a8a8a8a8a8a8a612c8f565b613112565b9050979650505050505050565b6060612c99613254565b6040518060e001604052808a6000015173ffffffffffffffffffffffffffffffffffffffff1673ffffffffffffffffffffffffffffffffffffffff1681526020018a6020015173ffffffffffffffffffffffffffffffffffffffff1673ffffffffffffffffffffffffffffffffffffffff168152602001896000015173ffffffffffffffffffffffffffffffffffffffff1673ffffffffffffffffffffffffffffffffffffffff168152602001886000015173ffffffffffffffffffffffffffffffffffffffff1673ffffffffffffffffffffffffffffffffffffffff168152602001886020015173ffffffffffffffffffffffffffffffffffffffff1673ffffffffffffffffffffffffffffffffffffffff168152602001876000015173ffffffffffffffffffffffffffffffffffffffff1673ffffffffffffffffffffffffffffffffffffffff1681526020018673ffffffffffffffffffffffffffffffffffffffff1673ffffffffffffffffffffffffffffffffffffffff168152509050612e22613276565b60405180604001604052808a602001516001811115612e3d57fe5b6001811115612e4857fe5b815260200188602001516001811115612e5d57fe5b6001811115612e6857fe5b8152509050612e75613298565b6040518060c001604052808781526020018c60a0015181526020018c60c0015181526020018c60e0015181526020018a60c0015181526020018681525090508a606001518b608001518484848e604001518d60400151604051602401808060200187600760200280838360005b83811015612efd578082015181840152602081019050612ee2565b5050505090500186600260200280838360005b83811015612f2b578082015181840152602081019050612f10565b5050505090500185600660200280838360005b83811015612f59578082015181840152602081019050612f3e565b50505050905001806020018060200184810384528a818151815260200191508051906020019080838360005b83811015612fa0578082015181840152602081019050612f85565b50505050905090810190601f168015612fcd5780820380516001836020036101000a031916815260200191505b50848103835286818151815260200191508051906020019080838360005b83811015613006578082015181840152602081019050612feb565b50505050905090810190601f1680156130335780820380516001836020036101000a031916815260200191505b50848103825285818151815260200191508051906020019080838360005b8381101561306c578082015181840152602081019050613051565b50505050905090810190601f1680156130995780820380516001836020036101000a031916815260200191505b509950505050505050505050604051602081830303815290604052907bffffffffffffffffffffffffffffffffffffffffffffffffffffffff19166020820180517bffffffffffffffffffffffffffffffffffffffffffffffffffffffff83818316178352505050509350505050979650505050505050565b60008060206040518181865160208801895afa9250805193505050806131a0576040517f08c379a00000000000000000000000000000000000000000000000000000000081526004018080602001828103825260128152602001807f5374617469632063616c6c206661696c6564000000000000000000000000000081525060200191505060405180910390fd5b5092915050565b604051806101200160405280600073ffffffffffffffffffffffffffffffffffffffff168152602001600073ffffffffffffffffffffffffffffffffffffffff168152602001600073ffffffffffffffffffffffffffffffffffffffff16815260200160007bffffffffffffffffffffffffffffffffffffffffffffffffffffffff1916815260200160608152602001600081526020016000815260200160008152602001600081525090565b6040518060e00160405280600790602082028036833780820191505090505090565b6040518060400160405280600290602082028036833780820191505090505090565b6040518060c0016040528060069060208202803683378082019150509050509056fe53656e646572206973206e6f7420746865206d616b6572206f6620746865206f7264657220616e642074687573206e6f7420617574686f72697a656420746f20617070726f7665206974496e636f72726563742064656c65676174652070726f787920696d706c656d656e746174696f6e20666f72206d616b657246696c6c20697320616c72656164792073657420746f2074686520646573697265642076616c756553656c662d6d61746368696e67206f72646572732069732070726f6869626974656444656c65676174652070726f787920646f6573206e6f7420657869737420666f72206d616b65724669727374206f726465722068617320696e76616c696420706172616d65746572735365636f6e64206f72646572206661696c656420617574686f72697a6174696f6e5365636f6e64206f726465722068617320696e76616c696420706172616d6574657273a26469706673582212204b5042d1700f96f6e27331ec8cfc461430e8c50ae4550f770eb4ccb3381b781364736f6c63430007050033",
  "linkReferences": {},
  "deployedLinkReferences": {}
}