{
  "_format": "hh-sol-artifact-1",
  "contractName": "OwnedUpgradeabilityStorage",
  "sourceName": "contracts/registry/proxy/OwnedUpgradeabilityStorage.sol",
  "abi": [
    {
      "inputs": [],
      "name": "upgradeabilityOwner",
      "outputs": [
        {
          "internalType": "address",
          "name": "",
          "type": "address"
        }
      ],
      "stateMutability": "view",
      "type": "function"
    }
  ],
  "bytecode": "0x6080604052348015600f57600080fd5b5060bf8061001e6000396000f3fe6080604052348015600f57600080fd5b506004361060285760003560e01c80636fde820214602d575b600080fd5b6033605f565b604051808273ffffffffffffffffffffffffffffffffffffffff16815260200191505060405180910390f35b6000600160009054906101000a900473ffffffffffffffffffffffffffffffffffffffff1690509056fea2646970667358221220f180cb9cff2706f6ba9c2db7d517784658c80c6dacda32bae27585092107405e64736f6c63430007050033",
  "linkReferences": {},
  "deployedLinkReferences": {}
}