{
  "_format": "hh-sol-artifact-1",
  "contractName": "WyvernRegistry",
  "sourceName": "contracts/WyvernRegistry.sol",
  "abi": [
    {
      "inputs": [],
      "stateMutability": "nonpayable",
      "type": "constructor"
    },
    {
      "anonymous": false,
      "inputs": [
        {
          "indexed": true,
          "internalType": "address",
          "name": "previousOwner",
          "type": "address"
        },
        {
          "indexed": true,
          "internalType": "address",
          "name": "newOwner",
          "type": "address"
        }
      ],
      "name": "OwnershipTransferred",
      "type": "event"
    },
    {
      "inputs": [],
      "name": "DELAY_PERIOD",
      "outputs": [
        {
          "internalType": "uint256",
          "name": "",
          "type": "uint256"
        }
      ],
      "stateMutability": "view",
      "type": "function"
    },
    {
      "inputs": [
        {
          "internalType": "address",
          "name": "",
          "type": "address"
        }
      ],
      "name": "contracts",
      "outputs": [
        {
          "internalType": "bool",
          "name": "",
          "type": "bool"
        }
      ],
      "stateMutability": "view",
      "type": "function"
    },
    {
      "inputs": [],
      "name": "delegateProxyImplementation",
      "outputs": [
        {
          "internalType": "address",
          "name": "",
          "type": "address"
        }
      ],
      "stateMutability": "view",
      "type": "function"
    },
    {
      "inputs": [
        {
          "internalType": "address",
          "name": "addr",
          "type": "address"
        }
      ],
      "name": "endGrantAuthentication",
      "outputs": [],
      "stateMutability": "nonpayable",
      "type": "function"
    },
    {
      "inputs": [
        {
          "internalType": "address",
          "name": "authAddress",
          "type": "address"
        }
      ],
      "name": "grantInitialAuthentication",
      "outputs": [],
      "stateMutability": "nonpayable",
      "type": "function"
    },
    {
      "inputs": [],
      "name": "initialAddressSet",
      "outputs": [
        {
          "internalType": "bool",
          "name": "",
          "type": "bool"
        }
      ],
      "stateMutability": "view",
      "type": "function"
    },
    {
      "inputs": [],
      "name": "name",
      "outputs": [
        {
          "internalType": "string",
          "name": "",
          "type": "string"
        }
      ],
      "stateMutability": "view",
      "type": "function"
    },
    {
      "inputs": [],
      "name": "owner",
      "outputs": [
        {
          "internalType": "address",
          "name": "",
          "type": "address"
        }
      ],
      "stateMutability": "view",
      "type": "function"
    },
    {
      "inputs": [
        {
          "internalType": "address",
          "name": "",
          "type": "address"
        }
      ],
      "name": "pending",
      "outputs": [
        {
          "internalType": "uint256",
          "name": "",
          "type": "uint256"
        }
      ],
      "stateMutability": "view",
      "type": "function"
    },
    {
      "inputs": [
        {
          "internalType": "address",
          "name": "",
          "type": "address"
        }
      ],
      "name": "proxies",
      "outputs": [
        {
          "internalType": "contract OwnableDelegateProxy",
          "name": "",
          "type": "address"
        }
      ],
      "stateMutability": "view",
      "type": "function"
    },
    {
      "inputs": [],
      "name": "registerProxy",
      "outputs": [
        {
          "internalType": "contract OwnableDelegateProxy",
          "name": "proxy",
          "type": "address"
        }
      ],
      "stateMutability": "nonpayable",
      "type": "function"
    },
    {
      "inputs": [
        {
          "internalType": "address",
          "name": "user",
          "type": "address"
        }
      ],
      "name": "registerProxyFor",
      "outputs": [
        {
          "internalType": "contract OwnableDelegateProxy",
          "name": "proxy",
          "type": "address"
        }
      ],
      "stateMutability": "nonpayable",
      "type": "function"
    },
    {
      "inputs": [],
      "name": "registerProxyOverride",
      "outputs": [
        {
          "internalType": "contract OwnableDelegateProxy",
          "name": "proxy",
          "type": "address"
        }
      ],
      "stateMutability": "nonpayable",
      "type": "function"
    },
    {
      "inputs": [],
      "name": "renounceOwnership",
      "outputs": [],
      "stateMutability": "nonpayable",
      "type": "function"
    },
    {
      "inputs": [
        {
          "internalType": "address",
          "name": "addr",
          "type": "address"
        }
      ],
      "name": "revokeAuthentication",
      "outputs": [],
      "stateMutability": "nonpayable",
      "type": "function"
    },
    {
      "inputs": [
        {
          "internalType": "address",
          "name": "addr",
          "type": "address"
        }
      ],
      "name": "startGrantAuthentication",
      "outputs": [],
      "stateMutability": "nonpayable",
      "type": "function"
    },
    {
      "inputs": [
        {
          "internalType": "address",
          "name": "from",
          "type": "address"
        },
        {
          "internalType": "address",
          "name": "to",
          "type": "address"
        }
      ],
      "name": "transferAccessTo",
      "outputs": [],
      "stateMutability": "nonpayable",
      "type": "function"
    },
    {
      "inputs": [
        {
          "internalType": "address",
          "name": "newOwner",
          "type": "address"
        }
      ],
      "name": "transferOwnership",
      "outputs": [],
      "stateMutability": "nonpayable",
      "type": "function"
    }
  ],
  "bytecode": "0x6080604052621275006005556000600660006101000a81548160ff0219169083151502179055503480156200003357600080fd5b506000620000466200026d60201b60201c565b9050806000806101000a81548173ffffffffffffffffffffffffffffffffffffffff021916908373ffffffffffffffffffffffffffffffffffffffff1602179055508073ffffffffffffffffffffffffffffffffffffffff16600073ffffffffffffffffffffffffffffffffffffffff167f8be0079c531659141344cd1fd0a4f28419497f9722a3daafe3b4186f6b6457e060405160405180910390a3506000604051620000f49062000275565b604051809103906000f08015801562000111573d6000803e3d6000fd5b5090508073ffffffffffffffffffffffffffffffffffffffff1663485cc95530306040518363ffffffff1660e01b8152600401808373ffffffffffffffffffffffffffffffffffffffff1681526020018273ffffffffffffffffffffffffffffffffffffffff16815260200192505050600060405180830381600087803b1580156200019c57600080fd5b505af1158015620001b1573d6000803e3d6000fd5b505050508073ffffffffffffffffffffffffffffffffffffffff16634c93505f60016040518263ffffffff1660e01b8152600401808215158152602001915050600060405180830381600087803b1580156200020c57600080fd5b505af115801562000221573d6000803e3d6000fd5b5050505080600160006101000a81548173ffffffffffffffffffffffffffffffffffffffff021916908373ffffffffffffffffffffffffffffffffffffffff1602179055505062000283565b600033905090565b610f558062002cf383390190565b612a6080620002936000396000f3fe60806040523480156200001157600080fd5b50600436106200012f5760003560e01c80638da5cb5b11620000b1578063dcfa9222116200007b578063dcfa922214620004fb578063ddd81f821462000562578063e71a02e11462000598578063ef7f383414620005b8578063f2fde38b14620005ff576200012f565b80638da5cb5b14620003d757806397204d8e146200040d578063c45527911462000443578063d4e8e06314620004b4576200012f565b806353376d1f11620000ff57806353376d1f14620002965780635eebea2014620002dd578063631d9e3f146200033857806369dc9ff3146200036e578063715018a614620003cb576200012f565b8062686741146200013457806306fdde0314620001a55780631a86ac4f146200022d57806338b6e407146200024f575b600080fd5b62000179600480360360208110156200014c57600080fd5b81019080803573ffffffffffffffffffffffffffffffffffffffff16906020019092919050505062000646565b604051808273ffffffffffffffffffffffffffffffffffffffff16815260200191505060405180910390f35b620001af6200098c565b6040518080602001828103825283818151815260200191508051906020019080838360005b83811015620001f1578082015181840152602081019050620001d4565b50505050905090810190601f1680156200021f5780820380516001836020036101000a031916815260200191505b509250505060405180910390f35b62000237620009c5565b60405180821515815260200191505060405180910390f35b62000294600480360360208110156200026757600080fd5b81019080803573ffffffffffffffffffffffffffffffffffffffff169060200190929190505050620009d8565b005b620002db60048036036020811015620002ae57600080fd5b81019080803573ffffffffffffffffffffffffffffffffffffffff16906020019092919050505062000c84565b005b6200032260048036036020811015620002f557600080fd5b81019080803573ffffffffffffffffffffffffffffffffffffffff16906020019092919050505062000daa565b6040518082815260200191505060405180910390f35b6200034262000dc2565b604051808273ffffffffffffffffffffffffffffffffffffffff16815260200191505060405180910390f35b620003b3600480360360208110156200038657600080fd5b81019080803573ffffffffffffffffffffffffffffffffffffffff16906020019092919050505062001005565b60405180821515815260200191505060405180910390f35b620003d562001025565b005b620003e1620011ae565b604051808273ffffffffffffffffffffffffffffffffffffffff16815260200191505060405180910390f35b62000417620011d7565b604051808273ffffffffffffffffffffffffffffffffffffffff16815260200191505060405180910390f35b62000488600480360360208110156200045b57600080fd5b81019080803573ffffffffffffffffffffffffffffffffffffffff169060200190929190505050620011fd565b604051808273ffffffffffffffffffffffffffffffffffffffff16815260200191505060405180910390f35b620004f960048036036020811015620004cc57600080fd5b81019080803573ffffffffffffffffffffffffffffffffffffffff16906020019092919050505062001230565b005b62000560600480360360408110156200051357600080fd5b81019080803573ffffffffffffffffffffffffffffffffffffffff169060200190929190803573ffffffffffffffffffffffffffffffffffffffff16906020019092919050505062001433565b005b6200056c620016e8565b604051808273ffffffffffffffffffffffffffffffffffffffff16815260200191505060405180910390f35b620005a2620016fa565b6040518082815260200191505060405180910390f35b620005fd60048036036020811015620005d057600080fd5b81019080803573ffffffffffffffffffffffffffffffffffffffff16906020019092919050505062001700565b005b62000644600480360360208110156200061757600080fd5b81019080803573ffffffffffffffffffffffffffffffffffffffff169060200190929190505050620018a9565b005b60008073ffffffffffffffffffffffffffffffffffffffff16600260008473ffffffffffffffffffffffffffffffffffffffff1673ffffffffffffffffffffffffffffffffffffffff16815260200190815260200160002060009054906101000a900473ffffffffffffffffffffffffffffffffffffffff1673ffffffffffffffffffffffffffffffffffffffff161462000749576040517f08c379a00000000000000000000000000000000000000000000000000000000081526004018080602001828103825260188152602001807f5573657220616c72656164792068617320612070726f7879000000000000000081525060200191505060405180910390fd5b81600160009054906101000a900473ffffffffffffffffffffffffffffffffffffffff168330604051602401808373ffffffffffffffffffffffffffffffffffffffff1681526020018273ffffffffffffffffffffffffffffffffffffffff168152602001925050506040516020818303038152906040527f485cc955000000000000000000000000000000000000000000000000000000007bffffffffffffffffffffffffffffffffffffffffffffffffffffffff19166020820180517bffffffffffffffffffffffffffffffffffffffffffffffffffffffff83818316178352505050506040516200083d9062001ac1565b808473ffffffffffffffffffffffffffffffffffffffff1681526020018373ffffffffffffffffffffffffffffffffffffffff16815260200180602001828103825283818151815260200191508051906020019080838360005b83811015620008b457808201518184015260208101905062000897565b50505050905090810190601f168015620008e25780820380516001836020036101000a031916815260200191505b50945050505050604051809103906000f08015801562000906573d6000803e3d6000fd5b50905080600260008473ffffffffffffffffffffffffffffffffffffffff1673ffffffffffffffffffffffffffffffffffffffff16815260200190815260200160002060006101000a81548173ffffffffffffffffffffffffffffffffffffffff021916908373ffffffffffffffffffffffffffffffffffffffff160217905550919050565b6040518060400160405280601e81526020017f57797665726e2050726f746f636f6c2050726f7879205265676973747279000081525081565b600660009054906101000a900460ff1681565b620009e262001ab9565b73ffffffffffffffffffffffffffffffffffffffff1660008054906101000a900473ffffffffffffffffffffffffffffffffffffffff1673ffffffffffffffffffffffffffffffffffffffff161462000aa3576040517f08c379a00000000000000000000000000000000000000000000000000000000081526004018080602001828103825260208152602001807f4f776e61626c653a2063616c6c6572206973206e6f7420746865206f776e657281525060200191505060405180910390fd5b600460008273ffffffffffffffffffffffffffffffffffffffff1673ffffffffffffffffffffffffffffffffffffffff16815260200190815260200160002060009054906101000a900460ff1615801562000b3e57506000600360008373ffffffffffffffffffffffffffffffffffffffff1673ffffffffffffffffffffffffffffffffffffffff1681526020019081526020016000205414155b801562000b8d575042600554600360008473ffffffffffffffffffffffffffffffffffffffff1673ffffffffffffffffffffffffffffffffffffffff1681526020019081526020016000205401105b62000be4576040517f08c379a0000000000000000000000000000000000000000000000000000000008152600401808060200182810382526046815260200180620029486046913960600191505060405180910390fd5b6000600360008373ffffffffffffffffffffffffffffffffffffffff1673ffffffffffffffffffffffffffffffffffffffff168152602001908152602001600020819055506001600460008373ffffffffffffffffffffffffffffffffffffffff1673ffffffffffffffffffffffffffffffffffffffff16815260200190815260200160002060006101000a81548160ff02191690831515021790555050565b62000c8e62001ab9565b73ffffffffffffffffffffffffffffffffffffffff1660008054906101000a900473ffffffffffffffffffffffffffffffffffffffff1673ffffffffffffffffffffffffffffffffffffffff161462000d4f576040517f08c379a00000000000000000000000000000000000000000000000000000000081526004018080602001828103825260208152602001807f4f776e61626c653a2063616c6c6572206973206e6f7420746865206f776e657281525060200191505060405180910390fd5b6000600460008373ffffffffffffffffffffffffffffffffffffffff1673ffffffffffffffffffffffffffffffffffffffff16815260200190815260200160002060006101000a81548160ff02191690831515021790555050565b60036020528060005260406000206000915090505481565b600033600160009054906101000a900473ffffffffffffffffffffffffffffffffffffffff163330604051602401808373ffffffffffffffffffffffffffffffffffffffff1681526020018273ffffffffffffffffffffffffffffffffffffffff168152602001925050506040516020818303038152906040527f485cc955000000000000000000000000000000000000000000000000000000007bffffffffffffffffffffffffffffffffffffffffffffffffffffffff19166020820180517bffffffffffffffffffffffffffffffffffffffffffffffffffffffff838183161783525050505060405162000eb89062001ac1565b808473ffffffffffffffffffffffffffffffffffffffff1681526020018373ffffffffffffffffffffffffffffffffffffffff16815260200180602001828103825283818151815260200191508051906020019080838360005b8381101562000f2f57808201518184015260208101905062000f12565b50505050905090810190601f16801562000f5d5780820380516001836020036101000a031916815260200191505b50945050505050604051809103906000f08015801562000f81573d6000803e3d6000fd5b50905080600260003373ffffffffffffffffffffffffffffffffffffffff1673ffffffffffffffffffffffffffffffffffffffff16815260200190815260200160002060006101000a81548173ffffffffffffffffffffffffffffffffffffffff021916908373ffffffffffffffffffffffffffffffffffffffff16021790555090565b60046020528060005260406000206000915054906101000a900460ff1681565b6200102f62001ab9565b73ffffffffffffffffffffffffffffffffffffffff1660008054906101000a900473ffffffffffffffffffffffffffffffffffffffff1673ffffffffffffffffffffffffffffffffffffffff1614620010f0576040517f08c379a00000000000000000000000000000000000000000000000000000000081526004018080602001828103825260208152602001807f4f776e61626c653a2063616c6c6572206973206e6f7420746865206f776e657281525060200191505060405180910390fd5b600073ffffffffffffffffffffffffffffffffffffffff1660008054906101000a900473ffffffffffffffffffffffffffffffffffffffff1673ffffffffffffffffffffffffffffffffffffffff167f8be0079c531659141344cd1fd0a4f28419497f9722a3daafe3b4186f6b6457e060405160405180910390a360008060006101000a81548173ffffffffffffffffffffffffffffffffffffffff021916908373ffffffffffffffffffffffffffffffffffffffff160217905550565b60008060009054906101000a900473ffffffffffffffffffffffffffffffffffffffff16905090565b600160009054906101000a900473ffffffffffffffffffffffffffffffffffffffff1681565b60026020528060005260406000206000915054906101000a900473ffffffffffffffffffffffffffffffffffffffff1681565b6200123a62001ab9565b73ffffffffffffffffffffffffffffffffffffffff1660008054906101000a900473ffffffffffffffffffffffffffffffffffffffff1673ffffffffffffffffffffffffffffffffffffffff1614620012fb576040517f08c379a00000000000000000000000000000000000000000000000000000000081526004018080602001828103825260208152602001807f4f776e61626c653a2063616c6c6572206973206e6f7420746865206f776e657281525060200191505060405180910390fd5b600460008273ffffffffffffffffffffffffffffffffffffffff1673ffffffffffffffffffffffffffffffffffffffff16815260200190815260200160002060009054906101000a900460ff161580156200139557506000600360008373ffffffffffffffffffffffffffffffffffffffff1673ffffffffffffffffffffffffffffffffffffffff16815260200190815260200160002054145b620013ec576040517f08c379a0000000000000000000000000000000000000000000000000000000008152600401808060200182810382526033815260200180620029f86033913960400191505060405180910390fd5b42600360008373ffffffffffffffffffffffffffffffffffffffff1673ffffffffffffffffffffffffffffffffffffffff1681526020019081526020016000208190555050565b6000600260008473ffffffffffffffffffffffffffffffffffffffff1673ffffffffffffffffffffffffffffffffffffffff16815260200190815260200160002060009054906101000a900473ffffffffffffffffffffffffffffffffffffffff1690508073ffffffffffffffffffffffffffffffffffffffff163373ffffffffffffffffffffffffffffffffffffffff16146200151d576040517f08c379a000000000000000000000000000000000000000000000000000000000815260040180806020018281038252602e815260200180620028f4602e913960400191505060405180910390fd5b600073ffffffffffffffffffffffffffffffffffffffff16600260008473ffffffffffffffffffffffffffffffffffffffff1673ffffffffffffffffffffffffffffffffffffffff16815260200190815260200160002060009054906101000a900473ffffffffffffffffffffffffffffffffffffffff1673ffffffffffffffffffffffffffffffffffffffff161462001603576040517f08c379a00000000000000000000000000000000000000000000000000000000081526004018080602001828103825260308152602001806200298e6030913960400191505060405180910390fd5b600260008473ffffffffffffffffffffffffffffffffffffffff1673ffffffffffffffffffffffffffffffffffffffff16815260200190815260200160002060006101000a81549073ffffffffffffffffffffffffffffffffffffffff021916905580600260008473ffffffffffffffffffffffffffffffffffffffff1673ffffffffffffffffffffffffffffffffffffffff16815260200190815260200160002060006101000a81548173ffffffffffffffffffffffffffffffffffffffff021916908373ffffffffffffffffffffffffffffffffffffffff160217905550505050565b6000620016f53362000646565b905090565b60055481565b6200170a62001ab9565b73ffffffffffffffffffffffffffffffffffffffff1660008054906101000a900473ffffffffffffffffffffffffffffffffffffffff1673ffffffffffffffffffffffffffffffffffffffff1614620017cb576040517f08c379a00000000000000000000000000000000000000000000000000000000081526004018080602001828103825260208152602001807f4f776e61626c653a2063616c6c6572206973206e6f7420746865206f776e657281525060200191505060405180910390fd5b600660009054906101000a900460ff161562001833576040517f08c379a000000000000000000000000000000000000000000000000000000000815260040180806020018281038252603a815260200180620029be603a913960400191505060405180910390fd5b6001600660006101000a81548160ff0219169083151502179055506001600460008373ffffffffffffffffffffffffffffffffffffffff1673ffffffffffffffffffffffffffffffffffffffff16815260200190815260200160002060006101000a81548160ff02191690831515021790555050565b620018b362001ab9565b73ffffffffffffffffffffffffffffffffffffffff1660008054906101000a900473ffffffffffffffffffffffffffffffffffffffff1673ffffffffffffffffffffffffffffffffffffffff161462001974576040517f08c379a00000000000000000000000000000000000000000000000000000000081526004018080602001828103825260208152602001807f4f776e61626c653a2063616c6c6572206973206e6f7420746865206f776e657281525060200191505060405180910390fd5b600073ffffffffffffffffffffffffffffffffffffffff168173ffffffffffffffffffffffffffffffffffffffff161415620019fc576040517f08c379a0000000000000000000000000000000000000000000000000000000008152600401808060200182810382526026815260200180620029226026913960400191505060405180910390fd5b8073ffffffffffffffffffffffffffffffffffffffff1660008054906101000a900473ffffffffffffffffffffffffffffffffffffffff1673ffffffffffffffffffffffffffffffffffffffff167f8be0079c531659141344cd1fd0a4f28419497f9722a3daafe3b4186f6b6457e060405160405180910390a3806000806101000a81548173ffffffffffffffffffffffffffffffffffffffff021916908373ffffffffffffffffffffffffffffffffffffffff16021790555050565b600033905090565b610e248062001ad08339019056fe608060405234801561001057600080fd5b50604051610e24380380610e248339818101604052606081101561003357600080fd5b8101908080519060200190929190805190602001909291908051604051939291908464010000000082111561006757600080fd5b8382019150602082018581111561007d57600080fd5b825186600182028301116401000000008211171561009a57600080fd5b8083526020830192505050908051906020019080838360005b838110156100ce5780820151818401526020810190506100b3565b50505050905090810190601f1680156100fb5780820380516001836020036101000a031916815260200191505b506040525050506101118361023560201b60201c565b6101208261027960201b60201c565b60008273ffffffffffffffffffffffffffffffffffffffff16826040518082805190602001908083835b6020831061016d578051825260208201915060208101905060208303925061014a565b6001836020036101000a038019825116818451168082178552505050505050905001915050600060405180830381855af49150503d80600081146101cd576040519150601f19603f3d011682016040523d82523d6000602084013e6101d2565b606091505b505090508061022c576040517f08c379a000000000000000000000000000000000000000000000000000000000815260040180806020018281038252602a815260200180610dfa602a913960400191505060405180910390fd5b505050506103a4565b80600160006101000a81548173ffffffffffffffffffffffffffffffffffffffff021916908373ffffffffffffffffffffffffffffffffffffffff16021790555050565b8073ffffffffffffffffffffffffffffffffffffffff1660008054906101000a900473ffffffffffffffffffffffffffffffffffffffff1673ffffffffffffffffffffffffffffffffffffffff16141561031e576040517f08c379a0000000000000000000000000000000000000000000000000000000008152600401808060200182810382526026815260200180610dd46026913960400191505060405180910390fd5b806000806101000a81548173ffffffffffffffffffffffffffffffffffffffff021916908373ffffffffffffffffffffffffffffffffffffffff1602179055508073ffffffffffffffffffffffffffffffffffffffff167fbc7cd75a20ee27fd9adebab32041f755214dbc6bffa90cc0225b39da2e5c2d3b60405160405180910390a250565b610a21806103b36000396000f3fe6080604052600436106100745760003560e01c80634f1ef2861161004e5780634f1ef286146102085780635c60da1b146102e35780636fde820214610324578063f1739cae1461036557610075565b8063025313a21461014b5780633659cfe61461018c5780634555d5c9146101dd57610075565b5b600061007f6103b6565b9050600073ffffffffffffffffffffffffffffffffffffffff168173ffffffffffffffffffffffffffffffffffffffff161415610124576040517f08c379a000000000000000000000000000000000000000000000000000000000815260040180806020018281038252601d8152602001807f50726f787920696d706c656d656e746174696f6e20726571756972656400000081525060200191505060405180910390fd5b60405136600082376000803683855af43d806000843e8160008114610147578184f35b8184fd5b34801561015757600080fd5b506101606103df565b604051808273ffffffffffffffffffffffffffffffffffffffff16815260200191505060405180910390f35b34801561019857600080fd5b506101db600480360360208110156101af57600080fd5b81019080803573ffffffffffffffffffffffffffffffffffffffff1690602001909291905050506103ee565b005b3480156101e957600080fd5b506101f2610485565b6040518082815260200191505060405180910390f35b6102e16004803603604081101561021e57600080fd5b81019080803573ffffffffffffffffffffffffffffffffffffffff1690602001909291908035906020019064010000000081111561025b57600080fd5b82018360208201111561026d57600080fd5b8035906020019184600183028401116401000000008311171561028f57600080fd5b91908080601f016020809104026020016040519081016040528093929190818152602001838380828437600081840152601f19601f82011690508083019250505050505050919291929050505061048e565b005b3480156102ef57600080fd5b506102f86103b6565b604051808273ffffffffffffffffffffffffffffffffffffffff16815260200191505060405180910390f35b34801561033057600080fd5b50610339610650565b604051808273ffffffffffffffffffffffffffffffffffffffff16815260200191505060405180910390f35b34801561037157600080fd5b506103b46004803603602081101561038857600080fd5b81019080803573ffffffffffffffffffffffffffffffffffffffff16906020019092919050505061067a565b005b60008060009054906101000a900473ffffffffffffffffffffffffffffffffffffffff16905090565b60006103e9610650565b905090565b6103f66103df565b73ffffffffffffffffffffffffffffffffffffffff163373ffffffffffffffffffffffffffffffffffffffff1614610479576040517f08c379a00000000000000000000000000000000000000000000000000000000081526004018080602001828103825260298152602001806109c36029913960400191505060405180910390fd5b61048281610809565b50565b60006002905090565b6104966103df565b73ffffffffffffffffffffffffffffffffffffffff163373ffffffffffffffffffffffffffffffffffffffff1614610519576040517f08c379a00000000000000000000000000000000000000000000000000000000081526004018080602001828103825260298152602001806109c36029913960400191505060405180910390fd5b610522826103ee565b60003073ffffffffffffffffffffffffffffffffffffffff16826040518082805190602001908083835b6020831061056f578051825260208201915060208101905060208303925061054c565b6001836020036101000a038019825116818451168082178552505050505050905001915050600060405180830381855af49150503d80600081146105cf576040519150601f19603f3d011682016040523d82523d6000602084013e6105d4565b606091505b505090508061064b576040517f08c379a000000000000000000000000000000000000000000000000000000000815260040180806020018281038252601f8152602001807f43616c6c206661696c65642061667465722070726f787920757067726164650081525060200191505060405180910390fd5b505050565b6000600160009054906101000a900473ffffffffffffffffffffffffffffffffffffffff16905090565b6106826103df565b73ffffffffffffffffffffffffffffffffffffffff163373ffffffffffffffffffffffffffffffffffffffff1614610705576040517f08c379a00000000000000000000000000000000000000000000000000000000081526004018080602001828103825260298152602001806109c36029913960400191505060405180910390fd5b600073ffffffffffffffffffffffffffffffffffffffff168173ffffffffffffffffffffffffffffffffffffffff16141561078b576040517f08c379a000000000000000000000000000000000000000000000000000000000815260040180806020018281038252602481526020018061099f6024913960400191505060405180910390fd5b7f5a3e66efaa1e445ebd894728a69d6959842ea1e97bd79b892797106e270efcd96107b46103df565b82604051808373ffffffffffffffffffffffffffffffffffffffff1681526020018273ffffffffffffffffffffffffffffffffffffffff1681526020019250505060405180910390a161080681610934565b50565b8073ffffffffffffffffffffffffffffffffffffffff1660008054906101000a900473ffffffffffffffffffffffffffffffffffffffff1673ffffffffffffffffffffffffffffffffffffffff1614156108ae576040517f08c379a00000000000000000000000000000000000000000000000000000000081526004018080602001828103825260268152602001806109796026913960400191505060405180910390fd5b806000806101000a81548173ffffffffffffffffffffffffffffffffffffffff021916908373ffffffffffffffffffffffffffffffffffffffff1602179055508073ffffffffffffffffffffffffffffffffffffffff167fbc7cd75a20ee27fd9adebab32041f755214dbc6bffa90cc0225b39da2e5c2d3b60405160405180910390a250565b80600160006101000a81548173ffffffffffffffffffffffffffffffffffffffff021916908373ffffffffffffffffffffffffffffffffffffffff1602179055505056fe50726f787920616c72656164792075736573207468697320696d706c656d656e746174696f6e4e6577206f776e65722063616e6e6f7420626520746865206e756c6c20616464726573734f6e6c79207468652070726f7879206f776e65722063616e2063616c6c2074686973206d6574686f64a264697066735822122003eae3d126b9fca5d19a75cf37badc3c6f850a53881ce152b75b27081bac18af64736f6c6343000705003350726f787920616c72656164792075736573207468697320696d706c656d656e746174696f6e4f776e61626c6544656c656761746550726f7879206661696c656420696d706c656d656e746174696f6e50726f7879207472616e736665722063616e206f6e6c792062652063616c6c6564206279207468652070726f78794f776e61626c653a206e6577206f776e657220697320746865207a65726f2061646472657373436f6e7472616374206973206e6f206c6f6e6765722070656e64696e67206f722068617320616c7265616479206265656e20617070726f76656420627920726567697374727950726f7879207472616e7366657220686173206578697374696e672070726f78792061732064657374696e6174696f6e57797665726e2050726f746f636f6c2050726f787920526567697374727920696e697469616c206164647265737320616c726561647920736574436f6e747261637420697320616c726561647920616c6c6f77656420696e2072656769737472792c206f722070656e64696e67a26469706673582212204cde47121144dca0c8539dcd6f4f90ee546414fbaefb5009bbf607bfdecf0b1964736f6c6343000705003360806040526000600160146101000a81548160ff02191690831515021790555034801561002b57600080fd5b50610f1a8061003b6000396000f3fe60806040526004361061008a5760003560e01c80634f8632ba116100595780634f8632ba1461038957806363d256ce146103ca5780636fde8202146103f75780637b103999146104385780638f4ffcb1146104795761008b565b80631b0f7ba9146100db5780633f801f91146101e6578063485cc955146102db5780634c93505f1461034c5761008b565b5b3373ffffffffffffffffffffffffffffffffffffffff167fa419615bc8fda4c87663805ee2a3597a6d71c1d476911d9892f340d965bc7bf1346040518082815260200191505060405180910390a2005b3480156100e757600080fd5b506101ce600480360360608110156100fe57600080fd5b81019080803573ffffffffffffffffffffffffffffffffffffffff169060200190929190803560ff1690602001909291908035906020019064010000000081111561014857600080fd5b82018360208201111561015a57600080fd5b8035906020019184600183028401116401000000008311171561017c57600080fd5b91908080601f016020809104026020016040519081016040528093929190818152602001838380828437600081840152601f19601f82011690508083019250505050505050919291929050505061058b565b60405180821515815260200191505060405180910390f35b3480156101f257600080fd5b506102d96004803603606081101561020957600080fd5b81019080803573ffffffffffffffffffffffffffffffffffffffff169060200190929190803560ff1690602001909291908035906020019064010000000081111561025357600080fd5b82018360208201111561026557600080fd5b8035906020019184600183028401116401000000008311171561028757600080fd5b91908080601f016020809104026020016040519081016040528093929190818152602001838380828437600081840152601f19601f8201169050808301925050505050505091929192905050506108d9565b005b3480156102e757600080fd5b5061034a600480360360408110156102fe57600080fd5b81019080803573ffffffffffffffffffffffffffffffffffffffff169060200190929190803573ffffffffffffffffffffffffffffffffffffffff16906020019092919050505061095b565b005b34801561035857600080fd5b506103876004803603602081101561036f57600080fd5b81019080803515159060200190929190505050610a61565b005b34801561039557600080fd5b5061039e610b5d565b604051808273ffffffffffffffffffffffffffffffffffffffff16815260200191505060405180910390f35b3480156103d657600080fd5b506103df610b83565b60405180821515815260200191505060405180910390f35b34801561040357600080fd5b5061040c610b96565b604051808273ffffffffffffffffffffffffffffffffffffffff16815260200191505060405180910390f35b34801561044457600080fd5b5061044d610bc0565b604051808273ffffffffffffffffffffffffffffffffffffffff16815260200191505060405180910390f35b34801561048557600080fd5b506105896004803603608081101561049c57600080fd5b81019080803573ffffffffffffffffffffffffffffffffffffffff16906020019092919080359060200190929190803573ffffffffffffffffffffffffffffffffffffffff1690602001909291908035906020019064010000000081111561050357600080fd5b82018360208201111561051557600080fd5b8035906020019184600183028401116401000000008311171561053757600080fd5b91908080601f016020809104026020016040519081016040528093929190818152602001838380828437600081840152601f19601f820116905080830192505050505050509192919290505050610be6565b005b6000600260009054906101000a900473ffffffffffffffffffffffffffffffffffffffff1673ffffffffffffffffffffffffffffffffffffffff163373ffffffffffffffffffffffffffffffffffffffff1614806106c25750600360149054906101000a900460ff161580156106c15750600360009054906101000a900473ffffffffffffffffffffffffffffffffffffffff1673ffffffffffffffffffffffffffffffffffffffff166369dc9ff3336040518263ffffffff1660e01b8152600401808273ffffffffffffffffffffffffffffffffffffffff16815260200191505060206040518083038186803b15801561068557600080fd5b505afa158015610699573d6000803e3d6000fd5b505050506040513d60208110156106af57600080fd5b81019080805190602001909291905050505b5b610717576040517f08c379a000000000000000000000000000000000000000000000000000000000815260040180806020018281038252608a815260200180610e28608a913960a00191505060405180910390fd5b60606000600181111561072657fe5b84600181111561073257fe5b14156107f8578473ffffffffffffffffffffffffffffffffffffffff16836040518082805190602001908083835b602083106107835780518252602082019150602081019050602083039250610760565b6001836020036101000a0380198251168184511680821785525050505050509050019150506000604051808303816000865af19150503d80600081146107e5576040519150601f19603f3d011682016040523d82523d6000602084013e6107ea565b606091505b5080925081935050506108d1565b60018081111561080457fe5b84600181111561081057fe5b14156108d0578473ffffffffffffffffffffffffffffffffffffffff16836040518082805190602001908083835b60208310610861578051825260208201915060208101905060208303925061083e565b6001836020036101000a038019825116818451168082178552505050505050905001915050600060405180830381855af49150503d80600081146108c1576040519150601f19603f3d011682016040523d82523d6000602084013e6108c6565b606091505b5080925081935050505b5b509392505050565b6108e483838361058b565b610956576040517f08c379a00000000000000000000000000000000000000000000000000000000081526004018080602001828103825260168152602001807f50726f787920617373657274696f6e206661696c65640000000000000000000081525060200191505060405180910390fd5b505050565b600160149054906101000a900460ff16156109c1576040517f08c379a0000000000000000000000000000000000000000000000000000000008152600401808060200182810382526027815260200180610e016027913960400191505060405180910390fd5b60018060146101000a81548160ff02191690831515021790555081600260006101000a81548173ffffffffffffffffffffffffffffffffffffffff021916908373ffffffffffffffffffffffffffffffffffffffff16021790555080600360006101000a81548173ffffffffffffffffffffffffffffffffffffffff021916908373ffffffffffffffffffffffffffffffffffffffff1602179055505050565b600260009054906101000a900473ffffffffffffffffffffffffffffffffffffffff1673ffffffffffffffffffffffffffffffffffffffff163373ffffffffffffffffffffffffffffffffffffffff1614610b07576040517f08c379a0000000000000000000000000000000000000000000000000000000008152600401808060200182810382526033815260200180610eb26033913960400191505060405180910390fd5b80600360146101000a81548160ff0219169083151502179055507f2165014523a6f4135deffed62d70149aad59b64de5aac51e3abbcbe2a83e2f7e8160405180821515815260200191505060405180910390a150565b600260009054906101000a900473ffffffffffffffffffffffffffffffffffffffff1681565b600360149054906101000a900460ff1681565b6000600160009054906101000a900473ffffffffffffffffffffffffffffffffffffffff16905090565b600360009054906101000a900473ffffffffffffffffffffffffffffffffffffffff1681565b60008290508073ffffffffffffffffffffffffffffffffffffffff166323b872dd8630876040518463ffffffff1660e01b8152600401808473ffffffffffffffffffffffffffffffffffffffff1681526020018373ffffffffffffffffffffffffffffffffffffffff1681526020018281526020019350505050602060405180830381600087803b158015610c7a57600080fd5b505af1158015610c8e573d6000803e3d6000fd5b505050506040513d6020811015610ca457600080fd5b8101908080519060200190929190505050610d27576040517f08c379a000000000000000000000000000000000000000000000000000000000815260040180806020018281038252601b8152602001807f455243323020746f6b656e207472616e73666572206661696c6564000000000081525060200191505060405180910390fd5b8273ffffffffffffffffffffffffffffffffffffffff168573ffffffffffffffffffffffffffffffffffffffff167fd65b48fd35864b3528d38e44760be5553248f89bf3ff6b06cca57817cc2650bf86856040518083815260200180602001828103825283818151815260200191508051906020019080838360005b83811015610dbe578082015181840152602081019050610da3565b50505050905090810190601f168015610deb5780820380516001836020036101000a031916815260200191505b50935050505060405180910390a3505050505056fe41757468656e746963617465642070726f787920616c726561647920696e697469616c697a656441757468656e746963617465642070726f78792063616e206f6e6c792062652063616c6c65642062792069747320757365722c206f72206279206120636f6e747261637420617574686f72697a656420627920746865207265676973747279206173206c6f6e6720617320746865207573657220686173206e6f74207265766f6b65642061636365737341757468656e746963617465642070726f78792063616e206f6e6c79206265207265766f6b6564206279206974732075736572a26469706673582212207a12a5a4a82c60be207a3cd01f29f6ebc3eedfeb782732363cd5cfddc2e96f8664736f6c63430007050033",
  "linkReferences": {},
  "deployedLinkReferences": {}
}