{
  "_format": "hh-sol-artifact-1",
  "contractName": "WyvernStatic",
  "sourceName": "contracts/WyvernStatic.sol",
  "abi": [
    {
      "inputs": [
        {
          "internalType": "address",
          "name": "atomicizerAddress",
          "type": "address"
        }
      ],
      "stateMutability": "nonpayable",
      "type": "constructor"
    },
    {
      "inputs": [
        {
          "internalType": "bytes",
          "name": "extra",
          "type": "bytes"
        },
        {
          "internalType": "address[7]",
          "name": "addresses",
          "type": "address[7]"
        },
        {
          "internalType": "enum AuthenticatedProxy.HowToCall[2]",
          "name": "howToCalls",
          "type": "uint8[2]"
        },
        {
          "internalType": "uint256[6]",
          "name": "uints",
          "type": "uint256[6]"
        },
        {
          "internalType": "bytes",
          "name": "data",
          "type": "bytes"
        },
        {
          "internalType": "bytes",
          "name": "counterdata",
          "type": "bytes"
        }
      ],
      "name": "and",
      "outputs": [],
      "stateMutability": "view",
      "type": "function"
    },
    {
      "inputs": [
        {
          "internalType": "bytes",
          "name": "",
          "type": "bytes"
        },
        {
          "internalType": "address[7]",
          "name": "",
          "type": "address[7]"
        },
        {
          "internalType": "enum AuthenticatedProxy.HowToCall[2]",
          "name": "",
          "type": "uint8[2]"
        },
        {
          "internalType": "uint256[6]",
          "name": "",
          "type": "uint256[6]"
        },
        {
          "internalType": "bytes",
          "name": "",
          "type": "bytes"
        },
        {
          "internalType": "bytes",
          "name": "",
          "type": "bytes"
        }
      ],
      "name": "any",
      "outputs": [
        {
          "internalType": "uint256",
          "name": "",
          "type": "uint256"
        }
      ],
      "stateMutability": "pure",
      "type": "function"
    },
    {
      "inputs": [
        {
          "internalType": "bytes",
          "name": "",
          "type": "bytes"
        },
        {
          "internalType": "address[7]",
          "name": "",
          "type": "address[7]"
        },
        {
          "internalType": "enum AuthenticatedProxy.HowToCall[2]",
          "name": "",
          "type": "uint8[2]"
        },
        {
          "internalType": "uint256[6]",
          "name": "uints",
          "type": "uint256[6]"
        },
        {
          "internalType": "bytes",
          "name": "",
          "type": "bytes"
        },
        {
          "internalType": "bytes",
          "name": "",
          "type": "bytes"
        }
      ],
      "name": "anyAddOne",
      "outputs": [
        {
          "internalType": "uint256",
          "name": "",
          "type": "uint256"
        }
      ],
      "stateMutability": "pure",
      "type": "function"
    },
    {
      "inputs": [
        {
          "internalType": "bytes",
          "name": "",
          "type": "bytes"
        },
        {
          "internalType": "address[7]",
          "name": "",
          "type": "address[7]"
        },
        {
          "internalType": "enum AuthenticatedProxy.HowToCall[2]",
          "name": "",
          "type": "uint8[2]"
        },
        {
          "internalType": "uint256[6]",
          "name": "",
          "type": "uint256[6]"
        },
        {
          "internalType": "bytes",
          "name": "",
          "type": "bytes"
        },
        {
          "internalType": "bytes",
          "name": "",
          "type": "bytes"
        }
      ],
      "name": "anyNoFill",
      "outputs": [
        {
          "internalType": "uint256",
          "name": "",
          "type": "uint256"
        }
      ],
      "stateMutability": "pure",
      "type": "function"
    },
    {
      "inputs": [
        {
          "internalType": "bytes",
          "name": "",
          "type": "bytes"
        },
        {
          "internalType": "address[7]",
          "name": "",
          "type": "address[7]"
        },
        {
          "internalType": "enum AuthenticatedProxy.HowToCall",
          "name": "",
          "type": "uint8"
        },
        {
          "internalType": "uint256[6]",
          "name": "",
          "type": "uint256[6]"
        },
        {
          "internalType": "bytes",
          "name": "",
          "type": "bytes"
        }
      ],
      "name": "anySingle",
      "outputs": [],
      "stateMutability": "pure",
      "type": "function"
    },
    {
      "inputs": [],
      "name": "atomicizer",
      "outputs": [
        {
          "internalType": "address",
          "name": "",
          "type": "address"
        }
      ],
      "stateMutability": "view",
      "type": "function"
    },
    {
      "inputs": [
        {
          "internalType": "bytes",
          "name": "extra",
          "type": "bytes"
        },
        {
          "internalType": "address[7]",
          "name": "addresses",
          "type": "address[7]"
        },
        {
          "internalType": "enum AuthenticatedProxy.HowToCall[2]",
          "name": "howToCalls",
          "type": "uint8[2]"
        },
        {
          "internalType": "uint256[6]",
          "name": "uints",
          "type": "uint256[6]"
        },
        {
          "internalType": "bytes",
          "name": "cdata",
          "type": "bytes"
        },
        {
          "internalType": "bytes",
          "name": "",
          "type": "bytes"
        }
      ],
      "name": "dumbSequenceExact",
      "outputs": [
        {
          "internalType": "uint256",
          "name": "",
          "type": "uint256"
        }
      ],
      "stateMutability": "view",
      "type": "function"
    },
    {
      "inputs": [],
      "name": "name",
      "outputs": [
        {
          "internalType": "string",
          "name": "",
          "type": "string"
        }
      ],
      "stateMutability": "view",
      "type": "function"
    },
    {
      "inputs": [
        {
          "internalType": "bytes",
          "name": "extra",
          "type": "bytes"
        },
        {
          "internalType": "address[7]",
          "name": "addresses",
          "type": "address[7]"
        },
        {
          "internalType": "enum AuthenticatedProxy.HowToCall[2]",
          "name": "howToCalls",
          "type": "uint8[2]"
        },
        {
          "internalType": "uint256[6]",
          "name": "uints",
          "type": "uint256[6]"
        },
        {
          "internalType": "bytes",
          "name": "data",
          "type": "bytes"
        },
        {
          "internalType": "bytes",
          "name": "counterdata",
          "type": "bytes"
        }
      ],
      "name": "or",
      "outputs": [],
      "stateMutability": "view",
      "type": "function"
    },
    {
      "inputs": [
        {
          "internalType": "bytes",
          "name": "extra",
          "type": "bytes"
        },
        {
          "internalType": "address[7]",
          "name": "addresses",
          "type": "address[7]"
        },
        {
          "internalType": "enum AuthenticatedProxy.HowToCall",
          "name": "howToCall",
          "type": "uint8"
        },
        {
          "internalType": "uint256[6]",
          "name": "uints",
          "type": "uint256[6]"
        },
        {
          "internalType": "bytes",
          "name": "cdata",
          "type": "bytes"
        }
      ],
      "name": "sequenceAnyAfter",
      "outputs": [],
      "stateMutability": "view",
      "type": "function"
    },
    {
      "inputs": [
        {
          "internalType": "bytes",
          "name": "extra",
          "type": "bytes"
        },
        {
          "internalType": "address[7]",
          "name": "addresses",
          "type": "address[7]"
        },
        {
          "internalType": "enum AuthenticatedProxy.HowToCall",
          "name": "howToCall",
          "type": "uint8"
        },
        {
          "internalType": "uint256[6]",
          "name": "uints",
          "type": "uint256[6]"
        },
        {
          "internalType": "bytes",
          "name": "cdata",
          "type": "bytes"
        }
      ],
      "name": "sequenceExact",
      "outputs": [],
      "stateMutability": "view",
      "type": "function"
    },
    {
      "inputs": [
        {
          "internalType": "bytes",
          "name": "extra",
          "type": "bytes"
        },
        {
          "internalType": "address[7]",
          "name": "addresses",
          "type": "address[7]"
        },
        {
          "internalType": "enum AuthenticatedProxy.HowToCall[2]",
          "name": "howToCalls",
          "type": "uint8[2]"
        },
        {
          "internalType": "uint256[6]",
          "name": "uints",
          "type": "uint256[6]"
        },
        {
          "internalType": "bytes",
          "name": "data",
          "type": "bytes"
        },
        {
          "internalType": "bytes",
          "name": "counterdata",
          "type": "bytes"
        }
      ],
      "name": "split",
      "outputs": [
        {
          "internalType": "uint256",
          "name": "",
          "type": "uint256"
        }
      ],
      "stateMutability": "view",
      "type": "function"
    },
    {
      "inputs": [
        {
          "internalType": "bytes",
          "name": "extra",
          "type": "bytes"
        },
        {
          "internalType": "address[7]",
          "name": "addresses",
          "type": "address[7]"
        },
        {
          "internalType": "enum AuthenticatedProxy.HowToCall[2]",
          "name": "howToCalls",
          "type": "uint8[2]"
        },
        {
          "internalType": "uint256[6]",
          "name": "uints",
          "type": "uint256[6]"
        },
        {
          "internalType": "bytes",
          "name": "data",
          "type": "bytes"
        },
        {
          "internalType": "bytes",
          "name": "counterdata",
          "type": "bytes"
        }
      ],
      "name": "splitAddOne",
      "outputs": [
        {
          "internalType": "uint256",
          "name": "",
          "type": "uint256"
        }
      ],
      "stateMutability": "view",
      "type": "function"
    },
    {
      "inputs": [
        {
          "internalType": "bytes",
          "name": "extra",
          "type": "bytes"
        },
        {
          "internalType": "address[7]",
          "name": "addresses",
          "type": "address[7]"
        },
        {
          "internalType": "enum AuthenticatedProxy.HowToCall[2]",
          "name": "howToCalls",
          "type": "uint8[2]"
        },
        {
          "internalType": "uint256[6]",
          "name": "uints",
          "type": "uint256[6]"
        },
        {
          "internalType": "bytes",
          "name": "data",
          "type": "bytes"
        },
        {
          "internalType": "bytes",
          "name": "counterdata",
          "type": "bytes"
        }
      ],
      "name": "swapExact",
      "outputs": [
        {
          "internalType": "uint256",
          "name": "",
          "type": "uint256"
        }
      ],
      "stateMutability": "pure",
      "type": "function"
    },
    {
      "inputs": [
        {
          "internalType": "bytes",
          "name": "extra",
          "type": "bytes"
        },
        {
          "internalType": "address[7]",
          "name": "addresses",
          "type": "address[7]"
        },
        {
          "internalType": "enum AuthenticatedProxy.HowToCall[2]",
          "name": "howToCalls",
          "type": "uint8[2]"
        },
        {
          "internalType": "uint256[6]",
          "name": "uints",
          "type": "uint256[6]"
        },
        {
          "internalType": "bytes",
          "name": "data",
          "type": "bytes"
        },
        {
          "internalType": "bytes",
          "name": "counterdata",
          "type": "bytes"
        }
      ],
      "name": "swapForever",
      "outputs": [
        {
          "internalType": "uint256",
          "name": "",
          "type": "uint256"
        }
      ],
      "stateMutability": "pure",
      "type": "function"
    },
    {
      "inputs": [
        {
          "internalType": "bytes",
          "name": "extra",
          "type": "bytes"
        },
        {
          "internalType": "address[7]",
          "name": "addresses",
          "type": "address[7]"
        },
        {
          "internalType": "enum AuthenticatedProxy.HowToCall[2]",
          "name": "howToCalls",
          "type": "uint8[2]"
        },
        {
          "internalType": "uint256[6]",
          "name": "uints",
          "type": "uint256[6]"
        },
        {
          "internalType": "bytes",
          "name": "data",
          "type": "bytes"
        },
        {
          "internalType": "bytes",
          "name": "counterdata",
          "type": "bytes"
        }
      ],
      "name": "swapOneForOneERC1155",
      "outputs": [
        {
          "internalType": "uint256",
          "name": "",
          "type": "uint256"
        }
      ],
      "stateMutability": "pure",
      "type": "function"
    },
    {
      "inputs": [
        {
          "internalType": "bytes",
          "name": "extra",
          "type": "bytes"
        },
        {
          "internalType": "address[7]",
          "name": "addresses",
          "type": "address[7]"
        },
        {
          "internalType": "enum AuthenticatedProxy.HowToCall[2]",
          "name": "howToCalls",
          "type": "uint8[2]"
        },
        {
          "internalType": "uint256[6]",
          "name": "uints",
          "type": "uint256[6]"
        },
        {
          "internalType": "bytes",
          "name": "data",
          "type": "bytes"
        },
        {
          "internalType": "bytes",
          "name": "counterdata",
          "type": "bytes"
        }
      ],
      "name": "swapOneForOneERC1155Decoding",
      "outputs": [
        {
          "internalType": "uint256",
          "name": "",
          "type": "uint256"
        }
      ],
      "stateMutability": "pure",
      "type": "function"
    },
    {
      "inputs": [
        {
          "internalType": "bytes",
          "name": "extra",
          "type": "bytes"
        },
        {
          "internalType": "address[7]",
          "name": "addresses",
          "type": "address[7]"
        },
        {
          "internalType": "enum AuthenticatedProxy.HowToCall[2]",
          "name": "howToCalls",
          "type": "uint8[2]"
        },
        {
          "internalType": "uint256[6]",
          "name": "uints",
          "type": "uint256[6]"
        },
        {
          "internalType": "bytes",
          "name": "data",
          "type": "bytes"
        },
        {
          "internalType": "bytes",
          "name": "counterdata",
          "type": "bytes"
        }
      ],
      "name": "swapOneForOneERC721",
      "outputs": [
        {
          "internalType": "uint256",
          "name": "",
          "type": "uint256"
        }
      ],
      "stateMutability": "pure",
      "type": "function"
    },
    {
      "inputs": [
        {
          "internalType": "bytes",
          "name": "extra",
          "type": "bytes"
        },
        {
          "internalType": "address[7]",
          "name": "addresses",
          "type": "address[7]"
        },
        {
          "internalType": "enum AuthenticatedProxy.HowToCall[2]",
          "name": "howToCalls",
          "type": "uint8[2]"
        },
        {
          "internalType": "uint256[6]",
          "name": "uints",
          "type": "uint256[6]"
        },
        {
          "internalType": "bytes",
          "name": "data",
          "type": "bytes"
        },
        {
          "internalType": "bytes",
          "name": "counterdata",
          "type": "bytes"
        }
      ],
      "name": "swapOneForOneERC721Decoding",
      "outputs": [
        {
          "internalType": "uint256",
          "name": "",
          "type": "uint256"
        }
      ],
      "stateMutability": "pure",
      "type": "function"
    },
    {
      "inputs": [],
      "name": "test",
      "outputs": [],
      "stateMutability": "pure",
      "type": "function"
    },
    {
      "inputs": [
        {
          "internalType": "bytes",
          "name": "extra",
          "type": "bytes"
        },
        {
          "internalType": "address[7]",
          "name": "addresses",
          "type": "address[7]"
        },
        {
          "internalType": "enum AuthenticatedProxy.HowToCall",
          "name": "howToCall",
          "type": "uint8"
        },
        {
          "internalType": "uint256[6]",
          "name": "",
          "type": "uint256[6]"
        },
        {
          "internalType": "bytes",
          "name": "data",
          "type": "bytes"
        }
      ],
      "name": "transferERC1155Exact",
      "outputs": [],
      "stateMutability": "pure",
      "type": "function"
    },
    {
      "inputs": [
        {
          "internalType": "bytes",
          "name": "extra",
          "type": "bytes"
        },
        {
          "internalType": "address[7]",
          "name": "addresses",
          "type": "address[7]"
        },
        {
          "internalType": "enum AuthenticatedProxy.HowToCall",
          "name": "howToCall",
          "type": "uint8"
        },
        {
          "internalType": "uint256[6]",
          "name": "",
          "type": "uint256[6]"
        },
        {
          "internalType": "bytes",
          "name": "data",
          "type": "bytes"
        }
      ],
      "name": "transferERC20Exact",
      "outputs": [],
      "stateMutability": "pure",
      "type": "function"
    },
    {
      "inputs": [
        {
          "internalType": "bytes",
          "name": "extra",
          "type": "bytes"
        },
        {
          "internalType": "address[7]",
          "name": "addresses",
          "type": "address[7]"
        },
        {
          "internalType": "enum AuthenticatedProxy.HowToCall",
          "name": "howToCall",
          "type": "uint8"
        },
        {
          "internalType": "uint256[6]",
          "name": "",
          "type": "uint256[6]"
        },
        {
          "internalType": "bytes",
          "name": "data",
          "type": "bytes"
        }
      ],
      "name": "transferERC721Exact",
      "outputs": [],
      "stateMutability": "pure",
      "type": "function"
    }
  ],
  "bytecode": "0x60806040523480156200001157600080fd5b50604051620082ab380380620082ab833981810160405260208110156200003757600080fd5b8101908080519060200190929190505050806000806101000a81548173ffffffffffffffffffffffffffffffffffffffff021916908373ffffffffffffffffffffffffffffffffffffffff1602179055505061821280620000996000396000f3fe608060405234801561001057600080fd5b506004361061014d5760003560e01c8063883ee430116100c3578063dcbcb5d91161007c578063dcbcb5d9146126e9578063ddf98cc214612996578063e1beb48414612c57578063ed94fc6614612f18578063f6280c86146130fa578063f8a8fd6d146133bb5761014d565b8063883ee43014611900578063a09858da14611bc1578063ac5cc03f14611e82578063b67bf13414612064578063b6c8184b14612246578063ba352743146124285761014d565b8063265a87e711610115578063265a87e714610a4c5780632e0b69db14610c2e5780634563928f14610e105780634e9413f9146110d15780637557ef981461137e578063837b54ad1461163f5761014d565b8063025b6d341461015257806306fdde03146104135780630d3b91d41461049657806320e9a818146104ca57806323f62d9c1461078b575b600080fd5b6103fd600480360361024081101561016957600080fd5b810190808035906020019064010000000081111561018657600080fd5b82018360208201111561019857600080fd5b803590602001918460018302840111640100000000831117156101ba57600080fd5b91908080601f016020809104026020016040519081016040528093929190818152602001838380828437600081840152601f19601f8201169050808301925050505050505091929192908060e001906007806020026040519081016040528092919082600760200280828437600081840152601f19601f820116905080830192505050505050919291929080604001906002806020026040519081016040528092919082600260200280828437600081840152601f19601f82011690508083019250505050505091929192908060c001906006806020026040519081016040528092919082600660200280828437600081840152601f19601f8201169050808301925050505050509192919290803590602001906401000000008111156102e057600080fd5b8201836020820111156102f257600080fd5b8035906020019184600183028401116401000000008311171561031457600080fd5b91908080601f016020809104026020016040519081016040528093929190818152602001838380828437600081840152601f19601f8201169050808301925050505050505091929192908035906020019064010000000081111561037757600080fd5b82018360208201111561038957600080fd5b803590602001918460018302840111640100000000831117156103ab57600080fd5b91908080601f016020809104026020016040519081016040528093929190818152602001838380828437600081840152601f19601f8201169050808301925050505050505091929192905050506133c5565b6040518082815260200191505060405180910390f35b61041b6133f3565b6040518080602001828103825283818151815260200191508051906020019080838360005b8381101561045b578082015181840152602081019050610440565b50505050905090810190601f1680156104885780820380516001836020036101000a031916815260200191505b509250505060405180910390f35b61049e61342c565b604051808273ffffffffffffffffffffffffffffffffffffffff16815260200191505060405180910390f35b61077560048036036102408110156104e157600080fd5b81019080803590602001906401000000008111156104fe57600080fd5b82018360208201111561051057600080fd5b8035906020019184600183028401116401000000008311171561053257600080fd5b91908080601f016020809104026020016040519081016040528093929190818152602001838380828437600081840152601f19601f8201169050808301925050505050505091929192908060e001906007806020026040519081016040528092919082600760200280828437600081840152601f19601f820116905080830192505050505050919291929080604001906002806020026040519081016040528092919082600260200280828437600081840152601f19601f82011690508083019250505050505091929192908060c001906006806020026040519081016040528092919082600660200280828437600081840152601f19601f82011690508083019250505050505091929192908035906020019064010000000081111561065857600080fd5b82018360208201111561066a57600080fd5b8035906020019184600183028401116401000000008311171561068c57600080fd5b91908080601f016020809104026020016040519081016040528093929190818152602001838380828437600081840152601f19601f820116905080830192505050505050509192919290803590602001906401000000008111156106ef57600080fd5b82018360208201111561070157600080fd5b8035906020019184600183028401116401000000008311171561072357600080fd5b91908080601f016020809104026020016040519081016040528093929190818152602001838380828437600081840152601f19601f820116905080830192505050505050509192919290505050613450565b6040518082815260200191505060405180910390f35b610a3660048036036102408110156107a257600080fd5b81019080803590602001906401000000008111156107bf57600080fd5b8201836020820111156107d157600080fd5b803590602001918460018302840111640100000000831117156107f357600080fd5b91908080601f016020809104026020016040519081016040528093929190818152602001838380828437600081840152601f19601f8201169050808301925050505050505091929192908060e001906007806020026040519081016040528092919082600760200280828437600081840152601f19601f820116905080830192505050505050919291929080604001906002806020026040519081016040528092919082600260200280828437600081840152601f19601f82011690508083019250505050505091929192908060c001906006806020026040519081016040528092919082600660200280828437600081840152601f19601f82011690508083019250505050505091929192908035906020019064010000000081111561091957600080fd5b82018360208201111561092b57600080fd5b8035906020019184600183028401116401000000008311171561094d57600080fd5b91908080601f016020809104026020016040519081016040528093929190818152602001838380828437600081840152601f19601f820116905080830192505050505050509192919290803590602001906401000000008111156109b057600080fd5b8201836020820111156109c257600080fd5b803590602001918460018302840111640100000000831117156109e457600080fd5b91908080601f016020809104026020016040519081016040528093929190818152602001838380828437600081840152601f19601f820116905080830192505050505050509192919290505050613be1565b6040518082815260200191505060405180910390f35b610c2c6004803603610200811015610a6357600080fd5b8101908080359060200190640100000000811115610a8057600080fd5b820183602082011115610a9257600080fd5b80359060200191846001830284011164010000000083111715610ab457600080fd5b91908080601f016020809104026020016040519081016040528093929190818152602001838380828437600081840152601f19601f8201169050808301925050505050505091929192908060e001906007806020026040519081016040528092919082600760200280828437600081840152601f19601f8201169050808301925050505050509192919290803560ff1690602001909291908060c001906006806020026040519081016040528092919082600660200280828437600081840152601f19601f820116905080830192505050505050919291929080359060200190640100000000811115610ba657600080fd5b820183602082011115610bb857600080fd5b80359060200191846001830284011164010000000083111715610bda57600080fd5b91908080601f016020809104026020016040519081016040528093929190818152602001838380828437600081840152601f19601f820116905080830192505050505050509192919290505050613f81565b005b610e0e6004803603610200811015610c4557600080fd5b8101908080359060200190640100000000811115610c6257600080fd5b820183602082011115610c7457600080fd5b80359060200191846001830284011164010000000083111715610c9657600080fd5b91908080601f016020809104026020016040519081016040528093929190818152602001838380828437600081840152601f19601f8201169050808301925050505050505091929192908060e001906007806020026040519081016040528092919082600760200280828437600081840152601f19601f8201169050808301925050505050509192919290803560ff1690602001909291908060c001906006806020026040519081016040528092919082600660200280828437600081840152601f19601f820116905080830192505050505050919291929080359060200190640100000000811115610d8857600080fd5b820183602082011115610d9a57600080fd5b80359060200191846001830284011164010000000083111715610dbc57600080fd5b91908080601f016020809104026020016040519081016040528093929190818152602001838380828437600081840152601f19601f82011690508083019250505050505050919291929050505061412b565b005b6110bb6004803603610240811015610e2757600080fd5b8101908080359060200190640100000000811115610e4457600080fd5b820183602082011115610e5657600080fd5b80359060200191846001830284011164010000000083111715610e7857600080fd5b91908080601f016020809104026020016040519081016040528093929190818152602001838380828437600081840152601f19601f8201169050808301925050505050505091929192908060e001906007806020026040519081016040528092919082600760200280828437600081840152601f19601f820116905080830192505050505050919291929080604001906002806020026040519081016040528092919082600260200280828437600081840152601f19601f82011690508083019250505050505091929192908060c001906006806020026040519081016040528092919082600660200280828437600081840152601f19601f820116905080830192505050505050919291929080359060200190640100000000811115610f9e57600080fd5b820183602082011115610fb057600080fd5b80359060200191846001830284011164010000000083111715610fd257600080fd5b91908080601f016020809104026020016040519081016040528093929190818152602001838380828437600081840152601f19601f8201169050808301925050505050505091929192908035906020019064010000000081111561103557600080fd5b82018360208201111561104757600080fd5b8035906020019184600183028401116401000000008311171561106957600080fd5b91908080601f016020809104026020016040519081016040528093929190818152602001838380828437600081840152601f19601f820116905080830192505050505050509192919290505050614300565b6040518082815260200191505060405180910390f35b61137c60048036036102408110156110e857600080fd5b810190808035906020019064010000000081111561110557600080fd5b82018360208201111561111757600080fd5b8035906020019184600183028401116401000000008311171561113957600080fd5b91908080601f016020809104026020016040519081016040528093929190818152602001838380828437600081840152601f19601f8201169050808301925050505050505091929192908060e001906007806020026040519081016040528092919082600760200280828437600081840152601f19601f820116905080830192505050505050919291929080604001906002806020026040519081016040528092919082600260200280828437600081840152601f19601f82011690508083019250505050505091929192908060c001906006806020026040519081016040528092919082600660200280828437600081840152601f19601f82011690508083019250505050505091929192908035906020019064010000000081111561125f57600080fd5b82018360208201111561127157600080fd5b8035906020019184600183028401116401000000008311171561129357600080fd5b91908080601f016020809104026020016040519081016040528093929190818152602001838380828437600081840152601f19601f820116905080830192505050505050509192919290803590602001906401000000008111156112f657600080fd5b82018360208201111561130857600080fd5b8035906020019184600183028401116401000000008311171561132a57600080fd5b91908080601f016020809104026020016040519081016040528093929190818152602001838380828437600081840152601f19601f82011690508083019250505050505050919291929050505061490f565b005b611629600480360361024081101561139557600080fd5b81019080803590602001906401000000008111156113b257600080fd5b8201836020820111156113c457600080fd5b803590602001918460018302840111640100000000831117156113e657600080fd5b91908080601f016020809104026020016040519081016040528093929190818152602001838380828437600081840152601f19601f8201169050808301925050505050505091929192908060e001906007806020026040519081016040528092919082600760200280828437600081840152601f19601f820116905080830192505050505050919291929080604001906002806020026040519081016040528092919082600260200280828437600081840152601f19601f82011690508083019250505050505091929192908060c001906006806020026040519081016040528092919082600660200280828437600081840152601f19601f82011690508083019250505050505091929192908035906020019064010000000081111561150c57600080fd5b82018360208201111561151e57600080fd5b8035906020019184600183028401116401000000008311171561154057600080fd5b91908080601f016020809104026020016040519081016040528093929190818152602001838380828437600081840152601f19601f820116905080830192505050505050509192919290803590602001906401000000008111156115a357600080fd5b8201836020820111156115b557600080fd5b803590602001918460018302840111640100000000831117156115d757600080fd5b91908080601f016020809104026020016040519081016040528093929190818152602001838380828437600081840152601f19601f820116905080830192505050505050509192919290505050614f3b565b6040518082815260200191505060405180910390f35b6118ea600480360361024081101561165657600080fd5b810190808035906020019064010000000081111561167357600080fd5b82018360208201111561168557600080fd5b803590602001918460018302840111640100000000831117156116a757600080fd5b91908080601f016020809104026020016040519081016040528093929190818152602001838380828437600081840152601f19601f8201169050808301925050505050505091929192908060e001906007806020026040519081016040528092919082600760200280828437600081840152601f19601f820116905080830192505050505050919291929080604001906002806020026040519081016040528092919082600260200280828437600081840152601f19601f82011690508083019250505050505091929192908060c001906006806020026040519081016040528092919082600660200280828437600081840152601f19601f8201169050808301925050505050509192919290803590602001906401000000008111156117cd57600080fd5b8201836020820111156117df57600080fd5b8035906020019184600183028401116401000000008311171561180157600080fd5b91908080601f016020809104026020016040519081016040528093929190818152602001838380828437600081840152601f19601f8201169050808301925050505050505091929192908035906020019064010000000081111561186457600080fd5b82018360208201111561187657600080fd5b8035906020019184600183028401116401000000008311171561189857600080fd5b91908080601f016020809104026020016040519081016040528093929190818152602001838380828437600081840152601f19601f820116905080830192505050505050509192919290505050615400565b6040518082815260200191505060405180910390f35b611bab600480360361024081101561191757600080fd5b810190808035906020019064010000000081111561193457600080fd5b82018360208201111561194657600080fd5b8035906020019184600183028401116401000000008311171561196857600080fd5b91908080601f016020809104026020016040519081016040528093929190818152602001838380828437600081840152601f19601f8201169050808301925050505050505091929192908060e001906007806020026040519081016040528092919082600760200280828437600081840152601f19601f820116905080830192505050505050919291929080604001906002806020026040519081016040528092919082600260200280828437600081840152601f19601f82011690508083019250505050505091929192908060c001906006806020026040519081016040528092919082600660200280828437600081840152601f19601f820116905080830192505050505050919291929080359060200190640100000000811115611a8e57600080fd5b820183602082011115611aa057600080fd5b80359060200191846001830284011164010000000083111715611ac257600080fd5b91908080601f016020809104026020016040519081016040528093929190818152602001838380828437600081840152601f19601f82011690508083019250505050505050919291929080359060200190640100000000811115611b2557600080fd5b820183602082011115611b3757600080fd5b80359060200191846001830284011164010000000083111715611b5957600080fd5b91908080601f016020809104026020016040519081016040528093929190818152602001838380828437600081840152601f19601f820116905080830192505050505050509192919290505050615410565b6040518082815260200191505060405180910390f35b611e6c6004803603610240811015611bd857600080fd5b8101908080359060200190640100000000811115611bf557600080fd5b820183602082011115611c0757600080fd5b80359060200191846001830284011164010000000083111715611c2957600080fd5b91908080601f016020809104026020016040519081016040528093929190818152602001838380828437600081840152601f19601f8201169050808301925050505050505091929192908060e001906007806020026040519081016040528092919082600760200280828437600081840152601f19601f820116905080830192505050505050919291929080604001906002806020026040519081016040528092919082600260200280828437600081840152601f19601f82011690508083019250505050505091929192908060c001906006806020026040519081016040528092919082600660200280828437600081840152601f19601f820116905080830192505050505050919291929080359060200190640100000000811115611d4f57600080fd5b820183602082011115611d6157600080fd5b80359060200191846001830284011164010000000083111715611d8357600080fd5b91908080601f016020809104026020016040519081016040528093929190818152602001838380828437600081840152601f19601f82011690508083019250505050505050919291929080359060200190640100000000811115611de657600080fd5b820183602082011115611df857600080fd5b80359060200191846001830284011164010000000083111715611e1a57600080fd5b91908080601f016020809104026020016040519081016040528093929190818152602001838380828437600081840152601f19601f820116905080830192505050505050509192919290505050615991565b6040518082815260200191505060405180910390f35b6120626004803603610200811015611e9957600080fd5b8101908080359060200190640100000000811115611eb657600080fd5b820183602082011115611ec857600080fd5b80359060200191846001830284011164010000000083111715611eea57600080fd5b91908080601f016020809104026020016040519081016040528093929190818152602001838380828437600081840152601f19601f8201169050808301925050505050505091929192908060e001906007806020026040519081016040528092919082600760200280828437600081840152601f19601f8201169050808301925050505050509192919290803560ff1690602001909291908060c001906006806020026040519081016040528092919082600660200280828437600081840152601f19601f820116905080830192505050505050919291929080359060200190640100000000811115611fdc57600080fd5b820183602082011115611fee57600080fd5b8035906020019184600183028401116401000000008311171561201057600080fd5b91908080601f016020809104026020016040519081016040528093929190818152602001838380828437600081840152601f19601f8201169050808301925050505050505091929192905050506159b4565b005b612244600480360361020081101561207b57600080fd5b810190808035906020019064010000000081111561209857600080fd5b8201836020820111156120aa57600080fd5b803590602001918460018302840111640100000000831117156120cc57600080fd5b91908080601f016020809104026020016040519081016040528093929190818152602001838380828437600081840152601f19601f8201169050808301925050505050505091929192908060e001906007806020026040519081016040528092919082600760200280828437600081840152601f19601f8201169050808301925050505050509192919290803560ff1690602001909291908060c001906006806020026040519081016040528092919082600660200280828437600081840152601f19601f8201169050808301925050505050509192919290803590602001906401000000008111156121be57600080fd5b8201836020820111156121d057600080fd5b803590602001918460018302840111640100000000831117156121f257600080fd5b91908080601f016020809104026020016040519081016040528093929190818152602001838380828437600081840152601f19601f820116905080830192505050505050509192919290505050615fed565b005b612426600480360361020081101561225d57600080fd5b810190808035906020019064010000000081111561227a57600080fd5b82018360208201111561228c57600080fd5b803590602001918460018302840111640100000000831117156122ae57600080fd5b91908080601f016020809104026020016040519081016040528093929190818152602001838380828437600081840152601f19601f8201169050808301925050505050505091929192908060e001906007806020026040519081016040528092919082600760200280828437600081840152601f19601f8201169050808301925050505050509192919290803560ff1690602001909291908060c001906006806020026040519081016040528092919082600660200280828437600081840152601f19601f8201169050808301925050505050509192919290803590602001906401000000008111156123a057600080fd5b8201836020820111156123b257600080fd5b803590602001918460018302840111640100000000831117156123d457600080fd5b91908080601f016020809104026020016040519081016040528093929190818152602001838380828437600081840152601f19601f820116905080830192505050505050509192919290505050615ff4565b005b6126d3600480360361024081101561243f57600080fd5b810190808035906020019064010000000081111561245c57600080fd5b82018360208201111561246e57600080fd5b8035906020019184600183028401116401000000008311171561249057600080fd5b91908080601f016020809104026020016040519081016040528093929190818152602001838380828437600081840152601f19601f8201169050808301925050505050505091929192908060e001906007806020026040519081016040528092919082600760200280828437600081840152601f19601f820116905080830192505050505050919291929080604001906002806020026040519081016040528092919082600260200280828437600081840152601f19601f82011690508083019250505050505091929192908060c001906006806020026040519081016040528092919082600660200280828437600081840152601f19601f8201169050808301925050505050509192919290803590602001906401000000008111156125b657600080fd5b8201836020820111156125c857600080fd5b803590602001918460018302840111640100000000831117156125ea57600080fd5b91908080601f016020809104026020016040519081016040528093929190818152602001838380828437600081840152601f19601f8201169050808301925050505050505091929192908035906020019064010000000081111561264d57600080fd5b82018360208201111561265f57600080fd5b8035906020019184600183028401116401000000008311171561268157600080fd5b91908080601f016020809104026020016040519081016040528093929190818152602001838380828437600081840152601f19601f82011690508083019250505050505050919291929050505061619e565b6040518082815260200191505060405180910390f35b612994600480360361024081101561270057600080fd5b810190808035906020019064010000000081111561271d57600080fd5b82018360208201111561272f57600080fd5b8035906020019184600183028401116401000000008311171561275157600080fd5b91908080601f016020809104026020016040519081016040528093929190818152602001838380828437600081840152601f19601f8201169050808301925050505050505091929192908060e001906007806020026040519081016040528092919082600760200280828437600081840152601f19601f820116905080830192505050505050919291929080604001906002806020026040519081016040528092919082600260200280828437600081840152601f19601f82011690508083019250505050505091929192908060c001906006806020026040519081016040528092919082600660200280828437600081840152601f19601f82011690508083019250505050505091929192908035906020019064010000000081111561287757600080fd5b82018360208201111561288957600080fd5b803590602001918460018302840111640100000000831117156128ab57600080fd5b91908080601f016020809104026020016040519081016040528093929190818152602001838380828437600081840152601f19601f8201169050808301925050505050505091929192908035906020019064010000000081111561290e57600080fd5b82018360208201111561292057600080fd5b8035906020019184600183028401116401000000008311171561294257600080fd5b91908080601f016020809104026020016040519081016040528093929190818152602001838380828437600081840152601f19601f82011690508083019250505050505050919291929050505061666e565b005b612c4160048036036102408110156129ad57600080fd5b81019080803590602001906401000000008111156129ca57600080fd5b8201836020820111156129dc57600080fd5b803590602001918460018302840111640100000000831117156129fe57600080fd5b91908080601f016020809104026020016040519081016040528093929190818152602001838380828437600081840152601f19601f8201169050808301925050505050505091929192908060e001906007806020026040519081016040528092919082600760200280828437600081840152601f19601f820116905080830192505050505050919291929080604001906002806020026040519081016040528092919082600260200280828437600081840152601f19601f82011690508083019250505050505091929192908060c001906006806020026040519081016040528092919082600660200280828437600081840152601f19601f820116905080830192505050505050919291929080359060200190640100000000811115612b2457600080fd5b820183602082011115612b3657600080fd5b80359060200191846001830284011164010000000083111715612b5857600080fd5b91908080601f016020809104026020016040519081016040528093929190818152602001838380828437600081840152601f19601f82011690508083019250505050505050919291929080359060200190640100000000811115612bbb57600080fd5b820183602082011115612bcd57600080fd5b80359060200191846001830284011164010000000083111715612bef57600080fd5b91908080601f016020809104026020016040519081016040528093929190818152602001838380828437600081840152601f19601f820116905080830192505050505050509192919290505050616d57565b6040518082815260200191505060405180910390f35b612f026004803603610240811015612c6e57600080fd5b8101908080359060200190640100000000811115612c8b57600080fd5b820183602082011115612c9d57600080fd5b80359060200191846001830284011164010000000083111715612cbf57600080fd5b91908080601f016020809104026020016040519081016040528093929190818152602001838380828437600081840152601f19601f8201169050808301925050505050505091929192908060e001906007806020026040519081016040528092919082600760200280828437600081840152601f19601f820116905080830192505050505050919291929080604001906002806020026040519081016040528092919082600260200280828437600081840152601f19601f82011690508083019250505050505091929192908060c001906006806020026040519081016040528092919082600660200280828437600081840152601f19601f820116905080830192505050505050919291929080359060200190640100000000811115612de557600080fd5b820183602082011115612df757600080fd5b80359060200191846001830284011164010000000083111715612e1957600080fd5b91908080601f016020809104026020016040519081016040528093929190818152602001838380828437600081840152601f19601f82011690508083019250505050505050919291929080359060200190640100000000811115612e7c57600080fd5b820183602082011115612e8e57600080fd5b80359060200191846001830284011164010000000083111715612eb057600080fd5b91908080601f016020809104026020016040519081016040528093929190818152602001838380828437600081840152601f19601f820116905080830192505050505050509192919290505050616d89565b6040518082815260200191505060405180910390f35b6130f86004803603610200811015612f2f57600080fd5b8101908080359060200190640100000000811115612f4c57600080fd5b820183602082011115612f5e57600080fd5b80359060200191846001830284011164010000000083111715612f8057600080fd5b91908080601f016020809104026020016040519081016040528093929190818152602001838380828437600081840152601f19601f8201169050808301925050505050505091929192908060e001906007806020026040519081016040528092919082600760200280828437600081840152601f19601f8201169050808301925050505050509192919290803560ff1690602001909291908060c001906006806020026040519081016040528092919082600660200280828437600081840152601f19601f82011690508083019250505050505091929192908035906020019064010000000081111561307257600080fd5b82018360208201111561308457600080fd5b803590602001918460018302840111640100000000831117156130a657600080fd5b91908080601f016020809104026020016040519081016040528093929190818152602001838380828437600081840152601f19601f820116905080830192505050505050509192919290505050616d95565b005b6133a5600480360361024081101561311157600080fd5b810190808035906020019064010000000081111561312e57600080fd5b82018360208201111561314057600080fd5b8035906020019184600183028401116401000000008311171561316257600080fd5b91908080601f016020809104026020016040519081016040528093929190818152602001838380828437600081840152601f19601f8201169050808301925050505050505091929192908060e001906007806020026040519081016040528092919082600760200280828437600081840152601f19601f820116905080830192505050505050919291929080604001906002806020026040519081016040528092919082600260200280828437600081840152601f19601f82011690508083019250505050505091929192908060c001906006806020026040519081016040528092919082600660200280828437600081840152601f19601f82011690508083019250505050505091929192908035906020019064010000000081111561328857600080fd5b82018360208201111561329a57600080fd5b803590602001918460018302840111640100000000831117156132bc57600080fd5b91908080601f016020809104026020016040519081016040528093929190818152602001838380828437600081840152601f19601f8201169050808301925050505050505091929192908035906020019064010000000081111561331f57600080fd5b82018360208201111561333157600080fd5b8035906020019184600183028401116401000000008311171561335357600080fd5b91908080601f016020809104026020016040519081016040528093929190818152602001838380828437600081840152601f19601f8201169050808301925050505050505091929192905050506173cf565b6040518082815260200191505060405180910390f35b6133c3617827565b005b60006133e58787876000600281106133d957fe5b602002015187876159b4565b600190509695505050505050565b6040518060400160405280600d81526020017f57797665726e205374617469630000000000000000000000000000000000000081525081565b60008054906101000a900473ffffffffffffffffffffffffffffffffffffffff1681565b600061345a617f41565b613462617f63565b6060808a80602001905160c081101561347a57600080fd5b81019080919082604001919082604001805160405193929190846401000000008211156134a657600080fd5b838201915060208201858111156134bc57600080fd5b82518660018202830111640100000000821117156134d957600080fd5b8083526020830192505050908051906020019080838360005b8381101561350d5780820151818401526020810190506134f2565b50505050905090810190601f16801561353a5780820380516001836020036101000a031916815260200191505b506040526020018051604051939291908464010000000082111561355d57600080fd5b8382019150602082018581111561357357600080fd5b825186600182028301116401000000008211171561359057600080fd5b8083526020830192505050908051906020019080838360005b838110156135c45780820151818401526020810190506135a9565b50505050905090810190601f1680156135f15780820380516001836020036101000a031916815260200191505b5060405250505093509350935093506137f08460006002811061361057fe5b60200201518460006002811061362257fe5b6020020151848d8d60006002811061363657fe5b60200201518d8d604051602401808060200186600760200280838360005b8381101561366f578082015181840152602081019050613654565b5050505090500185600181111561368257fe5b815260200184600660200280838360005b838110156136ae578082015181840152602081019050613693565b5050505090500180602001838103835288818151815260200191508051906020019080838360005b838110156136f15780820151818401526020810190506136d6565b50505050905090810190601f16801561371e5780820380516001836020036101000a031916815260200191505b50838103825284818151815260200191508051906020019080838360005b8381101561375757808201518184015260208101905061373c565b50505050905090810190601f1680156137845780820380516001836020036101000a031916815260200191505b50975050505050505050604051602081830303815290604052907bffffffffffffffffffffffffffffffffffffffffffffffffffffffff19166020820180517bffffffffffffffffffffffffffffffffffffffffffffffffffffffff8381831617835250505050617829565b6137f957600080fd5b613bc68460016002811061380957fe5b60200201518460016002811061381b57fe5b6020020151836040518060e001604052808f60036007811061383957fe5b602002015173ffffffffffffffffffffffffffffffffffffffff1673ffffffffffffffffffffffffffffffffffffffff1681526020018f60046007811061387c57fe5b602002015173ffffffffffffffffffffffffffffffffffffffff1673ffffffffffffffffffffffffffffffffffffffff1681526020018f6005600781106138bf57fe5b602002015173ffffffffffffffffffffffffffffffffffffffff1673ffffffffffffffffffffffffffffffffffffffff1681526020018f60006007811061390257fe5b602002015173ffffffffffffffffffffffffffffffffffffffff1673ffffffffffffffffffffffffffffffffffffffff1681526020018f60016007811061394557fe5b602002015173ffffffffffffffffffffffffffffffffffffffff1673ffffffffffffffffffffffffffffffffffffffff1681526020018f60026007811061398857fe5b602002015173ffffffffffffffffffffffffffffffffffffffff1673ffffffffffffffffffffffffffffffffffffffff1681526020018f6006600781106139cb57fe5b602002015173ffffffffffffffffffffffffffffffffffffffff1673ffffffffffffffffffffffffffffffffffffffff168152508d600160028110613a0c57fe5b60200201518d8c604051602401808060200186600760200280838360005b83811015613a45578082015181840152602081019050613a2a565b50505050905001856001811115613a5857fe5b815260200184600660200280838360005b83811015613a84578082015181840152602081019050613a69565b5050505090500180602001838103835288818151815260200191508051906020019080838360005b83811015613ac7578082015181840152602081019050613aac565b50505050905090810190601f168015613af45780820380516001836020036101000a031916815260200191505b50838103825284818151815260200191508051906020019080838360005b83811015613b2d578082015181840152602081019050613b12565b50505050905090810190601f168015613b5a5780820380516001836020036101000a031916815260200191505b50975050505050505050604051602081830303815290604052907bffffffffffffffffffffffffffffffffffffffffffffffffffffffff19166020820180517bffffffffffffffffffffffffffffffffffffffffffffffffffffffff8381831617835250505050617829565b613bcf57600080fd5b60019450505050509695505050505050565b60008084600060068110613bf157fe5b602002015114613c0057600080fd5b613c08617f41565b613c10617f85565b888060200190516080811015613c2557600080fd5b81019080919082604001919050509150915081600060028110613c4457fe5b602002015173ffffffffffffffffffffffffffffffffffffffff1688600260078110613c6c57fe5b602002015173ffffffffffffffffffffffffffffffffffffffff1614613c9157600080fd5b60006001811115613c9e57fe5b87600060028110613cab57fe5b60200201516001811115613cbb57fe5b14613cc557600080fd5b613dcb8589600160078110613cd657fe5b60200201518a600460078110613ce857fe5b602002015184600060028110613cfa57fe5b6020020151604051602401808473ffffffffffffffffffffffffffffffffffffffff1681526020018373ffffffffffffffffffffffffffffffffffffffff16815260200182815260200193505050506040516020818303038152906040527f23b872dd000000000000000000000000000000000000000000000000000000007bffffffffffffffffffffffffffffffffffffffffffffffffffffffff19166020820180517bffffffffffffffffffffffffffffffffffffffffffffffffffffffff8381831617835250505050617840565b613dd457600080fd5b81600160028110613de157fe5b602002015173ffffffffffffffffffffffffffffffffffffffff1688600560078110613e0957fe5b602002015173ffffffffffffffffffffffffffffffffffffffff1614613e2e57600080fd5b60006001811115613e3b57fe5b87600160028110613e4857fe5b60200201516001811115613e5857fe5b14613e6257600080fd5b613f688489600460078110613e7357fe5b60200201518a600160078110613e8557fe5b602002015184600160028110613e9757fe5b6020020151604051602401808473ffffffffffffffffffffffffffffffffffffffff1681526020018373ffffffffffffffffffffffffffffffffffffffff16815260200182815260200193505050506040516020818303038152906040527f23b872dd000000000000000000000000000000000000000000000000000000007bffffffffffffffffffffffffffffffffffffffffffffffffffffffff19166020820180517bffffffffffffffffffffffffffffffffffffffffffffffffffffffff8381831617835250505050617840565b613f7157600080fd5b6001925050509695505050505050565b600080868060200190516040811015613f9957600080fd5b810190808051906020019092919080519060200190929190505050915091508173ffffffffffffffffffffffffffffffffffffffff1686600260078110613fdc57fe5b602002015173ffffffffffffffffffffffffffffffffffffffff161461400157600080fd5b6000600181111561400e57fe5b85600181111561401a57fe5b1461402457600080fd5b614119838760016007811061403557fe5b60200201518860046007811061404757fe5b602002015184604051602401808473ffffffffffffffffffffffffffffffffffffffff1681526020018373ffffffffffffffffffffffffffffffffffffffff16815260200182815260200193505050506040516020818303038152906040527f23b872dd000000000000000000000000000000000000000000000000000000007bffffffffffffffffffffffffffffffffffffffffffffffffffffffff19166020820180517bffffffffffffffffffffffffffffffffffffffffffffffffffffffff8381831617835250505050617840565b61412257600080fd5b50505050505050565b600080600087806020019051606081101561414557600080fd5b810190808051906020019092919080519060200190929190805190602001909291905050509250925092508273ffffffffffffffffffffffffffffffffffffffff168760026007811061419457fe5b602002015173ffffffffffffffffffffffffffffffffffffffff16146141b957600080fd5b600060018111156141c657fe5b8660018111156141d257fe5b146141dc57600080fd5b6142ed84886001600781106141ed57fe5b6020020151896004600781106141ff57fe5b60200201518585604051602401808573ffffffffffffffffffffffffffffffffffffffff1681526020018473ffffffffffffffffffffffffffffffffffffffff16815260200183815260200182815260200180602001828103825260008152602001602001955050505050506040516020818303038152906040527ff242432a000000000000000000000000000000000000000000000000000000007bffffffffffffffffffffffffffffffffffffffffffffffffffffffff19166020820180517bffffffffffffffffffffffffffffffffffffffffffffffffffffffff8381831617835250505050617840565b6142f657600080fd5b5050505050505050565b6000808460006006811061431057fe5b60200201511461431f57600080fd5b614327617f41565b61432f617f85565b614337617f85565b8980602001905160c081101561434c57600080fd5b81019080919082604001919082604001919050509250925092508260006002811061437357fe5b602002015173ffffffffffffffffffffffffffffffffffffffff168960026007811061439b57fe5b602002015173ffffffffffffffffffffffffffffffffffffffff161461440c576040517f08c379a000000000000000000000000000000000000000000000000000000000815260040180806020018281038252603881526020018061810e6038913960400191505060405180910390fd5b60008160006002811061441b57fe5b602002015111614476576040517f08c379a000000000000000000000000000000000000000000000000000000000815260040180806020018281038252602d815260200180618183602d913960400191505060405180910390fd5b6000600181111561448357fe5b8860006002811061449057fe5b602002015160018111156144a057fe5b146144f6576040517f08c379a0000000000000000000000000000000000000000000000000000000008152600401808060200182810382526023815260200180617fe66023913960400191505060405180910390fd5b614629868a60016007811061450757fe5b60200201518b60046007811061451957fe5b60200201518560006002811061452b57fe5b60200201518560006002811061453d57fe5b6020020151604051602401808573ffffffffffffffffffffffffffffffffffffffff1681526020018473ffffffffffffffffffffffffffffffffffffffff16815260200183815260200182815260200180602001828103825260008152602001602001955050505050506040516020818303038152906040527ff242432a000000000000000000000000000000000000000000000000000000007bffffffffffffffffffffffffffffffffffffffffffffffffffffffff19166020820180517bffffffffffffffffffffffffffffffffffffffffffffffffffffffff8381831617835250505050617840565b61463257600080fd5b8260016002811061463f57fe5b602002015173ffffffffffffffffffffffffffffffffffffffff168960056007811061466757fe5b602002015173ffffffffffffffffffffffffffffffffffffffff16146146d8576040517f08c379a000000000000000000000000000000000000000000000000000000000815260040180806020018281038252603e815260200180617fa8603e913960400191505060405180910390fd5b6000816001600281106146e757fe5b602002015111614742576040517f08c379a000000000000000000000000000000000000000000000000000000000815260040180806020018281038252602d8152602001806181b0602d913960400191505060405180910390fd5b6000600181111561474f57fe5b8860016002811061475c57fe5b6020020151600181111561476c57fe5b146147c2576040517f08c379a000000000000000000000000000000000000000000000000000000000815260040180806020018281038252602a8152602001806180e4602a913960400191505060405180910390fd5b6148f5858a6004600781106147d357fe5b60200201518b6001600781106147e557fe5b6020020151856001600281106147f757fe5b60200201518560016002811061480957fe5b6020020151604051602401808573ffffffffffffffffffffffffffffffffffffffff1681526020018473ffffffffffffffffffffffffffffffffffffffff16815260200183815260200182815260200180602001828103825260008152602001602001955050505050506040516020818303038152906040527ff242432a000000000000000000000000000000000000000000000000000000007bffffffffffffffffffffffffffffffffffffffffffffffffffffffff19166020820180517bffffffffffffffffffffffffffffffffffffffffffffffffffffffff8381831617835250505050617840565b6148fe57600080fd5b600193505050509695505050505050565b60608060608089806020019051608081101561492a57600080fd5b810190808051604051939291908464010000000082111561494a57600080fd5b8382019150602082018581111561496057600080fd5b825186602082028301116401000000008211171561497d57600080fd5b8083526020830192505050908051906020019060200280838360005b838110156149b4578082015181840152602081019050614999565b50505050905001604052602001805160405193929190846401000000008211156149dd57600080fd5b838201915060208201858111156149f357600080fd5b8251866020820283011164010000000082111715614a1057600080fd5b8083526020830192505050908051906020019060200280838360005b83811015614a47578082015181840152602081019050614a2c565b5050505090500160405260200180516040519392919084640100000000821115614a7057600080fd5b83820191506020820185811115614a8657600080fd5b8251866020820283011164010000000082111715614aa357600080fd5b8083526020830192505050908051906020019060200280838360005b83811015614ada578082015181840152602081019050614abf565b5050505090500160405260200180516040519392919084640100000000821115614b0357600080fd5b83820191506020820185811115614b1957600080fd5b8251866001820283011164010000000082111715614b3657600080fd5b8083526020830192505050908051906020019080838360005b83811015614b6a578082015181840152602081019050614b4f565b50505050905090810190601f168015614b975780820380516001836020036101000a031916815260200191505b5060405250505093509350935093508151845114614bb457600080fd5b6000805b8551811015614f2d576060848281518110614bcf57fe5b602002602001015167ffffffffffffffff81118015614bed57600080fd5b506040519080825280601f01601f191660200182016040528015614c205781602001600182028036833780820191505090505b50905060005b858381518110614c3257fe5b6020026020010151811015614ca857848481518110614c4d57fe5b602001015160f81c60f81b828281518110614c6457fe5b60200101907effffffffffffffffffffffffffffffffffffffffffffffffffffffffffffff1916908160001a90535083806001019450508080600101915050614c26565b50614f16878381518110614cb857fe5b6020026020010151878481518110614ccc57fe5b6020026020010151838f8f8f8f8f604051602401808060200187600760200280838360005b83811015614d0c578082015181840152602081019050614cf1565b5050505090500186600260200280838360005b83811015614d3a578082015181840152602081019050614d1f565b5050505090500185600660200280838360005b83811015614d68578082015181840152602081019050614d4d565b50505050905001806020018060200184810384528a818151815260200191508051906020019080838360005b83811015614daf578082015181840152602081019050614d94565b50505050905090810190601f168015614ddc5780820380516001836020036101000a031916815260200191505b50848103835286818151815260200191508051906020019080838360005b83811015614e15578082015181840152602081019050614dfa565b50505050905090810190601f168015614e425780820380516001836020036101000a031916815260200191505b50848103825285818151815260200191508051906020019080838360005b83811015614e7b578082015181840152602081019050614e60565b50505050905090810190601f168015614ea85780820380516001836020036101000a031916815260200191505b509950505050505050505050604051602081830303815290604052907bffffffffffffffffffffffffffffffffffffffffffffffffffffffff19166020820180517bffffffffffffffffffffffffffffffffffffffffffffffffffffffff8381831617835250505050617829565b614f1f57600080fd5b508080600101915050614bb8565b505050505050505050505050565b60006060614fcc6040516024016040516020818303038152906040527ff242432a000000000000000000000000000000000000000000000000000000007bffffffffffffffffffffffffffffffffffffffffffffffffffffffff19166020820180517bffffffffffffffffffffffffffffffffffffffffffffffffffffffff838183161783525050505060046178ad565b9050600085600060068110614fdd57fe5b602002015114614fec57600080fd5b614ff4617f41565b614ffc617f85565b615004617f85565b8a80602001905160c081101561501957600080fd5b81019080919082604001919082604001919050509250925092508260006002811061504057fe5b602002015173ffffffffffffffffffffffffffffffffffffffff168a60026007811061506857fe5b602002015173ffffffffffffffffffffffffffffffffffffffff16146150d9576040517f08c379a000000000000000000000000000000000000000000000000000000000815260040180806020018281038252603881526020018061810e6038913960400191505060405180910390fd5b600060018111156150e657fe5b896000600281106150f357fe5b6020020151600181111561510357fe5b14615159576040517f08c379a0000000000000000000000000000000000000000000000000000000008152600401808060200182810382526023815260200180617fe66023913960400191505060405180910390fd5b61516d846151688960046178ad565b617840565b61517657600080fd5b6152a9878b60016007811061518757fe5b60200201518c60046007811061519957fe5b6020020151856000600281106151ab57fe5b6020020151856000600281106151bd57fe5b6020020151604051602401808573ffffffffffffffffffffffffffffffffffffffff1681526020018473ffffffffffffffffffffffffffffffffffffffff16815260200183815260200182815260200180602001828103825260008152602001602001955050505050506040516020818303038152906040527ff242432a000000000000000000000000000000000000000000000000000000007bffffffffffffffffffffffffffffffffffffffffffffffffffffffff19166020820180517bffffffffffffffffffffffffffffffffffffffffffffffffffffffff8381831617835250505050617840565b6152b257600080fd5b6153e5868b6004600781106152c357fe5b60200201518c6001600781106152d557fe5b6020020151856001600281106152e757fe5b6020020151856001600281106152f957fe5b6020020151604051602401808573ffffffffffffffffffffffffffffffffffffffff1681526020018473ffffffffffffffffffffffffffffffffffffffff16815260200183815260200182815260200180602001828103825260008152602001602001955050505050506040516020818303038152906040527ff242432a000000000000000000000000000000000000000000000000000000007bffffffffffffffffffffffffffffffffffffffffffffffffffffffff19166020820180517bffffffffffffffffffffffffffffffffffffffffffffffffffffffff8381831617835250505050617840565b6153ee57600080fd5b60019450505050509695505050505050565b6000600190509695505050505050565b600060606154a16040516024016040516020818303038152906040527f23b872dd000000000000000000000000000000000000000000000000000000007bffffffffffffffffffffffffffffffffffffffffffffffffffffffff19166020820180517bffffffffffffffffffffffffffffffffffffffffffffffffffffffff838183161783525050505060046178ad565b90506000856000600681106154b257fe5b6020020151146154c157600080fd5b6154c9617f41565b6154d1617f85565b8980602001905160808110156154e657600080fd5b8101908091908260400191905050915091508160006002811061550557fe5b602002015173ffffffffffffffffffffffffffffffffffffffff168960026007811061552d57fe5b602002015173ffffffffffffffffffffffffffffffffffffffff161461559e576040517f08c379a000000000000000000000000000000000000000000000000000000000815260040180806020018281038252603781526020018061806a6037913960400191505060405180910390fd5b600060018111156155ab57fe5b886000600281106155b857fe5b602002015160018111156155c857fe5b1461561e576040517f08c379a00000000000000000000000000000000000000000000000000000000081526004018080602001828103825260228152602001806180c26022913960400191505060405180910390fd5b6156328361562d8860046178ad565b617840565b61563b57600080fd5b600080600061564b8960046178c3565b806020019051606081101561565f57600080fd5b810190808051906020019092919080519060200190929190805190602001909291905050509250925092508b60016007811061569757fe5b602002015173ffffffffffffffffffffffffffffffffffffffff168373ffffffffffffffffffffffffffffffffffffffff16146156d357600080fd5b8b6004600781106156e057fe5b602002015173ffffffffffffffffffffffffffffffffffffffff168273ffffffffffffffffffffffffffffffffffffffff161461571c57600080fd5b8360006002811061572957fe5b6020020151811461573957600080fd5b8460016002811061574657fe5b602002015173ffffffffffffffffffffffffffffffffffffffff168c60056007811061576e57fe5b602002015173ffffffffffffffffffffffffffffffffffffffff16146157df576040517f08c379a000000000000000000000000000000000000000000000000000000000815260040180806020018281038252603d815260200180618146603d913960400191505060405180910390fd5b600060018111156157ec57fe5b8b6001600281106157f957fe5b6020020151600181111561580957fe5b1461585f576040517f08c379a00000000000000000000000000000000000000000000000000000000081526004018080602001828103825260298152602001806180096029913960400191505060405180910390fd5b6158738661586e8a60046178ad565b617840565b61587c57600080fd5b600080600061588c8b60046178c3565b80602001905160608110156158a057600080fd5b810190808051906020019092919080519060200190929190805190602001909291905050509250925092508e6004600781106158d857fe5b602002015173ffffffffffffffffffffffffffffffffffffffff168373ffffffffffffffffffffffffffffffffffffffff161461591457600080fd5b8e60016007811061592157fe5b602002015173ffffffffffffffffffffffffffffffffffffffff168273ffffffffffffffffffffffffffffffffffffffff161461595d57600080fd5b8660016002811061596a57fe5b6020020151811461597a57600080fd5b600199505050505050505050509695505050505050565b60006001846005600681106159a257fe5b60200201510190509695505050505050565b6060806060808880602001905160808110156159cf57600080fd5b81019080805160405193929190846401000000008211156159ef57600080fd5b83820191506020820185811115615a0557600080fd5b8251866020820283011164010000000082111715615a2257600080fd5b8083526020830192505050908051906020019060200280838360005b83811015615a59578082015181840152602081019050615a3e565b5050505090500160405260200180516040519392919084640100000000821115615a8257600080fd5b83820191506020820185811115615a9857600080fd5b8251866020820283011164010000000082111715615ab557600080fd5b8083526020830192505050908051906020019060200280838360005b83811015615aec578082015181840152602081019050615ad1565b5050505090500160405260200180516040519392919084640100000000821115615b1557600080fd5b83820191506020820185811115615b2b57600080fd5b8251866020820283011164010000000082111715615b4857600080fd5b8083526020830192505050908051906020019060200280838360005b83811015615b7f578082015181840152602081019050615b64565b5050505090500160405260200180516040519392919084640100000000821115615ba857600080fd5b83820191506020820185811115615bbe57600080fd5b8251866001820283011164010000000082111715615bdb57600080fd5b8083526020830192505050908051906020019080838360005b83811015615c0f578082015181840152602081019050615bf4565b50505050905090810190601f168015615c3c5780820380516001836020036101000a031916815260200191505b5060405250505093509350935093508251845114615c5957600080fd5b606080606080615c6a8960046178c3565b8060200190516080811015615c7e57600080fd5b8101908080516040519392919084640100000000821115615c9e57600080fd5b83820191506020820185811115615cb457600080fd5b8251866020820283011164010000000082111715615cd157600080fd5b8083526020830192505050908051906020019060200280838360005b83811015615d08578082015181840152602081019050615ced565b5050505090500160405260200180516040519392919084640100000000821115615d3157600080fd5b83820191506020820185811115615d4757600080fd5b8251866020820283011164010000000082111715615d6457600080fd5b8083526020830192505050908051906020019060200280838360005b83811015615d9b578082015181840152602081019050615d80565b5050505090500160405260200180516040519392919084640100000000821115615dc457600080fd5b83820191506020820185811115615dda57600080fd5b8251866020820283011164010000000082111715615df757600080fd5b8083526020830192505050908051906020019060200280838360005b83811015615e2e578082015181840152602081019050615e13565b5050505090500160405260200180516040519392919084640100000000821115615e5757600080fd5b83820191506020820185811115615e6d57600080fd5b8251866001820283011164010000000082111715615e8a57600080fd5b8083526020830192505050908051906020019080838360005b83811015615ebe578082015181840152602081019050615ea3565b50505050905090810190601f168015615eeb5780820380516001836020036101000a031916815260200191505b50604052505050935093509350935060008054906101000a900473ffffffffffffffffffffffffffffffffffffffff1673ffffffffffffffffffffffffffffffffffffffff168c600260078110615f3e57fe5b602002015173ffffffffffffffffffffffffffffffffffffffff1614615f6357600080fd5b600180811115615f6f57fe5b8b6001811115615f7b57fe5b14615f8557600080fd5b8351885114615f9357600080fd5b60005b8851811015615fcc576000848281518110615fad57fe5b602002602001015114615fbf57600080fd5b8080600101915050615f96565b50615fde8483838f8e8d8d8d8d6178e8565b50505050505050505050505050565b5050505050565b60008086806020019051604081101561600c57600080fd5b810190808051906020019092919080519060200190929190505050915091508173ffffffffffffffffffffffffffffffffffffffff168660026007811061604f57fe5b602002015173ffffffffffffffffffffffffffffffffffffffff161461607457600080fd5b6000600181111561608157fe5b85600181111561608d57fe5b1461609757600080fd5b61618c83876001600781106160a857fe5b6020020151886004600781106160ba57fe5b602002015184604051602401808473ffffffffffffffffffffffffffffffffffffffff1681526020018373ffffffffffffffffffffffffffffffffffffffff16815260200182815260200193505050506040516020818303038152906040527f23b872dd000000000000000000000000000000000000000000000000000000007bffffffffffffffffffffffffffffffffffffffffffffffffffffffff19166020820180517bffffffffffffffffffffffffffffffffffffffffffffffffffffffff8381831617835250505050617840565b61619557600080fd5b50505050505050565b600080846000600681106161ae57fe5b6020020151146161bd57600080fd5b6161c5617f41565b6161cd617f85565b8880602001905160808110156161e257600080fd5b8101908091908260400191905050915091508160006002811061620157fe5b602002015173ffffffffffffffffffffffffffffffffffffffff168860026007811061622957fe5b602002015173ffffffffffffffffffffffffffffffffffffffff161461629a576040517f08c379a000000000000000000000000000000000000000000000000000000000815260040180806020018281038252603781526020018061806a6037913960400191505060405180910390fd5b600060018111156162a757fe5b876000600281106162b457fe5b602002015160018111156162c457fe5b1461631a576040517f08c379a00000000000000000000000000000000000000000000000000000000081526004018080602001828103825260228152602001806180c26022913960400191505060405180910390fd5b616420858960016007811061632b57fe5b60200201518a60046007811061633d57fe5b60200201518460006002811061634f57fe5b6020020151604051602401808473ffffffffffffffffffffffffffffffffffffffff1681526020018373ffffffffffffffffffffffffffffffffffffffff16815260200182815260200193505050506040516020818303038152906040527f23b872dd000000000000000000000000000000000000000000000000000000007bffffffffffffffffffffffffffffffffffffffffffffffffffffffff19166020820180517bffffffffffffffffffffffffffffffffffffffffffffffffffffffff8381831617835250505050617840565b61642957600080fd5b8160016002811061643657fe5b602002015173ffffffffffffffffffffffffffffffffffffffff168860056007811061645e57fe5b602002015173ffffffffffffffffffffffffffffffffffffffff16146164cf576040517f08c379a000000000000000000000000000000000000000000000000000000000815260040180806020018281038252603d815260200180618146603d913960400191505060405180910390fd5b600060018111156164dc57fe5b876001600281106164e957fe5b602002015160018111156164f957fe5b1461654f576040517f08c379a00000000000000000000000000000000000000000000000000000000081526004018080602001828103825260298152602001806180096029913960400191505060405180910390fd5b616655848960046007811061656057fe5b60200201518a60016007811061657257fe5b60200201518460016002811061658457fe5b6020020151604051602401808473ffffffffffffffffffffffffffffffffffffffff1681526020018373ffffffffffffffffffffffffffffffffffffffff16815260200182815260200193505050506040516020818303038152906040527f23b872dd000000000000000000000000000000000000000000000000000000007bffffffffffffffffffffffffffffffffffffffffffffffffffffffff19166020820180517bffffffffffffffffffffffffffffffffffffffffffffffffffffffff8381831617835250505050617840565b61665e57600080fd5b6001925050509695505050505050565b60608060608089806020019051608081101561668957600080fd5b81019080805160405193929190846401000000008211156166a957600080fd5b838201915060208201858111156166bf57600080fd5b82518660208202830111640100000000821117156166dc57600080fd5b8083526020830192505050908051906020019060200280838360005b838110156167135780820151818401526020810190506166f8565b505050509050016040526020018051604051939291908464010000000082111561673c57600080fd5b8382019150602082018581111561675257600080fd5b825186602082028301116401000000008211171561676f57600080fd5b8083526020830192505050908051906020019060200280838360005b838110156167a657808201518184015260208101905061678b565b50505050905001604052602001805160405193929190846401000000008211156167cf57600080fd5b838201915060208201858111156167e557600080fd5b825186602082028301116401000000008211171561680257600080fd5b8083526020830192505050908051906020019060200280838360005b8381101561683957808201518184015260208101905061681e565b505050509050016040526020018051604051939291908464010000000082111561686257600080fd5b8382019150602082018581111561687857600080fd5b825186600182028301116401000000008211171561689557600080fd5b8083526020830192505050908051906020019080838360005b838110156168c95780820151818401526020810190506168ae565b50505050905090810190601f1680156168f65780820380516001836020036101000a031916815260200191505b506040525050509350935093509350815184511461695f576040517f08c379a00000000000000000000000000000000000000000000000000000000081526004018080602001828103825260388152602001806180326038913960400191505060405180910390fd5b6000805b8551811015616ce057606084828151811061697a57fe5b602002602001015167ffffffffffffffff8111801561699857600080fd5b506040519080825280601f01601f1916602001820160405280156169cb5781602001600182028036833780820191505090505b50905060005b8583815181106169dd57fe5b6020026020010151811015616a53578484815181106169f857fe5b602001015160f81c60f81b828281518110616a0f57fe5b60200101907effffffffffffffffffffffffffffffffffffffffffffffffffffffffffffff1916908160001a905350838060010194505080806001019150506169d1565b50616cc1878381518110616a6357fe5b6020026020010151878481518110616a7757fe5b6020026020010151838f8f8f8f8f604051602401808060200187600760200280838360005b83811015616ab7578082015181840152602081019050616a9c565b5050505090500186600260200280838360005b83811015616ae5578082015181840152602081019050616aca565b5050505090500185600660200280838360005b83811015616b13578082015181840152602081019050616af8565b50505050905001806020018060200184810384528a818151815260200191508051906020019080838360005b83811015616b5a578082015181840152602081019050616b3f565b50505050905090810190601f168015616b875780820380516001836020036101000a031916815260200191505b50848103835286818151815260200191508051906020019080838360005b83811015616bc0578082015181840152602081019050616ba5565b50505050905090810190601f168015616bed5780820380516001836020036101000a031916815260200191505b50848103825285818151815260200191508051906020019080838360005b83811015616c26578082015181840152602081019050616c0b565b50505050905090810190601f168015616c535780820380516001836020036101000a031916815260200191505b509950505050505050505050604051602081830303815290604052907bffffffffffffffffffffffffffffffffffffffffffffffffffffffff19166020820180517bffffffffffffffffffffffffffffffffffffffffffffffffffffffff8381831617835250505050617829565b15616cd25750505050505050616d4f565b508080600101915050616963565b506040517f08c379a00000000000000000000000000000000000000000000000000000000081526004018080602001828103825260198152602001807f4e6f207374617469632063616c6c73207375636365656465640000000000000081525060200191505060405180910390fd5b505050505050565b6000616d67878787878787613450565b50600184600560068110616d7757fe5b60200201510190509695505050505050565b60009695505050505050565b606080606080888060200190516080811015616db057600080fd5b8101908080516040519392919084640100000000821115616dd057600080fd5b83820191506020820185811115616de657600080fd5b8251866020820283011164010000000082111715616e0357600080fd5b8083526020830192505050908051906020019060200280838360005b83811015616e3a578082015181840152602081019050616e1f565b5050505090500160405260200180516040519392919084640100000000821115616e6357600080fd5b83820191506020820185811115616e7957600080fd5b8251866020820283011164010000000082111715616e9657600080fd5b8083526020830192505050908051906020019060200280838360005b83811015616ecd578082015181840152602081019050616eb2565b5050505090500160405260200180516040519392919084640100000000821115616ef657600080fd5b83820191506020820185811115616f0c57600080fd5b8251866020820283011164010000000082111715616f2957600080fd5b8083526020830192505050908051906020019060200280838360005b83811015616f60578082015181840152602081019050616f45565b5050505090500160405260200180516040519392919084640100000000821115616f8957600080fd5b83820191506020820185811115616f9f57600080fd5b8251866001820283011164010000000082111715616fbc57600080fd5b8083526020830192505050908051906020019080838360005b83811015616ff0578082015181840152602081019050616fd5565b50505050905090810190601f16801561701d5780820380516001836020036101000a031916815260200191505b506040525050509350935093509350825184511461703a57600080fd5b60608060608061704b8960046178c3565b806020019051608081101561705f57600080fd5b810190808051604051939291908464010000000082111561707f57600080fd5b8382019150602082018581111561709557600080fd5b82518660208202830111640100000000821117156170b257600080fd5b8083526020830192505050908051906020019060200280838360005b838110156170e95780820151818401526020810190506170ce565b505050509050016040526020018051604051939291908464010000000082111561711257600080fd5b8382019150602082018581111561712857600080fd5b825186602082028301116401000000008211171561714557600080fd5b8083526020830192505050908051906020019060200280838360005b8381101561717c578082015181840152602081019050617161565b50505050905001604052602001805160405193929190846401000000008211156171a557600080fd5b838201915060208201858111156171bb57600080fd5b82518660208202830111640100000000821117156171d857600080fd5b8083526020830192505050908051906020019060200280838360005b8381101561720f5780820151818401526020810190506171f4565b505050509050016040526020018051604051939291908464010000000082111561723857600080fd5b8382019150602082018581111561724e57600080fd5b825186600182028301116401000000008211171561726b57600080fd5b8083526020830192505050908051906020019080838360005b8381101561729f578082015181840152602081019050617284565b50505050905090810190601f1680156172cc5780820380516001836020036101000a031916815260200191505b50604052505050935093509350935060008054906101000a900473ffffffffffffffffffffffffffffffffffffffff1673ffffffffffffffffffffffffffffffffffffffff168c60026007811061731f57fe5b602002015173ffffffffffffffffffffffffffffffffffffffff161461734457600080fd5b60018081111561735057fe5b8b600181111561735c57fe5b1461736657600080fd5b83518851111561737557600080fd5b60005b88518110156173ae57600084828151811061738f57fe5b6020026020010151146173a157600080fd5b8080600101915050617378565b506173c08483838f8e8d8d8d8d6178e8565b50505050505050505050505050565b600060606174606040516024016040516020818303038152906040527f23b872dd000000000000000000000000000000000000000000000000000000007bffffffffffffffffffffffffffffffffffffffffffffffffffffffff19166020820180517bffffffffffffffffffffffffffffffffffffffffffffffffffffffff838183161783525050505060046178ad565b905060008560006006811061747157fe5b60200201511461748057600080fd5b617488617f41565b617490617f85565b8980602001905160808110156174a557600080fd5b810190809190826040019190505091509150816000600281106174c457fe5b602002015173ffffffffffffffffffffffffffffffffffffffff16896002600781106174ec57fe5b602002015173ffffffffffffffffffffffffffffffffffffffff161461751157600080fd5b6000600181111561751e57fe5b8860006002811061752b57fe5b6020020151600181111561753b57fe5b1461754557600080fd5b617559836175548860046178ad565b617840565b61756257600080fd5b60008060006175728960046178c3565b806020019051606081101561758657600080fd5b810190808051906020019092919080519060200190929190805190602001909291905050509250925092508b6001600781106175be57fe5b602002015173ffffffffffffffffffffffffffffffffffffffff168373ffffffffffffffffffffffffffffffffffffffff16146175fa57600080fd5b8b60046007811061760757fe5b602002015173ffffffffffffffffffffffffffffffffffffffff168273ffffffffffffffffffffffffffffffffffffffff161461764357600080fd5b8460016002811061765057fe5b602002015173ffffffffffffffffffffffffffffffffffffffff168c60056007811061767857fe5b602002015173ffffffffffffffffffffffffffffffffffffffff161461769d57600080fd5b600060018111156176aa57fe5b8b6001600281106176b757fe5b602002015160018111156176c757fe5b146176d157600080fd5b6176e5866176e08a60046178ad565b617840565b6176ee57600080fd5b60008060006176fe8b60046178c3565b806020019051606081101561771257600080fd5b810190808051906020019092919080519060200190929190805190602001909291905050509250925092508e60046007811061774a57fe5b602002015173ffffffffffffffffffffffffffffffffffffffff168373ffffffffffffffffffffffffffffffffffffffff161461778657600080fd5b8e60016007811061779357fe5b602002015173ffffffffffffffffffffffffffffffffffffffff168273ffffffffffffffffffffffffffffffffffffffff16146177cf57600080fd5b6177ea84886000600281106177e057fe5b6020020151617d36565b61780582896001600281106177fb57fe5b6020020151617d36565b101561781057600080fd5b600199505050505050505050509695505050505050565b565b600080604051835160208501865afa905092915050565b600080600190508351835181146001811461785e57600092506178a1565b600160208701838101602088015b60028483851001141561789c57805183511461788b5760009650600093505b60208301925060208101905061786c565b505050505b50508091505092915050565b60606178bb83600084617dbc565b905092915050565b606060006178d2845184617e37565b90506178df848483617dbc565b91505092915050565b60008060005b8651811015617d1b57606086828151811061790557fe5b602002602001015167ffffffffffffffff8111801561792357600080fd5b506040519080825280601f01601f1916602001820160405280156179565781602001600182028036833780820191505090505b50905060005b87838151811061796857fe5b60200260200101518110156179de5785858151811061798357fe5b602001015160f81c60f81b82828151811061799a57fe5b60200101907effffffffffffffffffffffffffffffffffffffffffffffffffffffffffffff1916908160001a9053508480600101955050808060010191505061795c565b5060608c83815181106179ed57fe5b602002602001015167ffffffffffffffff81118015617a0b57600080fd5b506040519080825280601f01601f191660200182016040528015617a3e5781602001600182028036833780820191505090505b50905060005b8d8481518110617a5057fe5b6020026020010151811015617ac6578c8581518110617a6b57fe5b602001015160f81c60f81b828281518110617a8257fe5b60200101907effffffffffffffffffffffffffffffffffffffffffffffffffffffffffffff1916908160001a90535084806001019550508080600101915050617a44565b508d8381518110617ad357fe5b60200260200101518b600260078110617ae857fe5b602002019073ffffffffffffffffffffffffffffffffffffffff16908173ffffffffffffffffffffffffffffffffffffffff1681525050617d03898481518110617b2e57fe5b6020026020010151888581518110617b4257fe5b6020026020010151848e60008f87604051602401808060200186600760200280838360005b83811015617b82578082015181840152602081019050617b67565b50505050905001856001811115617b9557fe5b815260200184600660200280838360005b83811015617bc1578082015181840152602081019050617ba6565b5050505090500180602001838103835288818151815260200191508051906020019080838360005b83811015617c04578082015181840152602081019050617be9565b50505050905090810190601f168015617c315780820380516001836020036101000a031916815260200191505b50838103825284818151815260200191508051906020019080838360005b83811015617c6a578082015181840152602081019050617c4f565b50505050905090810190601f168015617c975780820380516001836020036101000a031916815260200191505b50975050505050505050604051602081830303815290604052907bffffffffffffffffffffffffffffffffffffffffffffffffffffffff19166020820180517bffffffffffffffffffffffffffffffffffffffffffffffffffffffff8381831617835250505050617829565b617d0c57600080fd5b505080806001019150506178ee565b5082518214617d2957600080fd5b5050505050505050505050565b600080831415617d495760009050617db6565b6000828402905082848281617d5a57fe5b0414617db1576040517f08c379a00000000000000000000000000000000000000000000000000000000081526004018080602001828103825260218152602001806180a16021913960400191505060405180910390fd5b809150505b92915050565b606080821560008114617dda57604051915060208201604052617e2b565b6040519150601f8416801560200281840101858101878315602002848b0101015b81831015617e185780518352602083019250602081019050617dfb565b50868552601f19601f8301166040525050505b50809150509392505050565b6000617e7983836040518060400160405280601e81526020017f536166654d6174683a207375627472616374696f6e206f766572666c6f770000815250617e81565b905092915050565b6000838311158290617f2e576040517f08c379a00000000000000000000000000000000000000000000000000000000081526004018080602001828103825283818151815260200191508051906020019080838360005b83811015617ef3578082015181840152602081019050617ed8565b50505050905090810190601f168015617f205780820380516001836020036101000a031916815260200191505b509250505060405180910390fd5b5060008385039050809150509392505050565b6040518060400160405280600290602082028036833780820191505090505090565b6040518060400160405280600290602082028036833780820191505090505090565b604051806040016040528060029060208202803683378082019150509050509056fe455243313135353a20636f756e74657263616c6c20746172676574206d75737420657175616c2061646472657373206f6620746f6b656e20746f20676574455243313135353a2063616c6c206d7573742062652061206469726563742063616c6c4552433732313a20636f756e74657263616c6c206d7573742062652061206469726563742063616c6c446966666572656e74206e756d626572206f66207374617469632063616c6c2061646472657373657320616e6420657874726164617461734552433732313a2063616c6c20746172676574206d75737420657175616c2061646472657373206f6620746f6b656e20746f2067697665536166654d6174683a206d756c7469706c69636174696f6e206f766572666c6f774552433732313a2063616c6c206d7573742062652061206469726563742063616c6c455243313135353a20636f756e74657263616c6c206d7573742062652061206469726563742063616c6c455243313135353a2063616c6c20746172676574206d75737420657175616c2061646472657373206f6620746f6b656e20746f20676976654552433732313a20636f756e74657263616c6c20746172676574206d75737420657175616c2061646472657373206f6620746f6b656e20746f20676574455243313135353a206769766520616d6f756e74206d757374206265206c6172676572207468616e207a65726f455243313135353a2074616b6520616d6f756e74206d757374206265206c6172676572207468616e207a65726fa2646970667358221220962508fd025df86cb75a028247b3e67419be84a7487bd74a9b3959050ce4c29d64736f6c63430007050033",
  "linkReferences": {},
  "deployedLinkReferences": {}
}