{
  "_format": "hh-sol-artifact-1",
  "contractName": "ProxyRegistry",
  "sourceName": "contracts/registry/ProxyRegistry.sol",
  "abi": [
    {
      "anonymous": false,
      "inputs": [
        {
          "indexed": true,
          "internalType": "address",
          "name": "previousOwner",
          "type": "address"
        },
        {
          "indexed": true,
          "internalType": "address",
          "name": "newOwner",
          "type": "address"
        }
      ],
      "name": "OwnershipTransferred",
      "type": "event"
    },
    {
      "inputs": [],
      "name": "DELAY_PERIOD",
      "outputs": [
        {
          "internalType": "uint256",
          "name": "",
          "type": "uint256"
        }
      ],
      "stateMutability": "view",
      "type": "function"
    },
    {
      "inputs": [
        {
          "internalType": "address",
          "name": "",
          "type": "address"
        }
      ],
      "name": "contracts",
      "outputs": [
        {
          "internalType": "bool",
          "name": "",
          "type": "bool"
        }
      ],
      "stateMutability": "view",
      "type": "function"
    },
    {
      "inputs": [],
      "name": "delegateProxyImplementation",
      "outputs": [
        {
          "internalType": "address",
          "name": "",
          "type": "address"
        }
      ],
      "stateMutability": "view",
      "type": "function"
    },
    {
      "inputs": [
        {
          "internalType": "address",
          "name": "addr",
          "type": "address"
        }
      ],
      "name": "endGrantAuthentication",
      "outputs": [],
      "stateMutability": "nonpayable",
      "type": "function"
    },
    {
      "inputs": [],
      "name": "owner",
      "outputs": [
        {
          "internalType": "address",
          "name": "",
          "type": "address"
        }
      ],
      "stateMutability": "view",
      "type": "function"
    },
    {
      "inputs": [
        {
          "internalType": "address",
          "name": "",
          "type": "address"
        }
      ],
      "name": "pending",
      "outputs": [
        {
          "internalType": "uint256",
          "name": "",
          "type": "uint256"
        }
      ],
      "stateMutability": "view",
      "type": "function"
    },
    {
      "inputs": [
        {
          "internalType": "address",
          "name": "",
          "type": "address"
        }
      ],
      "name": "proxies",
      "outputs": [
        {
          "internalType": "contract OwnableDelegateProxy",
          "name": "",
          "type": "address"
        }
      ],
      "stateMutability": "view",
      "type": "function"
    },
    {
      "inputs": [],
      "name": "registerProxy",
      "outputs": [
        {
          "internalType": "contract OwnableDelegateProxy",
          "name": "proxy",
          "type": "address"
        }
      ],
      "stateMutability": "nonpayable",
      "type": "function"
    },
    {
      "inputs": [
        {
          "internalType": "address",
          "name": "user",
          "type": "address"
        }
      ],
      "name": "registerProxyFor",
      "outputs": [
        {
          "internalType": "contract OwnableDelegateProxy",
          "name": "proxy",
          "type": "address"
        }
      ],
      "stateMutability": "nonpayable",
      "type": "function"
    },
    {
      "inputs": [],
      "name": "registerProxyOverride",
      "outputs": [
        {
          "internalType": "contract OwnableDelegateProxy",
          "name": "proxy",
          "type": "address"
        }
      ],
      "stateMutability": "nonpayable",
      "type": "function"
    },
    {
      "inputs": [],
      "name": "renounceOwnership",
      "outputs": [],
      "stateMutability": "nonpayable",
      "type": "function"
    },
    {
      "inputs": [
        {
          "internalType": "address",
          "name": "addr",
          "type": "address"
        }
      ],
      "name": "revokeAuthentication",
      "outputs": [],
      "stateMutability": "nonpayable",
      "type": "function"
    },
    {
      "inputs": [
        {
          "internalType": "address",
          "name": "addr",
          "type": "address"
        }
      ],
      "name": "startGrantAuthentication",
      "outputs": [],
      "stateMutability": "nonpayable",
      "type": "function"
    },
    {
      "inputs": [
        {
          "internalType": "address",
          "name": "from",
          "type": "address"
        },
        {
          "internalType": "address",
          "name": "to",
          "type": "address"
        }
      ],
      "name": "transferAccessTo",
      "outputs": [],
      "stateMutability": "nonpayable",
      "type": "function"
    },
    {
      "inputs": [
        {
          "internalType": "address",
          "name": "newOwner",
          "type": "address"
        }
      ],
      "name": "transferOwnership",
      "outputs": [],
      "stateMutability": "nonpayable",
      "type": "function"
    }
  ],
  "bytecode": "0x60806040526212750060055534801561001757600080fd5b5060006100286100cb60201b60201c565b9050806000806101000a81548173ffffffffffffffffffffffffffffffffffffffff021916908373ffffffffffffffffffffffffffffffffffffffff1602179055508073ffffffffffffffffffffffffffffffffffffffff16600073ffffffffffffffffffffffffffffffffffffffff167f8be0079c531659141344cd1fd0a4f28419497f9722a3daafe3b4186f6b6457e060405160405180910390a3506100d3565b600033905090565b61271c806100e26000396000f3fe60806040523480156200001157600080fd5b50600436106200010b5760003560e01c80638da5cb5b11620000a5578063dcfa9222116200006f578063dcfa9222146200042d578063ddd81f821462000494578063e71a02e114620004ca578063f2fde38b14620004ea576200010b565b80638da5cb5b146200030957806397204d8e146200033f578063c45527911462000375578063d4e8e06314620003e6576200010b565b80635eebea2011620000e75780635eebea20146200020f578063631d9e3f146200026a57806369dc9ff314620002a0578063715018a614620002fd576200010b565b8062686741146200011057806338b6e407146200018157806353376d1f14620001c8575b600080fd5b62000155600480360360208110156200012857600080fd5b81019080803573ffffffffffffffffffffffffffffffffffffffff16906020019092919050505062000531565b604051808273ffffffffffffffffffffffffffffffffffffffff16815260200191505060405180910390f35b620001c6600480360360208110156200019957600080fd5b81019080803573ffffffffffffffffffffffffffffffffffffffff16906020019092919050505062000877565b005b6200020d60048036036020811015620001e057600080fd5b81019080803573ffffffffffffffffffffffffffffffffffffffff16906020019092919050505062000b23565b005b62000254600480360360208110156200022757600080fd5b81019080803573ffffffffffffffffffffffffffffffffffffffff16906020019092919050505062000c49565b6040518082815260200191505060405180910390f35b6200027462000c61565b604051808273ffffffffffffffffffffffffffffffffffffffff16815260200191505060405180910390f35b620002e560048036036020811015620002b857600080fd5b81019080803573ffffffffffffffffffffffffffffffffffffffff16906020019092919050505062000ea4565b60405180821515815260200191505060405180910390f35b6200030762000ec4565b005b620003136200104d565b604051808273ffffffffffffffffffffffffffffffffffffffff16815260200191505060405180910390f35b6200034962001076565b604051808273ffffffffffffffffffffffffffffffffffffffff16815260200191505060405180910390f35b620003ba600480360360208110156200038d57600080fd5b81019080803573ffffffffffffffffffffffffffffffffffffffff1690602001909291905050506200109c565b604051808273ffffffffffffffffffffffffffffffffffffffff16815260200191505060405180910390f35b6200042b60048036036020811015620003fe57600080fd5b81019080803573ffffffffffffffffffffffffffffffffffffffff169060200190929190505050620010cf565b005b62000492600480360360408110156200044557600080fd5b81019080803573ffffffffffffffffffffffffffffffffffffffff169060200190929190803573ffffffffffffffffffffffffffffffffffffffff169060200190929190505050620012d2565b005b6200049e62001587565b604051808273ffffffffffffffffffffffffffffffffffffffff16815260200191505060405180910390f35b620004d462001599565b6040518082815260200191505060405180910390f35b6200052f600480360360208110156200050257600080fd5b81019080803573ffffffffffffffffffffffffffffffffffffffff1690602001909291905050506200159f565b005b60008073ffffffffffffffffffffffffffffffffffffffff16600260008473ffffffffffffffffffffffffffffffffffffffff1673ffffffffffffffffffffffffffffffffffffffff16815260200190815260200160002060009054906101000a900473ffffffffffffffffffffffffffffffffffffffff1673ffffffffffffffffffffffffffffffffffffffff161462000634576040517f08c379a00000000000000000000000000000000000000000000000000000000081526004018080602001828103825260188152602001807f5573657220616c72656164792068617320612070726f7879000000000000000081525060200191505060405180910390fd5b81600160009054906101000a900473ffffffffffffffffffffffffffffffffffffffff168330604051602401808373ffffffffffffffffffffffffffffffffffffffff1681526020018273ffffffffffffffffffffffffffffffffffffffff168152602001925050506040516020818303038152906040527f485cc955000000000000000000000000000000000000000000000000000000007bffffffffffffffffffffffffffffffffffffffffffffffffffffffff19166020820180517bffffffffffffffffffffffffffffffffffffffffffffffffffffffff83818316178352505050506040516200072890620017b7565b808473ffffffffffffffffffffffffffffffffffffffff1681526020018373ffffffffffffffffffffffffffffffffffffffff16815260200180602001828103825283818151815260200191508051906020019080838360005b838110156200079f57808201518184015260208101905062000782565b50505050905090810190601f168015620007cd5780820380516001836020036101000a031916815260200191505b50945050505050604051809103906000f080158015620007f1573d6000803e3d6000fd5b50905080600260008473ffffffffffffffffffffffffffffffffffffffff1673ffffffffffffffffffffffffffffffffffffffff16815260200190815260200160002060006101000a81548173ffffffffffffffffffffffffffffffffffffffff021916908373ffffffffffffffffffffffffffffffffffffffff160217905550919050565b62000881620017af565b73ffffffffffffffffffffffffffffffffffffffff1660008054906101000a900473ffffffffffffffffffffffffffffffffffffffff1673ffffffffffffffffffffffffffffffffffffffff161462000942576040517f08c379a00000000000000000000000000000000000000000000000000000000081526004018080602001828103825260208152602001807f4f776e61626c653a2063616c6c6572206973206e6f7420746865206f776e657281525060200191505060405180910390fd5b600460008273ffffffffffffffffffffffffffffffffffffffff1673ffffffffffffffffffffffffffffffffffffffff16815260200190815260200160002060009054906101000a900460ff16158015620009dd57506000600360008373ffffffffffffffffffffffffffffffffffffffff1673ffffffffffffffffffffffffffffffffffffffff1681526020019081526020016000205414155b801562000a2c575042600554600360008473ffffffffffffffffffffffffffffffffffffffff1673ffffffffffffffffffffffffffffffffffffffff1681526020019081526020016000205401105b62000a83576040517f08c379a00000000000000000000000000000000000000000000000000000000081526004018080602001828103825260468152602001806200263e6046913960600191505060405180910390fd5b6000600360008373ffffffffffffffffffffffffffffffffffffffff1673ffffffffffffffffffffffffffffffffffffffff168152602001908152602001600020819055506001600460008373ffffffffffffffffffffffffffffffffffffffff1673ffffffffffffffffffffffffffffffffffffffff16815260200190815260200160002060006101000a81548160ff02191690831515021790555050565b62000b2d620017af565b73ffffffffffffffffffffffffffffffffffffffff1660008054906101000a900473ffffffffffffffffffffffffffffffffffffffff1673ffffffffffffffffffffffffffffffffffffffff161462000bee576040517f08c379a00000000000000000000000000000000000000000000000000000000081526004018080602001828103825260208152602001807f4f776e61626c653a2063616c6c6572206973206e6f7420746865206f776e657281525060200191505060405180910390fd5b6000600460008373ffffffffffffffffffffffffffffffffffffffff1673ffffffffffffffffffffffffffffffffffffffff16815260200190815260200160002060006101000a81548160ff02191690831515021790555050565b60036020528060005260406000206000915090505481565b600033600160009054906101000a900473ffffffffffffffffffffffffffffffffffffffff163330604051602401808373ffffffffffffffffffffffffffffffffffffffff1681526020018273ffffffffffffffffffffffffffffffffffffffff168152602001925050506040516020818303038152906040527f485cc955000000000000000000000000000000000000000000000000000000007bffffffffffffffffffffffffffffffffffffffffffffffffffffffff19166020820180517bffffffffffffffffffffffffffffffffffffffffffffffffffffffff838183161783525050505060405162000d5790620017b7565b808473ffffffffffffffffffffffffffffffffffffffff1681526020018373ffffffffffffffffffffffffffffffffffffffff16815260200180602001828103825283818151815260200191508051906020019080838360005b8381101562000dce57808201518184015260208101905062000db1565b50505050905090810190601f16801562000dfc5780820380516001836020036101000a031916815260200191505b50945050505050604051809103906000f08015801562000e20573d6000803e3d6000fd5b50905080600260003373ffffffffffffffffffffffffffffffffffffffff1673ffffffffffffffffffffffffffffffffffffffff16815260200190815260200160002060006101000a81548173ffffffffffffffffffffffffffffffffffffffff021916908373ffffffffffffffffffffffffffffffffffffffff16021790555090565b60046020528060005260406000206000915054906101000a900460ff1681565b62000ece620017af565b73ffffffffffffffffffffffffffffffffffffffff1660008054906101000a900473ffffffffffffffffffffffffffffffffffffffff1673ffffffffffffffffffffffffffffffffffffffff161462000f8f576040517f08c379a00000000000000000000000000000000000000000000000000000000081526004018080602001828103825260208152602001807f4f776e61626c653a2063616c6c6572206973206e6f7420746865206f776e657281525060200191505060405180910390fd5b600073ffffffffffffffffffffffffffffffffffffffff1660008054906101000a900473ffffffffffffffffffffffffffffffffffffffff1673ffffffffffffffffffffffffffffffffffffffff167f8be0079c531659141344cd1fd0a4f28419497f9722a3daafe3b4186f6b6457e060405160405180910390a360008060006101000a81548173ffffffffffffffffffffffffffffffffffffffff021916908373ffffffffffffffffffffffffffffffffffffffff160217905550565b60008060009054906101000a900473ffffffffffffffffffffffffffffffffffffffff16905090565b600160009054906101000a900473ffffffffffffffffffffffffffffffffffffffff1681565b60026020528060005260406000206000915054906101000a900473ffffffffffffffffffffffffffffffffffffffff1681565b620010d9620017af565b73ffffffffffffffffffffffffffffffffffffffff1660008054906101000a900473ffffffffffffffffffffffffffffffffffffffff1673ffffffffffffffffffffffffffffffffffffffff16146200119a576040517f08c379a00000000000000000000000000000000000000000000000000000000081526004018080602001828103825260208152602001807f4f776e61626c653a2063616c6c6572206973206e6f7420746865206f776e657281525060200191505060405180910390fd5b600460008273ffffffffffffffffffffffffffffffffffffffff1673ffffffffffffffffffffffffffffffffffffffff16815260200190815260200160002060009054906101000a900460ff161580156200123457506000600360008373ffffffffffffffffffffffffffffffffffffffff1673ffffffffffffffffffffffffffffffffffffffff16815260200190815260200160002054145b6200128b576040517f08c379a0000000000000000000000000000000000000000000000000000000008152600401808060200182810382526033815260200180620026b46033913960400191505060405180910390fd5b42600360008373ffffffffffffffffffffffffffffffffffffffff1673ffffffffffffffffffffffffffffffffffffffff1681526020019081526020016000208190555050565b6000600260008473ffffffffffffffffffffffffffffffffffffffff1673ffffffffffffffffffffffffffffffffffffffff16815260200190815260200160002060009054906101000a900473ffffffffffffffffffffffffffffffffffffffff1690508073ffffffffffffffffffffffffffffffffffffffff163373ffffffffffffffffffffffffffffffffffffffff1614620013bc576040517f08c379a000000000000000000000000000000000000000000000000000000000815260040180806020018281038252602e815260200180620025ea602e913960400191505060405180910390fd5b600073ffffffffffffffffffffffffffffffffffffffff16600260008473ffffffffffffffffffffffffffffffffffffffff1673ffffffffffffffffffffffffffffffffffffffff16815260200190815260200160002060009054906101000a900473ffffffffffffffffffffffffffffffffffffffff1673ffffffffffffffffffffffffffffffffffffffff1614620014a2576040517f08c379a0000000000000000000000000000000000000000000000000000000008152600401808060200182810382526030815260200180620026846030913960400191505060405180910390fd5b600260008473ffffffffffffffffffffffffffffffffffffffff1673ffffffffffffffffffffffffffffffffffffffff16815260200190815260200160002060006101000a81549073ffffffffffffffffffffffffffffffffffffffff021916905580600260008473ffffffffffffffffffffffffffffffffffffffff1673ffffffffffffffffffffffffffffffffffffffff16815260200190815260200160002060006101000a81548173ffffffffffffffffffffffffffffffffffffffff021916908373ffffffffffffffffffffffffffffffffffffffff160217905550505050565b6000620015943362000531565b905090565b60055481565b620015a9620017af565b73ffffffffffffffffffffffffffffffffffffffff1660008054906101000a900473ffffffffffffffffffffffffffffffffffffffff1673ffffffffffffffffffffffffffffffffffffffff16146200166a576040517f08c379a00000000000000000000000000000000000000000000000000000000081526004018080602001828103825260208152602001807f4f776e61626c653a2063616c6c6572206973206e6f7420746865206f776e657281525060200191505060405180910390fd5b600073ffffffffffffffffffffffffffffffffffffffff168173ffffffffffffffffffffffffffffffffffffffff161415620016f2576040517f08c379a0000000000000000000000000000000000000000000000000000000008152600401808060200182810382526026815260200180620026186026913960400191505060405180910390fd5b8073ffffffffffffffffffffffffffffffffffffffff1660008054906101000a900473ffffffffffffffffffffffffffffffffffffffff1673ffffffffffffffffffffffffffffffffffffffff167f8be0079c531659141344cd1fd0a4f28419497f9722a3daafe3b4186f6b6457e060405160405180910390a3806000806101000a81548173ffffffffffffffffffffffffffffffffffffffff021916908373ffffffffffffffffffffffffffffffffffffffff16021790555050565b600033905090565b610e2480620017c68339019056fe608060405234801561001057600080fd5b50604051610e24380380610e248339818101604052606081101561003357600080fd5b8101908080519060200190929190805190602001909291908051604051939291908464010000000082111561006757600080fd5b8382019150602082018581111561007d57600080fd5b825186600182028301116401000000008211171561009a57600080fd5b8083526020830192505050908051906020019080838360005b838110156100ce5780820151818401526020810190506100b3565b50505050905090810190601f1680156100fb5780820380516001836020036101000a031916815260200191505b506040525050506101118361023560201b60201c565b6101208261027960201b60201c565b60008273ffffffffffffffffffffffffffffffffffffffff16826040518082805190602001908083835b6020831061016d578051825260208201915060208101905060208303925061014a565b6001836020036101000a038019825116818451168082178552505050505050905001915050600060405180830381855af49150503d80600081146101cd576040519150601f19603f3d011682016040523d82523d6000602084013e6101d2565b606091505b505090508061022c576040517f08c379a000000000000000000000000000000000000000000000000000000000815260040180806020018281038252602a815260200180610dfa602a913960400191505060405180910390fd5b505050506103a4565b80600160006101000a81548173ffffffffffffffffffffffffffffffffffffffff021916908373ffffffffffffffffffffffffffffffffffffffff16021790555050565b8073ffffffffffffffffffffffffffffffffffffffff1660008054906101000a900473ffffffffffffffffffffffffffffffffffffffff1673ffffffffffffffffffffffffffffffffffffffff16141561031e576040517f08c379a0000000000000000000000000000000000000000000000000000000008152600401808060200182810382526026815260200180610dd46026913960400191505060405180910390fd5b806000806101000a81548173ffffffffffffffffffffffffffffffffffffffff021916908373ffffffffffffffffffffffffffffffffffffffff1602179055508073ffffffffffffffffffffffffffffffffffffffff167fbc7cd75a20ee27fd9adebab32041f755214dbc6bffa90cc0225b39da2e5c2d3b60405160405180910390a250565b610a21806103b36000396000f3fe6080604052600436106100745760003560e01c80634f1ef2861161004e5780634f1ef286146102085780635c60da1b146102e35780636fde820214610324578063f1739cae1461036557610075565b8063025313a21461014b5780633659cfe61461018c5780634555d5c9146101dd57610075565b5b600061007f6103b6565b9050600073ffffffffffffffffffffffffffffffffffffffff168173ffffffffffffffffffffffffffffffffffffffff161415610124576040517f08c379a000000000000000000000000000000000000000000000000000000000815260040180806020018281038252601d8152602001807f50726f787920696d706c656d656e746174696f6e20726571756972656400000081525060200191505060405180910390fd5b60405136600082376000803683855af43d806000843e8160008114610147578184f35b8184fd5b34801561015757600080fd5b506101606103df565b604051808273ffffffffffffffffffffffffffffffffffffffff16815260200191505060405180910390f35b34801561019857600080fd5b506101db600480360360208110156101af57600080fd5b81019080803573ffffffffffffffffffffffffffffffffffffffff1690602001909291905050506103ee565b005b3480156101e957600080fd5b506101f2610485565b6040518082815260200191505060405180910390f35b6102e16004803603604081101561021e57600080fd5b81019080803573ffffffffffffffffffffffffffffffffffffffff1690602001909291908035906020019064010000000081111561025b57600080fd5b82018360208201111561026d57600080fd5b8035906020019184600183028401116401000000008311171561028f57600080fd5b91908080601f016020809104026020016040519081016040528093929190818152602001838380828437600081840152601f19601f82011690508083019250505050505050919291929050505061048e565b005b3480156102ef57600080fd5b506102f86103b6565b604051808273ffffffffffffffffffffffffffffffffffffffff16815260200191505060405180910390f35b34801561033057600080fd5b50610339610650565b604051808273ffffffffffffffffffffffffffffffffffffffff16815260200191505060405180910390f35b34801561037157600080fd5b506103b46004803603602081101561038857600080fd5b81019080803573ffffffffffffffffffffffffffffffffffffffff16906020019092919050505061067a565b005b60008060009054906101000a900473ffffffffffffffffffffffffffffffffffffffff16905090565b60006103e9610650565b905090565b6103f66103df565b73ffffffffffffffffffffffffffffffffffffffff163373ffffffffffffffffffffffffffffffffffffffff1614610479576040517f08c379a00000000000000000000000000000000000000000000000000000000081526004018080602001828103825260298152602001806109c36029913960400191505060405180910390fd5b61048281610809565b50565b60006002905090565b6104966103df565b73ffffffffffffffffffffffffffffffffffffffff163373ffffffffffffffffffffffffffffffffffffffff1614610519576040517f08c379a00000000000000000000000000000000000000000000000000000000081526004018080602001828103825260298152602001806109c36029913960400191505060405180910390fd5b610522826103ee565b60003073ffffffffffffffffffffffffffffffffffffffff16826040518082805190602001908083835b6020831061056f578051825260208201915060208101905060208303925061054c565b6001836020036101000a038019825116818451168082178552505050505050905001915050600060405180830381855af49150503d80600081146105cf576040519150601f19603f3d011682016040523d82523d6000602084013e6105d4565b606091505b505090508061064b576040517f08c379a000000000000000000000000000000000000000000000000000000000815260040180806020018281038252601f8152602001807f43616c6c206661696c65642061667465722070726f787920757067726164650081525060200191505060405180910390fd5b505050565b6000600160009054906101000a900473ffffffffffffffffffffffffffffffffffffffff16905090565b6106826103df565b73ffffffffffffffffffffffffffffffffffffffff163373ffffffffffffffffffffffffffffffffffffffff1614610705576040517f08c379a00000000000000000000000000000000000000000000000000000000081526004018080602001828103825260298152602001806109c36029913960400191505060405180910390fd5b600073ffffffffffffffffffffffffffffffffffffffff168173ffffffffffffffffffffffffffffffffffffffff16141561078b576040517f08c379a000000000000000000000000000000000000000000000000000000000815260040180806020018281038252602481526020018061099f6024913960400191505060405180910390fd5b7f5a3e66efaa1e445ebd894728a69d6959842ea1e97bd79b892797106e270efcd96107b46103df565b82604051808373ffffffffffffffffffffffffffffffffffffffff1681526020018273ffffffffffffffffffffffffffffffffffffffff1681526020019250505060405180910390a161080681610934565b50565b8073ffffffffffffffffffffffffffffffffffffffff1660008054906101000a900473ffffffffffffffffffffffffffffffffffffffff1673ffffffffffffffffffffffffffffffffffffffff1614156108ae576040517f08c379a00000000000000000000000000000000000000000000000000000000081526004018080602001828103825260268152602001806109796026913960400191505060405180910390fd5b806000806101000a81548173ffffffffffffffffffffffffffffffffffffffff021916908373ffffffffffffffffffffffffffffffffffffffff1602179055508073ffffffffffffffffffffffffffffffffffffffff167fbc7cd75a20ee27fd9adebab32041f755214dbc6bffa90cc0225b39da2e5c2d3b60405160405180910390a250565b80600160006101000a81548173ffffffffffffffffffffffffffffffffffffffff021916908373ffffffffffffffffffffffffffffffffffffffff1602179055505056fe50726f787920616c72656164792075736573207468697320696d706c656d656e746174696f6e4e6577206f776e65722063616e6e6f7420626520746865206e756c6c20616464726573734f6e6c79207468652070726f7879206f776e65722063616e2063616c6c2074686973206d6574686f64a264697066735822122003eae3d126b9fca5d19a75cf37badc3c6f850a53881ce152b75b27081bac18af64736f6c6343000705003350726f787920616c72656164792075736573207468697320696d706c656d656e746174696f6e4f776e61626c6544656c656761746550726f7879206661696c656420696d706c656d656e746174696f6e50726f7879207472616e736665722063616e206f6e6c792062652063616c6c6564206279207468652070726f78794f776e61626c653a206e6577206f776e657220697320746865207a65726f2061646472657373436f6e7472616374206973206e6f206c6f6e6765722070656e64696e67206f722068617320616c7265616479206265656e20617070726f76656420627920726567697374727950726f7879207472616e7366657220686173206578697374696e672070726f78792061732064657374696e6174696f6e436f6e747261637420697320616c726561647920616c6c6f77656420696e2072656769737472792c206f722070656e64696e67a2646970667358221220b1caccfe3b3f7017faaed99987344abbee5834e041c3427cdf4d9e2e439ac75964736f6c63430007050033",
  "linkReferences": {},
  "deployedLinkReferences": {}
}