{
  "_format": "hh-sol-artifact-1",
  "contractName": "ProxyInterface",
  "sourceName": "contracts/TestSmartContractWallet.sol",
  "abi": [
    {
      "inputs": [],
      "name": "registerProxy",
      "outputs": [],
      "stateMutability": "nonpayable",
      "type": "function"
    }
  ],
  "bytecode": "0x6080604052348015600f57600080fd5b50606d80601d6000396000f3fe6080604052348015600f57600080fd5b506004361060285760003560e01c8063ddd81f8214602d575b600080fd5b60336035565b005b56fea264697066735822122057751b78ec63d73b4fce6923f34c236eaaade9bacd657e209219dce3da80a5ef64736f6c63430007050033",
  "linkReferences": {},
  "deployedLinkReferences": {}
}