{
  "_format": "hh-sol-artifact-1",
  "contractName": "TestSmartContractWallet",
  "sourceName": "contracts/TestSmartContractWallet.sol",
  "abi": [
    {
      "inputs": [],
      "stateMutability": "nonpayable",
      "type": "constructor"
    },
    {
      "anonymous": false,
      "inputs": [
        {
          "indexed": true,
          "internalType": "address",
          "name": "_from",
          "type": "address"
        },
        {
          "indexed": true,
          "internalType": "uint256",
          "name": "_id",
          "type": "uint256"
        },
        {
          "indexed": false,
          "internalType": "uint256",
          "name": "_value",
          "type": "uint256"
        }
      ],
      "name": "Deposit",
      "type": "event"
    },
    {
      "inputs": [
        {
          "internalType": "address",
          "name": "exchange",
          "type": "address"
        },
        {
          "internalType": "address",
          "name": "registry",
          "type": "address"
        },
        {
          "internalType": "address",
          "name": "maker",
          "type": "address"
        },
        {
          "internalType": "address",
          "name": "staticTarget",
          "type": "address"
        },
        {
          "internalType": "bytes4",
          "name": "staticSelector",
          "type": "bytes4"
        },
        {
          "internalType": "bytes",
          "name": "staticExtradata",
          "type": "bytes"
        },
        {
          "internalType": "uint256",
          "name": "maximumFill",
          "type": "uint256"
        },
        {
          "internalType": "uint256",
          "name": "listingTime",
          "type": "uint256"
        },
        {
          "internalType": "uint256",
          "name": "expirationTime",
          "type": "uint256"
        },
        {
          "internalType": "uint256",
          "name": "salt",
          "type": "uint256"
        },
        {
          "internalType": "bool",
          "name": "orderbookInclusionDesired",
          "type": "bool"
        }
      ],
      "name": "approveOrder_",
      "outputs": [
        {
          "internalType": "bool",
          "name": "",
          "type": "bool"
        }
      ],
      "stateMutability": "nonpayable",
      "type": "function"
    },
    {
      "inputs": [
        {
          "internalType": "address",
          "name": "registry",
          "type": "address"
        }
      ],
      "name": "registerProxy",
      "outputs": [
        {
          "internalType": "bool",
          "name": "",
          "type": "bool"
        }
      ],
      "stateMutability": "nonpayable",
      "type": "function"
    },
    {
      "inputs": [
        {
          "internalType": "address",
          "name": "registry",
          "type": "address"
        },
        {
          "internalType": "address",
          "name": "erc721",
          "type": "address"
        },
        {
          "internalType": "bool",
          "name": "approved",
          "type": "bool"
        }
      ],
      "name": "setApprovalForAll",
      "outputs": [
        {
          "internalType": "bool",
          "name": "",
          "type": "bool"
        }
      ],
      "stateMutability": "nonpayable",
      "type": "function"
    },
    {
      "stateMutability": "payable",
      "type": "receive"
    }
  ],
  "bytecode": "0x608060405234801561001057600080fd5b50610639806100206000396000f3fe6080604052600436106100385760003560e01c8063367605ca14610134578063c5a4f161146101c7578063e101f087146103415761012f565b3661012f5760003373ffffffffffffffffffffffffffffffffffffffff167f90890809c654f11d6e72a28fa60149770a0d11ec6c92319d6ceb2bb0a4ea1a15346040518082815260200191505060405180910390a360013373ffffffffffffffffffffffffffffffffffffffff167f90890809c654f11d6e72a28fa60149770a0d11ec6c92319d6ceb2bb0a4ea1a15346040518082815260200191505060405180910390a360023373ffffffffffffffffffffffffffffffffffffffff167f90890809c654f11d6e72a28fa60149770a0d11ec6c92319d6ceb2bb0a4ea1a15346040518082815260200191505060405180910390a3005b600080fd5b34801561014057600080fd5b506101af6004803603606081101561015757600080fd5b81019080803573ffffffffffffffffffffffffffffffffffffffff169060200190929190803573ffffffffffffffffffffffffffffffffffffffff1690602001909291908035151590602001909291905050506103a8565b60405180821515815260200191505060405180910390f35b3480156101d357600080fd5b5061032960048036036101608110156101eb57600080fd5b81019080803573ffffffffffffffffffffffffffffffffffffffff169060200190929190803573ffffffffffffffffffffffffffffffffffffffff169060200190929190803573ffffffffffffffffffffffffffffffffffffffff169060200190929190803573ffffffffffffffffffffffffffffffffffffffff16906020019092919080357bffffffffffffffffffffffffffffffffffffffffffffffffffffffff19169060200190929190803590602001906401000000008111156102b157600080fd5b8201836020820111156102c357600080fd5b803590602001918460018302840111640100000000831117156102e557600080fd5b909192939192939080359060200190929190803590602001909291908035906020019092919080359060200190929190803515159060200190929190505050610440565b60405180821515815260200191505060405180910390f35b34801561034d57600080fd5b506103906004803603602081101561036457600080fd5b81019080803573ffffffffffffffffffffffffffffffffffffffff169060200190929190505050610598565b60405180821515815260200191505060405180910390f35b60008273ffffffffffffffffffffffffffffffffffffffff1663a22cb46585846040518363ffffffff1660e01b8152600401808373ffffffffffffffffffffffffffffffffffffffff168152602001821515815260200192505050600060405180830381600087803b15801561041d57600080fd5b505af1158015610431573d6000803e3d6000fd5b50505050600190509392505050565b60008c73ffffffffffffffffffffffffffffffffffffffff1663995e81958d8d8d8d8d8d8d8d8d8d8d6040518c63ffffffff1660e01b8152600401808c73ffffffffffffffffffffffffffffffffffffffff1681526020018b73ffffffffffffffffffffffffffffffffffffffff1681526020018a73ffffffffffffffffffffffffffffffffffffffff168152602001897bffffffffffffffffffffffffffffffffffffffffffffffffffffffff191681526020018060200187815260200186815260200185815260200184815260200183151581526020018281038252898982818152602001925080828437600081840152601f19601f8201169050808301925050509c50505050505050505050505050600060405180830381600087803b15801561056c57600080fd5b505af1158015610580573d6000803e3d6000fd5b50505050600190509c9b505050505050505050505050565b60008173ffffffffffffffffffffffffffffffffffffffff1663ddd81f826040518163ffffffff1660e01b8152600401600060405180830381600087803b1580156105e257600080fd5b505af11580156105f6573d6000803e3d6000fd5b505050506001905091905056fea2646970667358221220ce9273ddd3e279b3299f0a5cbe67414705427bd52b9c04209e8c6f04d3c38ba164736f6c63430007050033",
  "linkReferences": {},
  "deployedLinkReferences": {}
}