{
  "_format": "hh-sol-artifact-1",
  "contractName": "WyvernExchange",
  "sourceName": "contracts/WyvernExchange.sol",
  "abi": [
    {
      "inputs": [
        {
          "internalType": "uint256",
          "name": "chainId",
          "type": "uint256"
        },
        {
          "internalType": "address[]",
          "name": "registryAddrs",
          "type": "address[]"
        },
        {
          "internalType": "bytes",
          "name": "customPersonalSignPrefix",
          "type": "bytes"
        }
      ],
      "stateMutability": "nonpayable",
      "type": "constructor"
    },
    {
      "anonymous": false,
      "inputs": [
        {
          "indexed": true,
          "internalType": "bytes32",
          "name": "hash",
          "type": "bytes32"
        },
        {
          "indexed": false,
          "internalType": "address",
          "name": "registry",
          "type": "address"
        },
        {
          "indexed": true,
          "internalType": "address",
          "name": "maker",
          "type": "address"
        },
        {
          "indexed": false,
          "internalType": "address",
          "name": "staticTarget",
          "type": "address"
        },
        {
          "indexed": false,
          "internalType": "bytes4",
          "name": "staticSelector",
          "type": "bytes4"
        },
        {
          "indexed": false,
          "internalType": "bytes",
          "name": "staticExtradata",
          "type": "bytes"
        },
        {
          "indexed": false,
          "internalType": "uint256",
          "name": "maximumFill",
          "type": "uint256"
        },
        {
          "indexed": false,
          "internalType": "uint256",
          "name": "listingTime",
          "type": "uint256"
        },
        {
          "indexed": false,
          "internalType": "uint256",
          "name": "expirationTime",
          "type": "uint256"
        },
        {
          "indexed": false,
          "internalType": "uint256",
          "name": "salt",
          "type": "uint256"
        },
        {
          "indexed": false,
          "internalType": "bool",
          "name": "orderbookInclusionDesired",
          "type": "bool"
        }
      ],
      "name": "OrderApproved",
      "type": "event"
    },
    {
      "anonymous": false,
      "inputs": [
        {
          "indexed": true,
          "internalType": "bytes32",
          "name": "hash",
          "type": "bytes32"
        },
        {
          "indexed": true,
          "internalType": "address",
          "name": "maker",
          "type": "address"
        },
        {
          "indexed": false,
          "internalType": "uint256",
          "name": "newFill",
          "type": "uint256"
        }
      ],
      "name": "OrderFillChanged",
      "type": "event"
    },
    {
      "anonymous": false,
      "inputs": [
        {
          "indexed": false,
          "internalType": "bytes32",
          "name": "firstHash",
          "type": "bytes32"
        },
        {
          "indexed": false,
          "internalType": "bytes32",
          "name": "secondHash",
          "type": "bytes32"
        },
        {
          "indexed": true,
          "internalType": "address",
          "name": "firstMaker",
          "type": "address"
        },
        {
          "indexed": true,
          "internalType": "address",
          "name": "secondMaker",
          "type": "address"
        },
        {
          "indexed": false,
          "internalType": "uint256",
          "name": "newFirstFill",
          "type": "uint256"
        },
        {
          "indexed": false,
          "internalType": "uint256",
          "name": "newSecondFill",
          "type": "uint256"
        },
        {
          "indexed": true,
          "internalType": "bytes32",
          "name": "metadata",
          "type": "bytes32"
        }
      ],
      "name": "OrdersMatched",
      "type": "event"
    },
    {
      "inputs": [
        {
          "internalType": "bytes32",
          "name": "hash",
          "type": "bytes32"
        }
      ],
      "name": "approveOrderHash_",
      "outputs": [],
      "stateMutability": "nonpayable",
      "type": "function"
    },
    {
      "inputs": [
        {
          "internalType": "address",
          "name": "registry",
          "type": "address"
        },
        {
          "internalType": "address",
          "name": "maker",
          "type": "address"
        },
        {
          "internalType": "address",
          "name": "staticTarget",
          "type": "address"
        },
        {
          "internalType": "bytes4",
          "name": "staticSelector",
          "type": "bytes4"
        },
        {
          "internalType": "bytes",
          "name": "staticExtradata",
          "type": "bytes"
        },
        {
          "internalType": "uint256",
          "name": "maximumFill",
          "type": "uint256"
        },
        {
          "internalType": "uint256",
          "name": "listingTime",
          "type": "uint256"
        },
        {
          "internalType": "uint256",
          "name": "expirationTime",
          "type": "uint256"
        },
        {
          "internalType": "uint256",
          "name": "salt",
          "type": "uint256"
        },
        {
          "internalType": "bool",
          "name": "orderbookInclusionDesired",
          "type": "bool"
        }
      ],
      "name": "approveOrder_",
      "outputs": [],
      "stateMutability": "nonpayable",
      "type": "function"
    },
    {
      "inputs": [
        {
          "internalType": "address",
          "name": "",
          "type": "address"
        },
        {
          "internalType": "bytes32",
          "name": "",
          "type": "bytes32"
        }
      ],
      "name": "approved",
      "outputs": [
        {
          "internalType": "bool",
          "name": "",
          "type": "bool"
        }
      ],
      "stateMutability": "view",
      "type": "function"
    },
    {
      "inputs": [
        {
          "internalType": "uint256[16]",
          "name": "uints",
          "type": "uint256[16]"
        },
        {
          "internalType": "bytes4[2]",
          "name": "staticSelectors",
          "type": "bytes4[2]"
        },
        {
          "internalType": "bytes",
          "name": "firstExtradata",
          "type": "bytes"
        },
        {
          "internalType": "bytes",
          "name": "firstCalldata",
          "type": "bytes"
        },
        {
          "internalType": "bytes",
          "name": "secondExtradata",
          "type": "bytes"
        },
        {
          "internalType": "bytes",
          "name": "secondCalldata",
          "type": "bytes"
        },
        {
          "internalType": "uint8[2]",
          "name": "howToCalls",
          "type": "uint8[2]"
        },
        {
          "internalType": "bytes32",
          "name": "metadata",
          "type": "bytes32"
        },
        {
          "internalType": "bytes",
          "name": "signatures",
          "type": "bytes"
        }
      ],
      "name": "atomicMatch_",
      "outputs": [],
      "stateMutability": "payable",
      "type": "function"
    },
    {
      "inputs": [],
      "name": "codename",
      "outputs": [
        {
          "internalType": "string",
          "name": "",
          "type": "string"
        }
      ],
      "stateMutability": "view",
      "type": "function"
    },
    {
      "inputs": [
        {
          "internalType": "address",
          "name": "",
          "type": "address"
        },
        {
          "internalType": "bytes32",
          "name": "",
          "type": "bytes32"
        }
      ],
      "name": "fills",
      "outputs": [
        {
          "internalType": "uint256",
          "name": "",
          "type": "uint256"
        }
      ],
      "stateMutability": "view",
      "type": "function"
    },
    {
      "inputs": [
        {
          "internalType": "address",
          "name": "registry",
          "type": "address"
        },
        {
          "internalType": "address",
          "name": "maker",
          "type": "address"
        },
        {
          "internalType": "address",
          "name": "staticTarget",
          "type": "address"
        },
        {
          "internalType": "bytes4",
          "name": "staticSelector",
          "type": "bytes4"
        },
        {
          "internalType": "bytes",
          "name": "staticExtradata",
          "type": "bytes"
        },
        {
          "internalType": "uint256",
          "name": "maximumFill",
          "type": "uint256"
        },
        {
          "internalType": "uint256",
          "name": "listingTime",
          "type": "uint256"
        },
        {
          "internalType": "uint256",
          "name": "expirationTime",
          "type": "uint256"
        },
        {
          "internalType": "uint256",
          "name": "salt",
          "type": "uint256"
        }
      ],
      "name": "hashOrder_",
      "outputs": [
        {
          "internalType": "bytes32",
          "name": "hash",
          "type": "bytes32"
        }
      ],
      "stateMutability": "pure",
      "type": "function"
    },
    {
      "inputs": [
        {
          "internalType": "bytes32",
          "name": "orderHash",
          "type": "bytes32"
        }
      ],
      "name": "hashToSign_",
      "outputs": [
        {
          "internalType": "bytes32",
          "name": "hash",
          "type": "bytes32"
        }
      ],
      "stateMutability": "view",
      "type": "function"
    },
    {
      "inputs": [],
      "name": "name",
      "outputs": [
        {
          "internalType": "string",
          "name": "",
          "type": "string"
        }
      ],
      "stateMutability": "view",
      "type": "function"
    },
    {
      "inputs": [
        {
          "internalType": "address",
          "name": "",
          "type": "address"
        }
      ],
      "name": "registries",
      "outputs": [
        {
          "internalType": "bool",
          "name": "",
          "type": "bool"
        }
      ],
      "stateMutability": "view",
      "type": "function"
    },
    {
      "inputs": [
        {
          "internalType": "bytes32",
          "name": "hash",
          "type": "bytes32"
        },
        {
          "internalType": "uint256",
          "name": "fill",
          "type": "uint256"
        }
      ],
      "name": "setOrderFill_",
      "outputs": [],
      "stateMutability": "nonpayable",
      "type": "function"
    },
    {
      "inputs": [
        {
          "internalType": "bytes32",
          "name": "hash",
          "type": "bytes32"
        },
        {
          "internalType": "address",
          "name": "maker",
          "type": "address"
        },
        {
          "internalType": "bytes",
          "name": "signature",
          "type": "bytes"
        }
      ],
      "name": "validateOrderAuthorization_",
      "outputs": [
        {
          "internalType": "bool",
          "name": "",
          "type": "bool"
        }
      ],
      "stateMutability": "view",
      "type": "function"
    },
    {
      "inputs": [
        {
          "internalType": "address",
          "name": "registry",
          "type": "address"
        },
        {
          "internalType": "address",
          "name": "maker",
          "type": "address"
        },
        {
          "internalType": "address",
          "name": "staticTarget",
          "type": "address"
        },
        {
          "internalType": "bytes4",
          "name": "staticSelector",
          "type": "bytes4"
        },
        {
          "internalType": "bytes",
          "name": "staticExtradata",
          "type": "bytes"
        },
        {
          "internalType": "uint256",
          "name": "maximumFill",
          "type": "uint256"
        },
        {
          "internalType": "uint256",
          "name": "listingTime",
          "type": "uint256"
        },
        {
          "internalType": "uint256",
          "name": "expirationTime",
          "type": "uint256"
        },
        {
          "internalType": "uint256",
          "name": "salt",
          "type": "uint256"
        }
      ],
      "name": "validateOrderParameters_",
      "outputs": [
        {
          "internalType": "bool",
          "name": "",
          "type": "bool"
        }
      ],
      "stateMutability": "view",
      "type": "function"
    },
    {
      "inputs": [],
      "name": "version",
      "outputs": [
        {
          "internalType": "string",
          "name": "",
          "type": "string"
        }
      ],
      "stateMutability": "view",
      "type": "function"
    }
  ],
  "bytecode": "0x608060405260008060006101000a81548160ff0219169083151502179055506040518060400160405280601a81526020017f19457468657265756d205369676e6564204d6573736167653a0a000000000000815250600290805190602001906200006b92919062000413565b503480156200007957600080fd5b5060405162003c4e38038062003c4e833981810160405260608110156200009f57600080fd5b810190808051906020019092919080516040519392919084640100000000821115620000ca57600080fd5b83820191506020820185811115620000e157600080fd5b8251866020820283011164010000000082111715620000ff57600080fd5b8083526020830192505050908051906020019060200280838360005b83811015620001385780820151818401526020810190506200011b565b50505050905001604052602001805160405193929190846401000000008211156200016257600080fd5b838201915060208201858111156200017957600080fd5b82518660018202830111640100000000821117156200019757600080fd5b8083526020830192505050908051906020019080838360005b83811015620001cd578082015181840152602081019050620001b0565b50505050905090810190601f168015620001fb5780820380516001836020036101000a031916815260200191505b50604052505050620002b360405180608001604052806040518060400160405280600f81526020017f57797665726e2045786368616e6765000000000000000000000000000000000081525081526020016040518060400160405280600381526020017f332e31000000000000000000000000000000000000000000000000000000000081525081526020018581526020013073ffffffffffffffffffffffffffffffffffffffff168152506200036f60201b60201c565b60018190555060005b82518110156200034057600160036000858481518110620002d957fe5b602002602001015173ffffffffffffffffffffffffffffffffffffffff1673ffffffffffffffffffffffffffffffffffffffff16815260200190815260200160002060006101000a81548160ff0219169083151502179055508080600101915050620002bc565b506000815111156200036657806002908051906020019062000364929190620004aa565b505b50505062000560565b60007f8b73c3c69bb8fe3d512ecc4cf759cc79239f7b179b0ffacaa9a75d522b39400f82600001518051906020012083602001518051906020012084604001518560600151604051602001808681526020018581526020018481526020018381526020018273ffffffffffffffffffffffffffffffffffffffff16815260200195505050505050604051602081830303815290604052805190602001209050919050565b828054600181600116156101000203166002900490600052602060002090601f0160209004810192826200044b576000855562000497565b82601f106200046657805160ff191683800117855562000497565b8280016001018555821562000497579182015b828111156200049657825182559160200191906001019062000479565b5b509050620004a6919062000541565b5090565b828054600181600116156101000203166002900490600052602060002090601f016020900481019282620004e257600085556200052e565b82601f10620004fd57805160ff19168380011785556200052e565b828001600101855582156200052e579182015b828111156200052d57825182559160200191906001019062000510565b5b5090506200053d919062000541565b5090565b5b808211156200055c57600081600090555060010162000542565b5090565b6136de80620005706000396000f3fe6080604052600436106100dd5760003560e01c80639a5168db1161007f578063f861975b11610059578063f861975b146109b8578063f9b0bc2014610b04578063fac7fc3814610c52578063ffc2ab1414610cc3576100dd565b80639a5168db1461051c578063caed80df14610902578063d57ad58814610969576100dd565b806314127f13116100bb57806314127f131461027357806331e63199146102b857806354fd4d5014610348578063995e8195146103d8576100dd565b806306fdde03146100e25780630812226e1461017257806313b219e2146101ad575b600080fd5b3480156100ee57600080fd5b506100f7610d32565b6040518080602001828103825283818151815260200191508051906020019080838360005b8381101561013757808201518184015260208101905061011c565b50505050905090810190601f1680156101645780820380516001836020036101000a031916815260200191505b509250505060405180910390f35b34801561017e57600080fd5b506101ab6004803603602081101561019557600080fd5b8101908080359060200190929190505050610d6b565b005b3480156101b957600080fd5b5061025b600480360360608110156101d057600080fd5b8101908080359060200190929190803573ffffffffffffffffffffffffffffffffffffffff1690602001909291908035906020019064010000000081111561021757600080fd5b82018360208201111561022957600080fd5b8035906020019184600183028401116401000000008311171561024b57600080fd5b9091929391929390505050610d77565b60405180821515815260200191505060405180910390f35b34801561027f57600080fd5b506102b66004803603604081101561029657600080fd5b810190808035906020019092919080359060200190929190505050610dd2565b005b3480156102c457600080fd5b506102cd610de0565b6040518080602001828103825283818151815260200191508051906020019080838360005b8381101561030d5780820151818401526020810190506102f2565b50505050905090810190601f16801561033a5780820380516001836020036101000a031916815260200191505b509250505060405180910390f35b34801561035457600080fd5b5061035d610e19565b6040518080602001828103825283818151815260200191508051906020019080838360005b8381101561039d578082015181840152602081019050610382565b50505050905090810190601f1680156103ca5780820380516001836020036101000a031916815260200191505b509250505060405180910390f35b3480156103e457600080fd5b5061051a60048036036101408110156103fc57600080fd5b81019080803573ffffffffffffffffffffffffffffffffffffffff169060200190929190803573ffffffffffffffffffffffffffffffffffffffff169060200190929190803573ffffffffffffffffffffffffffffffffffffffff16906020019092919080357bffffffffffffffffffffffffffffffffffffffffffffffffffffffff19169060200190929190803590602001906401000000008111156104a257600080fd5b8201836020820111156104b457600080fd5b803590602001918460018302840111640100000000831117156104d657600080fd5b909192939192939080359060200190929190803590602001909291908035906020019092919080359060200190929190803515159060200190929190505050610e52565b005b610900600480360361034081101561053357600080fd5b810190808061020001906010806020026040519081016040528092919082601060200280828437600081840152601f19601f820116905080830192505050505050919291929080604001906002806020026040519081016040528092919082600260200280828437600081840152601f19601f8201169050808301925050505050509192919290803590602001906401000000008111156105d357600080fd5b8201836020820111156105e557600080fd5b8035906020019184600183028401116401000000008311171561060757600080fd5b91908080601f016020809104026020016040519081016040528093929190818152602001838380828437600081840152601f19601f8201169050808301925050505050505091929192908035906020019064010000000081111561066a57600080fd5b82018360208201111561067c57600080fd5b8035906020019184600183028401116401000000008311171561069e57600080fd5b91908080601f016020809104026020016040519081016040528093929190818152602001838380828437600081840152601f19601f8201169050808301925050505050505091929192908035906020019064010000000081111561070157600080fd5b82018360208201111561071357600080fd5b8035906020019184600183028401116401000000008311171561073557600080fd5b91908080601f016020809104026020016040519081016040528093929190818152602001838380828437600081840152601f19601f8201169050808301925050505050505091929192908035906020019064010000000081111561079857600080fd5b8201836020820111156107aa57600080fd5b803590602001918460018302840111640100000000831117156107cc57600080fd5b91908080601f016020809104026020016040519081016040528093929190818152602001838380828437600081840152601f19601f82011690508083019250505050505050919291929080604001906002806020026040519081016040528092919082600260200280828437600081840152601f19601f8201169050808301925050505050509192919290803590602001909291908035906020019064010000000081111561087a57600080fd5b82018360208201111561088c57600080fd5b803590602001918460018302840111640100000000831117156108ae57600080fd5b91908080601f016020809104026020016040519081016040528093929190818152602001838380828437600081840152601f19601f820116905080830192505050505050509192919290505050610f4d565b005b34801561090e57600080fd5b506109516004803603602081101561092557600080fd5b81019080803573ffffffffffffffffffffffffffffffffffffffff16906020019092919050505061128c565b60405180821515815260200191505060405180910390f35b34801561097557600080fd5b506109a26004803603602081101561098c57600080fd5b81019080803590602001909291905050506112ac565b6040518082815260200191505060405180910390f35b3480156109c457600080fd5b50610aee60048036036101208110156109dc57600080fd5b81019080803573ffffffffffffffffffffffffffffffffffffffff169060200190929190803573ffffffffffffffffffffffffffffffffffffffff169060200190929190803573ffffffffffffffffffffffffffffffffffffffff16906020019092919080357bffffffffffffffffffffffffffffffffffffffffffffffffffffffff1916906020019092919080359060200190640100000000811115610a8257600080fd5b820183602082011115610a9457600080fd5b80359060200191846001830284011164010000000083111715610ab657600080fd5b9091929391929390803590602001909291908035906020019092919080359060200190929190803590602001909291905050506112be565b6040518082815260200191505060405180910390f35b348015610b1057600080fd5b50610c3a6004803603610120811015610b2857600080fd5b81019080803573ffffffffffffffffffffffffffffffffffffffff169060200190929190803573ffffffffffffffffffffffffffffffffffffffff169060200190929190803573ffffffffffffffffffffffffffffffffffffffff16906020019092919080357bffffffffffffffffffffffffffffffffffffffffffffffffffffffff1916906020019092919080359060200190640100000000811115610bce57600080fd5b820183602082011115610be057600080fd5b80359060200191846001830284011164010000000083111715610c0257600080fd5b9091929391929390803590602001909291908035906020019092919080359060200190929190803590602001909291905050506113bd565b60405180821515815260200191505060405180910390f35b348015610c5e57600080fd5b50610cab60048036036040811015610c7557600080fd5b81019080803573ffffffffffffffffffffffffffffffffffffffff169060200190929190803590602001909291905050506114d1565b60405180821515815260200191505060405180910390f35b348015610ccf57600080fd5b50610d1c60048036036040811015610ce657600080fd5b81019080803573ffffffffffffffffffffffffffffffffffffffff16906020019092919080359060200190929190505050611500565b6040518082815260200191505060405180910390f35b6040518060400160405280600f81526020017f57797665726e2045786368616e6765000000000000000000000000000000000081525081565b610d7481611525565b50565b6000610dc8858585858080601f016020809104026020016040519081016040528093929190818152602001838380828437600081840152601f19601f82011690508083019250505050505050611662565b9050949350505050565b610ddc8282611b8e565b5050565b6040518060400160405280600981526020017f416e63616c61676f6e000000000000000000000000000000000000000000000081525081565b6040518060400160405280600381526020017f332e31000000000000000000000000000000000000000000000000000000000081525081565b610f406040518061012001604052808d73ffffffffffffffffffffffffffffffffffffffff1681526020018c73ffffffffffffffffffffffffffffffffffffffff1681526020018b73ffffffffffffffffffffffffffffffffffffffff1681526020018a7bffffffffffffffffffffffffffffffffffffffffffffffffffffffff1916815260200189898080601f016020809104026020016040519081016040528093929190818152602001838380828437600081840152601f19601f8201169050808301925050505050505081526020018781526020018681526020018581526020018481525082611cdf565b5050505050505050505050565b6112816040518061012001604052808b600060108110610f6957fe5b602002015173ffffffffffffffffffffffffffffffffffffffff1681526020018b600160108110610f9657fe5b602002015173ffffffffffffffffffffffffffffffffffffffff1681526020018b600260108110610fc357fe5b602002015173ffffffffffffffffffffffffffffffffffffffff1681526020018a600060028110610ff057fe5b60200201517bffffffffffffffffffffffffffffffffffffffffffffffffffffffff191681526020018981526020018b60036010811061102c57fe5b602002015181526020018b60046010811061104357fe5b602002015181526020018b60056010811061105a57fe5b602002015181526020018b60066010811061107157fe5b602002015181525060405180606001604052808c60076010811061109157fe5b602002015173ffffffffffffffffffffffffffffffffffffffff168152602001866000600281106110be57fe5b602002015160ff1660018111156110d157fe5b60018111156110dc57fe5b8152602001898152506040518061012001604052808d6008601081106110fe57fe5b602002015173ffffffffffffffffffffffffffffffffffffffff1681526020018d60096010811061112b57fe5b602002015173ffffffffffffffffffffffffffffffffffffffff1681526020018d600a6010811061115857fe5b602002015173ffffffffffffffffffffffffffffffffffffffff1681526020018c60016002811061118557fe5b60200201517bffffffffffffffffffffffffffffffffffffffffffffffffffffffff191681526020018981526020018d600b601081106111c157fe5b602002015181526020018d600c601081106111d857fe5b602002015181526020018d600d601081106111ef57fe5b602002015181526020018d600e6010811061120657fe5b602002015181525060405180606001604052808e600f6010811061122657fe5b602002015173ffffffffffffffffffffffffffffffffffffffff1681526020018860016002811061125357fe5b602002015160ff16600181111561126657fe5b600181111561127157fe5b8152602001898152508587611ee8565b505050505050505050565b60036020528060005260406000206000915054906101000a900460ff1681565b60006112b7826127d7565b9050919050565b60006113ad6040518061012001604052808d73ffffffffffffffffffffffffffffffffffffffff1681526020018c73ffffffffffffffffffffffffffffffffffffffff1681526020018b73ffffffffffffffffffffffffffffffffffffffff1681526020018a7bffffffffffffffffffffffffffffffffffffffffffffffffffffffff1916815260200189898080601f016020809104026020016040519081016040528093929190818152602001838380828437600081840152601f19601f82011690508083019250505050505050815260200187815260200186815260200185815260200184815250612839565b90509a9950505050505050505050565b60006113c7613443565b6040518061012001604052808d73ffffffffffffffffffffffffffffffffffffffff1681526020018c73ffffffffffffffffffffffffffffffffffffffff1681526020018b73ffffffffffffffffffffffffffffffffffffffff1681526020018a7bffffffffffffffffffffffffffffffffffffffffffffffffffffffff1916815260200189898080601f016020809104026020016040519081016040528093929190818152602001838380828437600081840152601f19601f8201169050808301925050505050505081526020018781526020018681526020018581526020018481525090506114c0816114bb83612839565b61295e565b9150509a9950505050505050505050565b60056020528160005260406000206020528060005260406000206000915091509054906101000a900460ff1681565b6004602052816000526040600020602052806000526040600020600091509150505481565b600560003373ffffffffffffffffffffffffffffffffffffffff1673ffffffffffffffffffffffffffffffffffffffff168152602001908152602001600020600082815260200190815260200160002060009054906101000a900460ff16156115f6576040517f08c379a000000000000000000000000000000000000000000000000000000000815260040180806020018281038252601f8152602001807f4f726465722068617320616c7265616479206265656e20617070726f7665640081525060200191505060405180910390fd5b6001600560003373ffffffffffffffffffffffffffffffffffffffff1673ffffffffffffffffffffffffffffffffffffffff168152602001908152602001600020600083815260200190815260200160002060006101000a81548160ff02191690831515021790555050565b600080600460008573ffffffffffffffffffffffffffffffffffffffff1673ffffffffffffffffffffffffffffffffffffffff16815260200190815260200160002060008681526020019081526020016000205411156116c55760019050611b87565b3373ffffffffffffffffffffffffffffffffffffffff168373ffffffffffffffffffffffffffffffffffffffff1614156117025760019050611b87565b600560008473ffffffffffffffffffffffffffffffffffffffff1673ffffffffffffffffffffffffffffffffffffffff168152602001908152602001600020600085815260200190815260200160002060009054906101000a900460ff161561176e5760019050611b87565b6000611779856127d7565b9050600061178685612a22565b905080156118e957631626ba7e60e01b7bffffffffffffffffffffffffffffffffffffffffffffffffffffffff19168573ffffffffffffffffffffffffffffffffffffffff16631626ba7e84876040518363ffffffff1660e01b81526004018083815260200180602001828103825283818151815260200191508051906020019080838360005b8381101561182857808201518184015260208101905061180d565b50505050905090810190601f1680156118555780820380516001836020036101000a031916815260200191505b50935050505060206040518083038186803b15801561187357600080fd5b505afa158015611887573d6000803e3d6000fd5b505050506040513d602081101561189d57600080fd5b81019080805190602001909291905050507bffffffffffffffffffffffffffffffffffffffffffffffffffffffff191614156118de57600192505050611b87565b600092505050611b87565b600080600086806020019051606081101561190357600080fd5b810190808051906020019092919080519060200190929190805190602001909291905050509250925092506041875111801561197e5750600360f81b8760018951038151811061194f57fe5b602001015160f81c60f81b7effffffffffffffffffffffffffffffffffffffffffffffffffffffffffffff1916145b15611ad7578773ffffffffffffffffffffffffffffffffffffffff16600160028760405160200180838054600181600116156101000203166002900480156119fd5780601f106119db5761010080835404028352918201916119fd565b820191906000526020600020905b8154815290600101906020018083116119e9575b5050807f3332000000000000000000000000000000000000000000000000000000000000815250600201828152602001925050506040516020818303038152906040528051906020012085858560405160008152602001604052604051808581526020018460ff1681526020018381526020018281526020019450505050506020604051602081039080840390855afa158015611a9e573d6000803e3d6000fd5b5050506020604051035173ffffffffffffffffffffffffffffffffffffffff161415611ad257600195505050505050611b87565b611b7d565b8773ffffffffffffffffffffffffffffffffffffffff1660018685858560405160008152602001604052604051808581526020018460ff1681526020018381526020018281526020019450505050506020604051602081039080840390855afa158015611b48573d6000803e3d6000fd5b5050506020604051035173ffffffffffffffffffffffffffffffffffffffff161415611b7c57600195505050505050611b87565b5b6000955050505050505b9392505050565b80600460003373ffffffffffffffffffffffffffffffffffffffff1673ffffffffffffffffffffffffffffffffffffffff1681526020019081526020016000206000848152602001908152602001600020541415611c37576040517f08c379a00000000000000000000000000000000000000000000000000000000081526004018080602001828103825260288152602001806135d26028913960400191505060405180910390fd5b80600460003373ffffffffffffffffffffffffffffffffffffffff1673ffffffffffffffffffffffffffffffffffffffff1681526020019081526020016000206000848152602001908152602001600020819055503373ffffffffffffffffffffffffffffffffffffffff16827f826cd05b52546b47590739469989cacd5336e0a9e6f9392de2dee5cfb19c8aab836040518082815260200191505060405180910390a35050565b3373ffffffffffffffffffffffffffffffffffffffff16826020015173ffffffffffffffffffffffffffffffffffffffff1614611d67576040517f08c379a000000000000000000000000000000000000000000000000000000000815260040180806020018281038252604a815260200180613557604a913960600191505060405180910390fd5b6000611d7283612839565b9050611d7d81611525565b826020015173ffffffffffffffffffffffffffffffffffffffff16817fbace5d282ba59cba3de1ac539b0ed46ae5a3d8ad434a3ac9f07ce45d1661481885600001518660400151876060015188608001518960a001518a60c001518b60e001518c61010001518c604051808a73ffffffffffffffffffffffffffffffffffffffff1681526020018973ffffffffffffffffffffffffffffffffffffffff168152602001887bffffffffffffffffffffffffffffffffffffffffffffffffffffffff19168152602001806020018781526020018681526020018581526020018481526020018315158152602001828103825288818151815260200191508051906020019080838360005b83811015611ea1578082015181840152602081019050611e86565b50505050905090810190601f168015611ece5780820380516001836020036101000a031916815260200191505b509a505050505050505050505060405180910390a3505050565b60008054906101000a900460ff1615611f69576040517f08c379a00000000000000000000000000000000000000000000000000000000081526004018080602001828103825260138152602001807f5265656e7472616e63792064657465637465640000000000000000000000000081525060200191505060405180910390fd5b60016000806101000a81548160ff0219169083151502179055506000611f8e87612839565b9050611f9a878261295e565b611fef576040517f08c379a00000000000000000000000000000000000000000000000000000000081526004018080602001828103825260228152602001806136436022913960400191505060405180910390fd5b6000611ffa86612839565b9050612006868261295e565b61205b576040517f08c379a00000000000000000000000000000000000000000000000000000000081526004018080602001828103825260238152602001806136866023913960400191505060405180910390fd5b808214156120b4576040517f08c379a00000000000000000000000000000000000000000000000000000000081526004018080602001828103825260228152602001806135fa6022913960400191505060405180910390fd5b6060808580602001905160408110156120cc57600080fd5b81019080805160405193929190846401000000008211156120ec57600080fd5b8382019150602082018581111561210257600080fd5b825186600182028301116401000000008211171561211f57600080fd5b8083526020830192505050908051906020019080838360005b83811015612153578082015181840152602081019050612138565b50505050905090810190601f1680156121805780820380516001836020036101000a031916815260200191505b50604052602001805160405193929190846401000000008211156121a357600080fd5b838201915060208201858111156121b957600080fd5b82518660018202830111640100000000821117156121d657600080fd5b8083526020830192505050908051906020019080838360005b8381101561220a5780820151818401526020810190506121ef565b50505050905090810190601f1680156122375780820380516001836020036101000a031916815260200191505b5060405250505091509150612251848b6020015184611662565b6122c3576040517f08c379a00000000000000000000000000000000000000000000000000000000081526004018080602001828103825260208152602001807f4669727374206f72646572206661696c656420617574686f72697a6174696f6e81525060200191505060405180910390fd5b6122d283896020015183611662565b612327576040517f08c379a00000000000000000000000000000000000000000000000000000000081526004018080602001828103825260218152602001806136656021913960400191505060405180910390fd5b50506000341115612414576000886020015173ffffffffffffffffffffffffffffffffffffffff163460405180600001905060006040518083038185875af1925050503d8060008114612396576040519150601f19603f3d011682016040523d82523d6000602084013e61239b565b606091505b5050905080612412576040517f08c379a000000000000000000000000000000000000000000000000000000000815260040180806020018281038252601d8152602001807f6e617469766520746f6b656e207472616e73666572206661696c65642e00000081525060200191505060405180910390fd5b505b6124278860000151896020015189612a35565b612499576040517f08c379a00000000000000000000000000000000000000000000000000000000081526004018080602001828103825260118152602001807f46697273742063616c6c206661696c656400000000000000000000000000000081525060200191505060405180910390fd5b6124ac8660000151876020015187612a35565b61251e576040517f08c379a00000000000000000000000000000000000000000000000000000000081526004018080602001828103825260128152602001807f5365636f6e642063616c6c206661696c6564000000000000000000000000000081525060200191505060405180910390fd5b6000600460008a6020015173ffffffffffffffffffffffffffffffffffffffff1673ffffffffffffffffffffffffffffffffffffffff1681526020019081526020016000206000848152602001908152602001600020549050600060046000896020015173ffffffffffffffffffffffffffffffffffffffff1673ffffffffffffffffffffffffffffffffffffffff168152602001908152602001600020600084815260200190815260200160002054905060006125e18b8b8b8b333489612f00565b905060006125f58a8a8e8e33600089612f00565b90503373ffffffffffffffffffffffffffffffffffffffff168c6020015173ffffffffffffffffffffffffffffffffffffffff16146126905783821461268f5781600460008e6020015173ffffffffffffffffffffffffffffffffffffffff1673ffffffffffffffffffffffffffffffffffffffff1681526020019081526020016000206000888152602001908152602001600020819055505b5b3373ffffffffffffffffffffffffffffffffffffffff168a6020015173ffffffffffffffffffffffffffffffffffffffff1614612729578281146127285780600460008c6020015173ffffffffffffffffffffffffffffffffffffffff1673ffffffffffffffffffffffffffffffffffffffff1681526020019081526020016000206000878152602001908152602001600020819055505b5b868a6020015173ffffffffffffffffffffffffffffffffffffffff168d6020015173ffffffffffffffffffffffffffffffffffffffff167fe8447df45ce371d4c2f6cfcb9342b06165f71b244e809b909977f0dab191a009898987876040518085815260200184815260200183815260200182815260200194505050505060405180910390a450505050505060008060006101000a81548160ff021916908315150217905550505050505050565b60006001548260405160200180807f190100000000000000000000000000000000000000000000000000000000000081525060020183815260200182815260200192505050604051602081830303815290604052805190602001209050919050565b60007feb61b8100bcd004cad335a779aa74e9b176b520f4b98e7b487c133a82e9853dd82600001518360200151846040015185606001518660800151805190602001208760a001518860c001518960e001518a6101000151604051602001808b81526020018a73ffffffffffffffffffffffffffffffffffffffff1681526020018973ffffffffffffffffffffffffffffffffffffffff1681526020018873ffffffffffffffffffffffffffffffffffffffff168152602001877bffffffffffffffffffffffffffffffffffffffffffffffffffffffff191681526020018681526020018581526020018481526020018381526020018281526020019a5050505050505050505050604051602081830303815290604052805190602001209050919050565b6000428360c001511180612987575060008360e00151141580156129865750428360e0015111155b5b156129955760009050612a1c565b8260a0015160046000856020015173ffffffffffffffffffffffffffffffffffffffff1673ffffffffffffffffffffffffffffffffffffffff168152602001908152602001600020600084815260200190815260200160002054106129fd5760009050612a1c565b612a0a8360400151612a22565b612a175760009050612a1c565b600190505b92915050565b600080823b905060008111915050919050565b6000600360008573ffffffffffffffffffffffffffffffffffffffff1673ffffffffffffffffffffffffffffffffffffffff16815260200190815260200160002060009054906101000a900460ff16612a8d57600080fd5b612a9a8260000151612a22565b612b0c576040517f08c379a000000000000000000000000000000000000000000000000000000000815260040180806020018281038252601a8152602001807f43616c6c2074617267657420646f6573206e6f7420657869737400000000000081525060200191505060405180910390fd5b60008473ffffffffffffffffffffffffffffffffffffffff1663c4552791856040518263ffffffff1660e01b8152600401808273ffffffffffffffffffffffffffffffffffffffff168152602001915050602060405180830381600087803b158015612b7757600080fd5b505af1158015612b8b573d6000803e3d6000fd5b505050506040513d6020811015612ba157600080fd5b81019080805190602001909291905050509050600073ffffffffffffffffffffffffffffffffffffffff168173ffffffffffffffffffffffffffffffffffffffff161415612c3a576040517f08c379a000000000000000000000000000000000000000000000000000000000815260040180806020018281038252602781526020018061361c6027913960400191505060405180910390fd5b8473ffffffffffffffffffffffffffffffffffffffff166397204d8e6040518163ffffffff1660e01b8152600401602060405180830381600087803b158015612c8257600080fd5b505af1158015612c96573d6000803e3d6000fd5b505050506040513d6020811015612cac57600080fd5b810190808051906020019092919050505073ffffffffffffffffffffffffffffffffffffffff168173ffffffffffffffffffffffffffffffffffffffff16635c60da1b6040518163ffffffff1660e01b815260040160206040518083038186803b158015612d1957600080fd5b505afa158015612d2d573d6000803e3d6000fd5b505050506040513d6020811015612d4357600080fd5b810190808051906020019092919050505073ffffffffffffffffffffffffffffffffffffffff1614612dc0576040517f08c379a00000000000000000000000000000000000000000000000000000000081526004018080602001828103825260318152602001806135a16031913960400191505060405180910390fd5b60008190508073ffffffffffffffffffffffffffffffffffffffff16631b0f7ba98560000151866020015187604001516040518463ffffffff1660e01b8152600401808473ffffffffffffffffffffffffffffffffffffffff168152602001836001811115612e2b57fe5b815260200180602001828103825283818151815260200191508051906020019080838360005b83811015612e6c578082015181840152602081019050612e51565b50505050905090810190601f168015612e995780820380516001836020036101000a031916815260200191505b50945050505050602060405180830381600087803b158015612eba57600080fd5b505af1158015612ece573d6000803e3d6000fd5b505050506040513d6020811015612ee457600080fd5b8101908080519060200190929190505050925050509392505050565b6000612f1e8860400151612f198a8a8a8a8a8a8a612f2b565b6133ae565b9050979650505050505050565b6060612f356134f0565b6040518060e001604052808a6000015173ffffffffffffffffffffffffffffffffffffffff1673ffffffffffffffffffffffffffffffffffffffff1681526020018a6020015173ffffffffffffffffffffffffffffffffffffffff1673ffffffffffffffffffffffffffffffffffffffff168152602001896000015173ffffffffffffffffffffffffffffffffffffffff1673ffffffffffffffffffffffffffffffffffffffff168152602001886000015173ffffffffffffffffffffffffffffffffffffffff1673ffffffffffffffffffffffffffffffffffffffff168152602001886020015173ffffffffffffffffffffffffffffffffffffffff1673ffffffffffffffffffffffffffffffffffffffff168152602001876000015173ffffffffffffffffffffffffffffffffffffffff1673ffffffffffffffffffffffffffffffffffffffff1681526020018673ffffffffffffffffffffffffffffffffffffffff1673ffffffffffffffffffffffffffffffffffffffff1681525090506130be613512565b60405180604001604052808a6020015160018111156130d957fe5b60018111156130e457fe5b8152602001886020015160018111156130f957fe5b600181111561310457fe5b8152509050613111613534565b6040518060c001604052808781526020018c60a0015181526020018c60c0015181526020018c60e0015181526020018a60c0015181526020018681525090508a606001518b608001518484848e604001518d60400151604051602401808060200187600760200280838360005b8381101561319957808201518184015260208101905061317e565b5050505090500186600260200280838360005b838110156131c75780820151818401526020810190506131ac565b5050505090500185600660200280838360005b838110156131f55780820151818401526020810190506131da565b50505050905001806020018060200184810384528a818151815260200191508051906020019080838360005b8381101561323c578082015181840152602081019050613221565b50505050905090810190601f1680156132695780820380516001836020036101000a031916815260200191505b50848103835286818151815260200191508051906020019080838360005b838110156132a2578082015181840152602081019050613287565b50505050905090810190601f1680156132cf5780820380516001836020036101000a031916815260200191505b50848103825285818151815260200191508051906020019080838360005b838110156133085780820151818401526020810190506132ed565b50505050905090810190601f1680156133355780820380516001836020036101000a031916815260200191505b509950505050505050505050604051602081830303815290604052907bffffffffffffffffffffffffffffffffffffffffffffffffffffffff19166020820180517bffffffffffffffffffffffffffffffffffffffffffffffffffffffff83818316178352505050509350505050979650505050505050565b60008060206040518181865160208801895afa92508051935050508061343c576040517f08c379a00000000000000000000000000000000000000000000000000000000081526004018080602001828103825260128152602001807f5374617469632063616c6c206661696c6564000000000000000000000000000081525060200191505060405180910390fd5b5092915050565b604051806101200160405280600073ffffffffffffffffffffffffffffffffffffffff168152602001600073ffffffffffffffffffffffffffffffffffffffff168152602001600073ffffffffffffffffffffffffffffffffffffffff16815260200160007bffffffffffffffffffffffffffffffffffffffffffffffffffffffff1916815260200160608152602001600081526020016000815260200160008152602001600081525090565b6040518060e00160405280600790602082028036833780820191505090505090565b6040518060400160405280600290602082028036833780820191505090505090565b6040518060c0016040528060069060208202803683378082019150509050509056fe53656e646572206973206e6f7420746865206d616b6572206f6620746865206f7264657220616e642074687573206e6f7420617574686f72697a656420746f20617070726f7665206974496e636f72726563742064656c65676174652070726f787920696d706c656d656e746174696f6e20666f72206d616b657246696c6c20697320616c72656164792073657420746f2074686520646573697265642076616c756553656c662d6d61746368696e67206f72646572732069732070726f6869626974656444656c65676174652070726f787920646f6573206e6f7420657869737420666f72206d616b65724669727374206f726465722068617320696e76616c696420706172616d65746572735365636f6e64206f72646572206661696c656420617574686f72697a6174696f6e5365636f6e64206f726465722068617320696e76616c696420706172616d6574657273a26469706673582212205597907c1c14388e98d981b56902cac92a6444f71ef40fcd71d2618f27c26a7f64736f6c63430007050033",
  "linkReferences": {},
  "deployedLinkReferences": {}
}